{
  "abi": [
    {
      "inputs": [
        {
          "internalType": "address payable[2]",
          "name": "_users",
          "type": "address[2]"
        },
        {
          "internalType": "uint256[2]",
          "name": "_balances",
          "type": "uint256[2]"
        },
        {
          "internalType": "uint256",
          "name": "_expiresAt",
          "type": "uint256"
        },
        {
          "internalType": "uint256",
          "name": "_challengePeriod",
          "type": "uint256"
        }
      ],
      "stateMutability": "payable",
      "type": "constructor"
    },
    {
      "anonymous": false,
      "inputs": [
        {
          "indexed": true,
          "internalType": "address",
          "name": "sender",
          "type": "address"
        },
        {
          "indexed": false,
          "internalType": "uint256",
          "name": "nonce",
          "type": "uint256"
        }
      ],
      "name": "ChallengeExit",
      "type": "event"
    },
    {
      "anonymous": false,
      "inputs": [
        {
          "indexed": true,
          "internalType": "address",
          "name": "to",
          "type": "address"
        },
        {
          "indexed": false,
          "internalType": "uint256",
          "name": "amount",
          "type": "uint256"
        }
      ],
      "name": "Withdraw",
      "type": "event"
    },
    {
      "stateMutability": "payable",
      "type": "fallback"
    },
    {
      "inputs": [
        {
          "internalType": "address",
          "name": "",
          "type": "address"
        }
      ],
      "name": "balances",
      "outputs": [
        {
          "internalType": "uint256",
          "name": "",
          "type": "uint256"
        }
      ],
      "stateMutability": "view",
      "type": "function"
    },
    {
      "inputs": [
        {
          "internalType": "uint256[2]",
          "name": "_balances",
          "type": "uint256[2]"
        },
        {
          "internalType": "uint256",
          "name": "_nonce",
          "type": "uint256"
        },
        {
          "internalType": "bytes[2]",
          "name": "_signatures",
          "type": "bytes[2]"
        }
      ],
      "name": "challengeExit",
      "outputs": [],
      "stateMutability": "nonpayable",
      "type": "function"
    },
    {
      "inputs": [],
      "name": "challengePeriod",
      "outputs": [
        {
          "internalType": "uint256",
          "name": "",
          "type": "uint256"
        }
      ],
      "stateMutability": "view",
      "type": "function"
    },
    {
      "inputs": [],
      "name": "expiresAt",
      "outputs": [
        {
          "internalType": "uint256",
          "name": "",
          "type": "uint256"
        }
      ],
      "stateMutability": "view",
      "type": "function"
    },
    {
      "inputs": [
        {
          "internalType": "address",
          "name": "",
          "type": "address"
        }
      ],
      "name": "isUser",
      "outputs": [
        {
          "internalType": "bool",
          "name": "",
          "type": "bool"
        }
      ],
      "stateMutability": "view",
      "type": "function"
    },
    {
      "inputs": [],
      "name": "nonce",
      "outputs": [
        {
          "internalType": "uint256",
          "name": "",
          "type": "uint256"
        }
      ],
      "stateMutability": "view",
      "type": "function"
    },
    {
      "inputs": [
        {
          "internalType": "uint256",
          "name": "",
          "type": "uint256"
        }
      ],
      "name": "users",
      "outputs": [
        {
          "internalType": "address payable",
          "name": "",
          "type": "address"
        }
      ],
      "stateMutability": "view",
      "type": "function"
    },
    {
      "inputs": [
        {
          "internalType": "bytes[2]",
          "name": "_signatures",
          "type": "bytes[2]"
        },
        {
          "internalType": "address",
          "name": "_contract",
          "type": "address"
        },
        {
          "internalType": "address[2]",
          "name": "_signers",
          "type": "address[2]"
        },
        {
          "internalType": "uint256[2]",
          "name": "_balances",
          "type": "uint256[2]"
        },
        {
          "internalType": "uint256",
          "name": "_nonce",
          "type": "uint256"
        }
      ],
      "name": "verify",
      "outputs": [
        {
          "internalType": "bool",
          "name": "",
          "type": "bool"
        }
      ],
      "stateMutability": "view",
      "type": "function"
    },
    {
      "inputs": [],
      "name": "withdraw",
      "outputs": [],
      "stateMutability": "nonpayable",
      "type": "function"
    },
    {
      "stateMutability": "payable",
      "type": "receive"
    }
  ],
  "bytecode": "608060405260405162001f7538038062001f758339810160408190526200002691620004e3565b826200005660405180606001604052806032815260200162001f43603291396200037b60201b62000b151760201c565b6200008e6040518060600160405280603b815260200162001ed6603b9139825160208085015147929162000b5b620003c9821b17901c565b6020808201518251620000ad9290919062000baa62000420821b17901c565b471015620001285760405162461bcd60e51b815260206004820152603c60248201527f62616c616e6365206f6620636f6e7472616374206d757374206265203e3d207460448201527f6f2074686520746f74616c2062616c616e6365206f662075736572730000000060648201526084015b60405180910390fd5b6200015760405180606001604052806029815260200162001ead602991396200037b60201b62000b151760201c565b428311620001a85760405162461bcd60e51b815260206004820152601860248201527f45787069726174696f6e206d757374206265203e206e6f77000000000000000060448201526064016200011f565b60008211620001fa5760405162461bcd60e51b815260206004820152601c60248201527f4368616c6c656e676520706572696f64206d757374206265203e20300000000060448201526064016200011f565b60005b6002811015620003355760008682600281106200021e576200021e62000583565b602090810291909101516001600160a01b0381166000908152600290925260409091205490915060ff1615620002975760405162461bcd60e51b815260206004820152601360248201527f75736572206d75737420626520756e697175650000000000000000000000000060448201526064016200011f565b8060008360028110620002ae57620002ae62000583565b0180546001600160a01b0319166001600160a01b0392831617905581166000908152600260208190526040909120805460ff19166001179055869083908110620002fc57620002fc62000583565b602090810291909101516001600160a01b03909216600090815260039091526040902055806200032c81620005af565b915050620001fd565b50600583905560048290556040805160608101909152603280825262000370919062001f1160208301396200037b60201b62000b151760201c565b50505050506200067c565b620003c6816040516024016200039291906200061b565b60408051601f198184030181529190526020810180516001600160e01b0390811663104c13eb60e21b179091526200043516565b50565b6200041a84848484604051602401620003e6949392919062000630565b60408051601f198184030181529190526020810180516001600160e01b039081166304772b3360e11b179091526200043516565b50505050565b60006200042e828462000661565b9392505050565b80516a636f6e736f6c652e6c6f67602083016000808483855afa5050505050565b604080519081016001600160401b03811182821017156200048757634e487b7160e01b600052604160045260246000fd5b60405290565b600082601f8301126200049f57600080fd5b620004a962000456565b806040840185811115620004bc57600080fd5b845b81811015620004d8578051845260209384019301620004be565b509095945050505050565b60008060008060c08587031215620004fa57600080fd5b85601f8601126200050a57600080fd5b6200051462000456565b8060408701888111156200052757600080fd5b875b818110156200055a5780516001600160a01b03811681146200054b5760008081fd5b84526020938401930162000529565b508196506200056a89826200048d565b608089015160a090990151979a90995095505050505050565b634e487b7160e01b600052603260045260246000fd5b634e487b7160e01b600052601160045260246000fd5b600060018201620005c457620005c462000599565b5060010190565b6000815180845260005b81811015620005f357602081850181015186830182015201620005d5565b8181111562000606576000602083870101525b50601f01601f19169290920160200192915050565b6020815260006200042e6020830184620005cb565b608081526000620006456080830187620005cb565b6020830195909552506040810192909252606090910152919050565b6000821982111562000677576200067762000599565b500190565b611821806200068c6000396000f3fe60806040526004361061008a5760003560e01c80634209fff1116100595780634209fff1146101945780638622a689146101c4578063a0ff4999146101da578063affed0e0146101fa578063f3f480d914610210576100b4565b806321e66868146100d757806327e235e31461010c578063365b98b2146101475780633ccfd60b1461017f576100b4565b366100b4576100b26040518060600160405280603b8152602001611681603b91393433610226565b005b6100b26040518060600160405280603c81526020016115bb603c91393433610226565b3480156100e357600080fd5b506100f76100f2366004611231565b610272565b60405190151581526020015b60405180910390f35b34801561011857600080fd5b506101396101273660046112ed565b60036020526000908152604090205481565b604051908152602001610103565b34801561015357600080fd5b50610167610162366004611308565b61053b565b6040516001600160a01b039091168152602001610103565b34801561018b57600080fd5b506100b261055b565b3480156101a057600080fd5b506100f76101af3660046112ed565b60026020526000908152604090205460ff1681565b3480156101d057600080fd5b5061013960055481565b3480156101e657600080fd5b506100b26101f5366004611321565b61070b565b34801561020657600080fd5b5061013960065481565b34801561021c57600080fd5b5061013960045481565b61026d83838360405160240161023e939291906113c6565b60408051601f198184030181529190526020810180516001600160e01b031663e3849f7960e01b179052610bbd565b505050565b60006102956040518060600160405280602b8152602001611656602b9139610b15565b6102c26040518060400160405280600b81526020016a1b9bdb98d9481a5cc8095960aa1b81525083610bde565b60005b600281101561052c57610319604051806040016040528060128152602001715f7369676e6572735b25645d20697320257360701b8152508287846002811061030f5761030f6113f9565b6020020151610226565b610365604051806040016040528060138152602001725f62616c616e6365735b25645d20697320257360681b8152508286846002811061035b5761035b6113f9565b6020020151610c27565b600061043a88836002811061037c5761037c6113f9565b602002015161043489888660028110610397576103976113f9565b6020020151886040516020016103d49392919060609390931b6bffffffffffffffffffffffff191683526014830191909152603482015260540190565b60408051601f1981840301815282825280516020918201207f19457468657265756d205369676e6564204d6573736167653a0a33320000000084830152603c8085019190915282518085039091018152605c909301909152815191012090565b90610c6e565b905061046b6040518060400160405280600d81526020016c6465636f64656420697320257360981b81525082610c92565b60006104da898460028110610482576104826113f9565b60200201516104348a89876002811061049d5761049d6113f9565b6020020151896040516020016103d49392919060609390931b6bffffffffffffffffffffffff191683526014830191909152603482015260540190565b6001600160a01b03168784600281106104f5576104f56113f9565b60200201516001600160a01b0316149050806105175760009350505050610532565b5050808061052490611425565b9150506102c5565b50600190505b95945050505050565b6000816002811061054b57600080fd5b01546001600160a01b0316905081565b61057c6040518060600160405280602d8152602001611629602d9139610b15565b3360009081526002602052604090205460ff166105cb5760405162461bcd60e51b81526020600482015260086024820152672737ba103ab9b2b960c11b60448201526064015b60405180910390fd5b6105ec6040518060600160405280602d81526020016116e7602d9139610b15565b33600081815260036020526040808220805490839055905190929083908381818185875af1925050503d8060008114610641576040519150601f19603f3d011682016040523d82523d6000602084013e610646565b606091505b505090508061068e5760405162461bcd60e51b81526020600482015260146024820152732330b4b632b2103a379039b2b7321022ba3432b960611b60448201526064016105c2565b6106b1604051806080016040528060438152602001611714604391393384610cd7565b60405182815233907f884edad9ce6fa2440d8a54cc123490eb96d2768479d49ff9c7366125a94243649060200160405180910390a250506107096040518060600160405280602d8152602001611757602d9139610b15565b565b61072c6040518060600160405280602d8152602001611629602d9139610b15565b3360009081526002602052604090205460ff166107765760405162461bcd60e51b81526020600482015260086024820152672737ba103ab9b2b960c11b60448201526064016105c2565b80838361079a6040518060600160405280603481526020016117b860349139610b15565b6107a2611068565b60005b600281101561080357600081600281106107c1576107c16113f9565b01546001600160a01b03168282600281106107de576107de6113f9565b6001600160a01b039092166020929092020152806107fb81611425565b9150506107a5565b506108118430838686610272565b6108515760405162461bcd60e51b8152602060048201526011602482015270496e76616c6964207369676e617475726560781b60448201526064016105c2565b866108736040518060600160405280603281526020016115f760329139610b15565b61089e6040518060600160405280603b815260200161154e603b913982516020840151479190610b5b565b602081015181516108ae91610baa565b4710156109235760405162461bcd60e51b815260206004820152603c60248201527f62616c616e6365206f6620636f6e7472616374206d757374206265203e3d207460448201527f6f2074686520746f74616c2062616c616e6365206f662075736572730000000060648201526084016105c2565b6109446040518060600160405280602b81526020016116bc602b9139610b15565b60055442106109955760405162461bcd60e51b815260206004820152601860248201527f45787069726564206368616c6c656e676520706572696f64000000000000000060448201526064016105c2565b60065487116109fb5760405162461bcd60e51b815260206004820152602c60248201527f4e6f6e6365206d7573742062652067726561746572207468616e20746865206360448201526b757272656e74206e6f6e636560a01b60648201526084016105c2565b60005b6002811015610a6257888160028110610a1957610a196113f9565b602002015160036000808460028110610a3457610a346113f9565b01546001600160a01b0316815260208101919091526040016000205580610a5a81611425565b9150506109fe565b506006879055600454610a76904290610baa565b60055560065460405190815233907f5050c6e2a6fc173775ce4852f893c9e5aaeff00101f3aef75e0ec263cf083ca99060200160405180910390a2610ad260405180606001604052806032815260200161158960329139610b15565b50610af460405180606001604052806034815260200161178460349139610b15565b5050505061026d6040518060600160405280602d8152602001611757602d91395b610b5881604051602401610b29919061143e565b60408051601f198184030181529190526020810180516001600160e01b031663104c13eb60e21b179052610bbd565b50565b610ba484848484604051602401610b759493929190611451565b60408051601f198184030181529190526020810180516001600160e01b03166304772b3360e11b179052610bbd565b50505050565b6000610bb68284611480565b9392505050565b80516a636f6e736f6c652e6c6f67602083016000808483855afa5050505050565b610c238282604051602401610bf4929190611498565b60408051601f198184030181529190526020810180516001600160e01b03166309710a9d60e41b179052610bbd565b5050565b61026d838383604051602401610c3f939291906114ba565b60408051601f198184030181529190526020810180516001600160e01b031663969cdd0360e01b179052610bbd565b6000806000610c7d8585610d1e565b91509150610c8a81610d8c565b509392505050565b610c238282604051602401610ca89291906114df565b60408051601f198184030181529190526020810180516001600160e01b031663319af33360e01b179052610bbd565b61026d838383604051602401610cef93929190611509565b60408051601f198184030181529190526020810180516001600160e01b03166307c8121760e01b179052610bbd565b6000808251604103610d545760208301516040840151606085015160001a610d4887828585610f42565b94509450505050610d85565b8251604003610d7d5760208301516040840151610d7286838361102f565b935093505050610d85565b506000905060025b9250929050565b6000816004811115610da057610da0611537565b03610da85750565b6001816004811115610dbc57610dbc611537565b03610e095760405162461bcd60e51b815260206004820152601860248201527f45434453413a20696e76616c6964207369676e6174757265000000000000000060448201526064016105c2565b6002816004811115610e1d57610e1d611537565b03610e6a5760405162461bcd60e51b815260206004820152601f60248201527f45434453413a20696e76616c6964207369676e6174757265206c656e6774680060448201526064016105c2565b6003816004811115610e7e57610e7e611537565b03610ed65760405162461bcd60e51b815260206004820152602260248201527f45434453413a20696e76616c6964207369676e6174757265202773272076616c604482015261756560f01b60648201526084016105c2565b6004816004811115610eea57610eea611537565b03610b585760405162461bcd60e51b815260206004820152602260248201527f45434453413a20696e76616c6964207369676e6174757265202776272076616c604482015261756560f01b60648201526084016105c2565b6000807f7fffffffffffffffffffffffffffffff5d576e7357a4501ddfe92f46681b20a0831115610f795750600090506003611026565b8460ff16601b14158015610f9157508460ff16601c14155b15610fa25750600090506004611026565b6040805160008082526020820180845289905260ff881692820192909252606081018690526080810185905260019060a0016020604051602081039080840390855afa158015610ff6573d6000803e3d6000fd5b5050604051601f1901519150506001600160a01b03811661101f57600060019250925050611026565b9150600090505b94509492505050565b6000806001600160ff1b0383168161104c60ff86901c601b611480565b905061105a87828885610f42565b935093505050935093915050565b60405180604001604052806002906020820280368337509192915050565b634e487b7160e01b600052604160045260246000fd5b6040805190810167ffffffffffffffff811182821017156110bf576110bf611086565b60405290565b604051601f8201601f1916810167ffffffffffffffff811182821017156110ee576110ee611086565b604052919050565b6000601f838184011261110857600080fd5b61111061109c565b80604085018681111561112257600080fd5b855b818110156111b957803567ffffffffffffffff808211156111455760008081fd5b818901915089878301126111595760008081fd5b813560208282111561116d5761116d611086565b61117e828a01601f191682016110c5565b92508183528b818386010111156111955760008081fd5b81818501828501376000918301810191909152908652949094019350602001611124565b50909695505050505050565b80356001600160a01b03811681146111dc57600080fd5b919050565b600082601f8301126111f257600080fd5b6111fa61109c565b80604084018581111561120c57600080fd5b845b8181101561122657803584526020938401930161120e565b509095945050505050565b600080600080600060e0868803121561124957600080fd5b853567ffffffffffffffff81111561126057600080fd5b61126c888289016110f6565b955050602061127c8188016111c5565b945087605f88011261128d57600080fd5b61129561109c565b80608089018a8111156112a757600080fd5b60408a015b818110156112ca576112bd816111c5565b84529284019284016112ac565b508196506112d88b826111e1565b989b979a50959860c001359695505050505050565b6000602082840312156112ff57600080fd5b610bb6826111c5565b60006020828403121561131a57600080fd5b5035919050565b60008060006080848603121561133657600080fd5b61134085856111e1565b925060408401359150606084013567ffffffffffffffff81111561136357600080fd5b61136f868287016110f6565b9150509250925092565b6000815180845260005b8181101561139f57602081850181015186830182015201611383565b818111156113b1576000602083870101525b50601f01601f19169290920160200192915050565b6060815260006113d96060830186611379565b6020830194909452506001600160a01b0391909116604090910152919050565b634e487b7160e01b600052603260045260246000fd5b634e487b7160e01b600052601160045260246000fd5b6000600182016114375761143761140f565b5060010190565b602081526000610bb66020830184611379565b6080815260006114646080830187611379565b6020830195909552506040810192909252606090910152919050565b600082198211156114935761149361140f565b500190565b6040815260006114ab6040830185611379565b90508260208301529392505050565b6060815260006114cd6060830186611379565b60208301949094525060400152919050565b6040815260006114f26040830185611379565b905060018060a01b03831660208301529392505050565b60608152600061151c6060830186611379565b6001600160a01b039490941660208301525060400152919050565b634e487b7160e01b600052602160045260246000fdfe636f6e74726163742062616c616e63652069732025642c2062616c616e6365735b305d2069732025642c62616c616e6365735b315d2069732025644269446972656374696f6e616c5061796d656e744368616e6e656c2e636865636b42616c616e6365732829207061737365644269446972656374696f6e616c5061796d656e744368616e6e656c2e66616c6c6261636b28292c20526563656976696e672025642066726f6d2025734269446972656374696f6e616c5061796d656e744368616e6e656c2e636865636b42616c616e63657328292063616c6c65644269446972656374696f6e616c5061796d656e744368616e6e656c2e6f6e6c795573657228292063616c6c65644269446972656374696f6e616c5061796d656e744368616e6e656c2e76657269667928292063616c6c65644269446972656374696f6e616c5061796d656e744368616e6e656c2e7265636569766528292c20526563656976696e672025642066726f6d2025734269446972656374696f6e616c5061796d656e744368616e6e656c2e6368616c6c656e67654578697428294269446972656374696f6e616c5061796d656e744368616e6e656c2e776974686472617728292063616c6c65644269446972656374696f6e616c5061796d656e744368616e6e656c2e776974686472617728292c206d73672e73656e6465722069732025732c20616d6f756e743d25644269446972656374696f6e616c5061796d656e744368616e6e656c2e6f6e6c79557365722829207061737365644269446972656374696f6e616c5061796d656e744368616e6e656c2e636865636b5369676e6174757265732829207061737365644269446972656374696f6e616c5061796d656e744368616e6e656c2e636865636b5369676e61747572657328292063616c6c6564a2646970667358221220661d6f2d91cd38a2352e4ab10cecfa1ca623461022952e79075fcb9b7e70164864736f6c634300080e00334269446972656374696f6e616c5061796d656e744368616e6e656c2e636f6e7374727563746f722829636f6e74726163742062616c616e63652069732025642c2062616c616e6365735b305d2069732025642c62616c616e6365735b315d2069732025644269446972656374696f6e616c5061796d656e744368616e6e656c2e636865636b42616c616e6365732829207061737365644269446972656374696f6e616c5061796d656e744368616e6e656c2e636865636b42616c616e63657328292063616c6c6564",
  "bytecodeSha1": "da39a3ee5e6b4b0d3255bfef95601890afd80709",
  "compiler": {
    "evm_version": "istanbul",
    "optimizer": {
      "enabled": true,
      "runs": 200
    },
    "version": "0.8.14+commit.80d49f37"
  },
  "contractName": "BiDirectionalPaymentChannel",
  "language": "Solidity",
  "natspec": {
    "kind": "dev",
    "methods": {},
    "version": 1
  },
  "opcodes": "PUSH1 0x80 PUSH1 0x40 MSTORE PUSH1 0x4 CALLDATASIZE LT PUSH2 0x8A JUMPI PUSH1 0x0 CALLDATALOAD PUSH1 0xE0 SHR DUP1 PUSH4 0x4209FFF1 GT PUSH2 0x59 JUMPI DUP1 PUSH4 0x4209FFF1 EQ PUSH2 0x194 JUMPI DUP1 PUSH4 0x8622A689 EQ PUSH2 0x1C4 JUMPI DUP1 PUSH4 0xA0FF4999 EQ PUSH2 0x1DA JUMPI DUP1 PUSH4 0xAFFED0E0 EQ PUSH2 0x1FA JUMPI DUP1 PUSH4 0xF3F480D9 EQ PUSH2 0x210 JUMPI PUSH2 0xB4 JUMP JUMPDEST DUP1 PUSH4 0x21E66868 EQ PUSH2 0xD7 JUMPI DUP1 PUSH4 0x27E235E3 EQ PUSH2 0x10C JUMPI DUP1 PUSH4 0x365B98B2 EQ PUSH2 0x147 JUMPI DUP1 PUSH4 0x3CCFD60B EQ PUSH2 0x17F JUMPI PUSH2 0xB4 JUMP JUMPDEST CALLDATASIZE PUSH2 0xB4 JUMPI PUSH2 0xB2 PUSH1 0x40 MLOAD DUP1 PUSH1 0x60 ADD PUSH1 0x40 MSTORE DUP1 PUSH1 0x3B DUP2 MSTORE PUSH1 0x20 ADD PUSH2 0x1681 PUSH1 0x3B SWAP2 CODECOPY CALLVALUE CALLER PUSH2 0x226 JUMP JUMPDEST STOP JUMPDEST PUSH2 0xB2 PUSH1 0x40 MLOAD DUP1 PUSH1 0x60 ADD PUSH1 0x40 MSTORE DUP1 PUSH1 0x3C DUP2 MSTORE PUSH1 0x20 ADD PUSH2 0x15BB PUSH1 0x3C SWAP2 CODECOPY CALLVALUE CALLER PUSH2 0x226 JUMP JUMPDEST CALLVALUE DUP1 ISZERO PUSH2 0xE3 JUMPI PUSH1 0x0 DUP1 REVERT JUMPDEST POP PUSH2 0xF7 PUSH2 0xF2 CALLDATASIZE PUSH1 0x4 PUSH2 0x1231 JUMP JUMPDEST PUSH2 0x272 JUMP JUMPDEST PUSH1 0x40 MLOAD SWAP1 ISZERO ISZERO DUP2 MSTORE PUSH1 0x20 ADD JUMPDEST PUSH1 0x40 MLOAD DUP1 SWAP2 SUB SWAP1 RETURN JUMPDEST CALLVALUE DUP1 ISZERO PUSH2 0x118 JUMPI PUSH1 0x0 DUP1 REVERT JUMPDEST POP PUSH2 0x139 PUSH2 0x127 CALLDATASIZE PUSH1 0x4 PUSH2 0x12ED JUMP JUMPDEST PUSH1 0x3 PUSH1 0x20 MSTORE PUSH1 0x0 SWAP1 DUP2 MSTORE PUSH1 0x40 SWAP1 KECCAK256 SLOAD DUP2 JUMP JUMPDEST PUSH1 0x40 MLOAD SWAP1 DUP2 MSTORE PUSH1 0x20 ADD PUSH2 0x103 JUMP JUMPDEST CALLVALUE DUP1 ISZERO PUSH2 0x153 JUMPI PUSH1 0x0 DUP1 REVERT JUMPDEST POP PUSH2 0x167 PUSH2 0x162 CALLDATASIZE PUSH1 0x4 PUSH2 0x1308 JUMP JUMPDEST PUSH2 0x53B JUMP JUMPDEST PUSH1 0x40 MLOAD PUSH1 0x1 PUSH1 0x1 PUSH1 0xA0 SHL SUB SWAP1 SWAP2 AND DUP2 MSTORE PUSH1 0x20 ADD PUSH2 0x103 JUMP JUMPDEST CALLVALUE DUP1 ISZERO PUSH2 0x18B JUMPI PUSH1 0x0 DUP1 REVERT JUMPDEST POP PUSH2 0xB2 PUSH2 0x55B JUMP JUMPDEST CALLVALUE DUP1 ISZERO PUSH2 0x1A0 JUMPI PUSH1 0x0 DUP1 REVERT JUMPDEST POP PUSH2 0xF7 PUSH2 0x1AF CALLDATASIZE PUSH1 0x4 PUSH2 0x12ED JUMP JUMPDEST PUSH1 0x2 PUSH1 0x20 MSTORE PUSH1 0x0 SWAP1 DUP2 MSTORE PUSH1 0x40 SWAP1 KECCAK256 SLOAD PUSH1 0xFF AND DUP2 JUMP JUMPDEST CALLVALUE DUP1 ISZERO PUSH2 0x1D0 JUMPI PUSH1 0x0 DUP1 REVERT JUMPDEST POP PUSH2 0x139 PUSH1 0x5 SLOAD DUP2 JUMP JUMPDEST CALLVALUE DUP1 ISZERO PUSH2 0x1E6 JUMPI PUSH1 0x0 DUP1 REVERT JUMPDEST POP PUSH2 0xB2 PUSH2 0x1F5 CALLDATASIZE PUSH1 0x4 PUSH2 0x1321 JUMP JUMPDEST PUSH2 0x70B JUMP JUMPDEST CALLVALUE DUP1 ISZERO PUSH2 0x206 JUMPI PUSH1 0x0 DUP1 REVERT JUMPDEST POP PUSH2 0x139 PUSH1 0x6 SLOAD DUP2 JUMP JUMPDEST CALLVALUE DUP1 ISZERO PUSH2 0x21C JUMPI PUSH1 0x0 DUP1 REVERT JUMPDEST POP PUSH2 0x139 PUSH1 0x4 SLOAD DUP2 JUMP JUMPDEST PUSH2 0x26D DUP4 DUP4 DUP4 PUSH1 0x40 MLOAD PUSH1 0x24 ADD PUSH2 0x23E SWAP4 SWAP3 SWAP2 SWAP1 PUSH2 0x13C6 JUMP JUMPDEST PUSH1 0x40 DUP1 MLOAD PUSH1 0x1F NOT DUP2 DUP5 SUB ADD DUP2 MSTORE SWAP2 SWAP1 MSTORE PUSH1 0x20 DUP2 ADD DUP1 MLOAD PUSH1 0x1 PUSH1 0x1 PUSH1 0xE0 SHL SUB AND PUSH4 0xE3849F79 PUSH1 0xE0 SHL OR SWAP1 MSTORE PUSH2 0xBBD JUMP JUMPDEST POP POP POP JUMP JUMPDEST PUSH1 0x0 PUSH2 0x295 PUSH1 0x40 MLOAD DUP1 PUSH1 0x60 ADD PUSH1 0x40 MSTORE DUP1 PUSH1 0x2B DUP2 MSTORE PUSH1 0x20 ADD PUSH2 0x1656 PUSH1 0x2B SWAP2 CODECOPY PUSH2 0xB15 JUMP JUMPDEST PUSH2 0x2C2 PUSH1 0x40 MLOAD DUP1 PUSH1 0x40 ADD PUSH1 0x40 MSTORE DUP1 PUSH1 0xB DUP2 MSTORE PUSH1 0x20 ADD PUSH11 0x1B9BDB98D9481A5CC80959 PUSH1 0xAA SHL DUP2 MSTORE POP DUP4 PUSH2 0xBDE JUMP JUMPDEST PUSH1 0x0 JUMPDEST PUSH1 0x2 DUP2 LT ISZERO PUSH2 0x52C JUMPI PUSH2 0x319 PUSH1 0x40 MLOAD DUP1 PUSH1 0x40 ADD PUSH1 0x40 MSTORE DUP1 PUSH1 0x12 DUP2 MSTORE PUSH1 0x20 ADD PUSH18 0x5F7369676E6572735B25645D206973202573 PUSH1 0x70 SHL DUP2 MSTORE POP DUP3 DUP8 DUP5 PUSH1 0x2 DUP2 LT PUSH2 0x30F JUMPI PUSH2 0x30F PUSH2 0x13F9 JUMP JUMPDEST PUSH1 0x20 MUL ADD MLOAD PUSH2 0x226 JUMP JUMPDEST PUSH2 0x365 PUSH1 0x40 MLOAD DUP1 PUSH1 0x40 ADD PUSH1 0x40 MSTORE DUP1 PUSH1 0x13 DUP2 MSTORE PUSH1 0x20 ADD PUSH19 0x5F62616C616E6365735B25645D206973202573 PUSH1 0x68 SHL DUP2 MSTORE POP DUP3 DUP7 DUP5 PUSH1 0x2 DUP2 LT PUSH2 0x35B JUMPI PUSH2 0x35B PUSH2 0x13F9 JUMP JUMPDEST PUSH1 0x20 MUL ADD MLOAD PUSH2 0xC27 JUMP JUMPDEST PUSH1 0x0 PUSH2 0x43A DUP9 DUP4 PUSH1 0x2 DUP2 LT PUSH2 0x37C JUMPI PUSH2 0x37C PUSH2 0x13F9 JUMP JUMPDEST PUSH1 0x20 MUL ADD MLOAD PUSH2 0x434 DUP10 DUP9 DUP7 PUSH1 0x2 DUP2 LT PUSH2 0x397 JUMPI PUSH2 0x397 PUSH2 0x13F9 JUMP JUMPDEST PUSH1 0x20 MUL ADD MLOAD DUP9 PUSH1 0x40 MLOAD PUSH1 0x20 ADD PUSH2 0x3D4 SWAP4 SWAP3 SWAP2 SWAP1 PUSH1 0x60 SWAP4 SWAP1 SWAP4 SHL PUSH12 0xFFFFFFFFFFFFFFFFFFFFFFFF NOT AND DUP4 MSTORE PUSH1 0x14 DUP4 ADD SWAP2 SWAP1 SWAP2 MSTORE PUSH1 0x34 DUP3 ADD MSTORE PUSH1 0x54 ADD SWAP1 JUMP JUMPDEST PUSH1 0x40 DUP1 MLOAD PUSH1 0x1F NOT DUP2 DUP5 SUB ADD DUP2 MSTORE DUP3 DUP3 MSTORE DUP1 MLOAD PUSH1 0x20 SWAP2 DUP3 ADD KECCAK256 PUSH32 0x19457468657265756D205369676E6564204D6573736167653A0A333200000000 DUP5 DUP4 ADD MSTORE PUSH1 0x3C DUP1 DUP6 ADD SWAP2 SWAP1 SWAP2 MSTORE DUP3 MLOAD DUP1 DUP6 SUB SWAP1 SWAP2 ADD DUP2 MSTORE PUSH1 0x5C SWAP1 SWAP4 ADD SWAP1 SWAP2 MSTORE DUP2 MLOAD SWAP2 ADD KECCAK256 SWAP1 JUMP JUMPDEST SWAP1 PUSH2 0xC6E JUMP JUMPDEST SWAP1 POP PUSH2 0x46B PUSH1 0x40 MLOAD DUP1 PUSH1 0x40 ADD PUSH1 0x40 MSTORE DUP1 PUSH1 0xD DUP2 MSTORE PUSH1 0x20 ADD PUSH13 0x6465636F646564206973202573 PUSH1 0x98 SHL DUP2 MSTORE POP DUP3 PUSH2 0xC92 JUMP JUMPDEST PUSH1 0x0 PUSH2 0x4DA DUP10 DUP5 PUSH1 0x2 DUP2 LT PUSH2 0x482 JUMPI PUSH2 0x482 PUSH2 0x13F9 JUMP JUMPDEST PUSH1 0x20 MUL ADD MLOAD PUSH2 0x434 DUP11 DUP10 DUP8 PUSH1 0x2 DUP2 LT PUSH2 0x49D JUMPI PUSH2 0x49D PUSH2 0x13F9 JUMP JUMPDEST PUSH1 0x20 MUL ADD MLOAD DUP10 PUSH1 0x40 MLOAD PUSH1 0x20 ADD PUSH2 0x3D4 SWAP4 SWAP3 SWAP2 SWAP1 PUSH1 0x60 SWAP4 SWAP1 SWAP4 SHL PUSH12 0xFFFFFFFFFFFFFFFFFFFFFFFF NOT AND DUP4 MSTORE PUSH1 0x14 DUP4 ADD SWAP2 SWAP1 SWAP2 MSTORE PUSH1 0x34 DUP3 ADD MSTORE PUSH1 0x54 ADD SWAP1 JUMP JUMPDEST PUSH1 0x1 PUSH1 0x1 PUSH1 0xA0 SHL SUB AND DUP8 DUP5 PUSH1 0x2 DUP2 LT PUSH2 0x4F5 JUMPI PUSH2 0x4F5 PUSH2 0x13F9 JUMP JUMPDEST PUSH1 0x20 MUL ADD MLOAD PUSH1 0x1 PUSH1 0x1 PUSH1 0xA0 SHL SUB AND EQ SWAP1 POP DUP1 PUSH2 0x517 JUMPI PUSH1 0x0 SWAP4 POP POP POP POP PUSH2 0x532 JUMP JUMPDEST POP POP DUP1 DUP1 PUSH2 0x524 SWAP1 PUSH2 0x1425 JUMP JUMPDEST SWAP2 POP POP PUSH2 0x2C5 JUMP JUMPDEST POP PUSH1 0x1 SWAP1 POP JUMPDEST SWAP6 SWAP5 POP POP POP POP POP JUMP JUMPDEST PUSH1 0x0 DUP2 PUSH1 0x2 DUP2 LT PUSH2 0x54B JUMPI PUSH1 0x0 DUP1 REVERT JUMPDEST ADD SLOAD PUSH1 0x1 PUSH1 0x1 PUSH1 0xA0 SHL SUB AND SWAP1 POP DUP2 JUMP JUMPDEST PUSH2 0x57C PUSH1 0x40 MLOAD DUP1 PUSH1 0x60 ADD PUSH1 0x40 MSTORE DUP1 PUSH1 0x2D DUP2 MSTORE PUSH1 0x20 ADD PUSH2 0x1629 PUSH1 0x2D SWAP2 CODECOPY PUSH2 0xB15 JUMP JUMPDEST CALLER PUSH1 0x0 SWAP1 DUP2 MSTORE PUSH1 0x2 PUSH1 0x20 MSTORE PUSH1 0x40 SWAP1 KECCAK256 SLOAD PUSH1 0xFF AND PUSH2 0x5CB JUMPI PUSH1 0x40 MLOAD PUSH3 0x461BCD PUSH1 0xE5 SHL DUP2 MSTORE PUSH1 0x20 PUSH1 0x4 DUP3 ADD MSTORE PUSH1 0x8 PUSH1 0x24 DUP3 ADD MSTORE PUSH8 0x2737BA103AB9B2B9 PUSH1 0xC1 SHL PUSH1 0x44 DUP3 ADD MSTORE PUSH1 0x64 ADD JUMPDEST PUSH1 0x40 MLOAD DUP1 SWAP2 SUB SWAP1 REVERT JUMPDEST PUSH2 0x5EC PUSH1 0x40 MLOAD DUP1 PUSH1 0x60 ADD PUSH1 0x40 MSTORE DUP1 PUSH1 0x2D DUP2 MSTORE PUSH1 0x20 ADD PUSH2 0x16E7 PUSH1 0x2D SWAP2 CODECOPY PUSH2 0xB15 JUMP JUMPDEST CALLER PUSH1 0x0 DUP2 DUP2 MSTORE PUSH1 0x3 PUSH1 0x20 MSTORE PUSH1 0x40 DUP1 DUP3 KECCAK256 DUP1 SLOAD SWAP1 DUP4 SWAP1 SSTORE SWAP1 MLOAD SWAP1 SWAP3 SWAP1 DUP4 SWAP1 DUP4 DUP2 DUP2 DUP2 DUP6 DUP8 GAS CALL SWAP3 POP POP POP RETURNDATASIZE DUP1 PUSH1 0x0 DUP2 EQ PUSH2 0x641 JUMPI PUSH1 0x40 MLOAD SWAP2 POP PUSH1 0x1F NOT PUSH1 0x3F RETURNDATASIZE ADD AND DUP3 ADD PUSH1 0x40 MSTORE RETURNDATASIZE DUP3 MSTORE RETURNDATASIZE PUSH1 0x0 PUSH1 0x20 DUP5 ADD RETURNDATACOPY PUSH2 0x646 JUMP JUMPDEST PUSH1 0x60 SWAP2 POP JUMPDEST POP POP SWAP1 POP DUP1 PUSH2 0x68E JUMPI PUSH1 0x40 MLOAD PUSH3 0x461BCD PUSH1 0xE5 SHL DUP2 MSTORE PUSH1 0x20 PUSH1 0x4 DUP3 ADD MSTORE PUSH1 0x14 PUSH1 0x24 DUP3 ADD MSTORE PUSH20 0x2330B4B632B2103A379039B2B7321022BA3432B9 PUSH1 0x61 SHL PUSH1 0x44 DUP3 ADD MSTORE PUSH1 0x64 ADD PUSH2 0x5C2 JUMP JUMPDEST PUSH2 0x6B1 PUSH1 0x40 MLOAD DUP1 PUSH1 0x80 ADD PUSH1 0x40 MSTORE DUP1 PUSH1 0x43 DUP2 MSTORE PUSH1 0x20 ADD PUSH2 0x1714 PUSH1 0x43 SWAP2 CODECOPY CALLER DUP5 PUSH2 0xCD7 JUMP JUMPDEST PUSH1 0x40 MLOAD DUP3 DUP2 MSTORE CALLER SWAP1 PUSH32 0x884EDAD9CE6FA2440D8A54CC123490EB96D2768479D49FF9C7366125A9424364 SWAP1 PUSH1 0x20 ADD PUSH1 0x40 MLOAD DUP1 SWAP2 SUB SWAP1 LOG2 POP POP PUSH2 0x709 PUSH1 0x40 MLOAD DUP1 PUSH1 0x60 ADD PUSH1 0x40 MSTORE DUP1 PUSH1 0x2D DUP2 MSTORE PUSH1 0x20 ADD PUSH2 0x1757 PUSH1 0x2D SWAP2 CODECOPY PUSH2 0xB15 JUMP JUMPDEST JUMP JUMPDEST PUSH2 0x72C PUSH1 0x40 MLOAD DUP1 PUSH1 0x60 ADD PUSH1 0x40 MSTORE DUP1 PUSH1 0x2D DUP2 MSTORE PUSH1 0x20 ADD PUSH2 0x1629 PUSH1 0x2D SWAP2 CODECOPY PUSH2 0xB15 JUMP JUMPDEST CALLER PUSH1 0x0 SWAP1 DUP2 MSTORE PUSH1 0x2 PUSH1 0x20 MSTORE PUSH1 0x40 SWAP1 KECCAK256 SLOAD PUSH1 0xFF AND PUSH2 0x776 JUMPI PUSH1 0x40 MLOAD PUSH3 0x461BCD PUSH1 0xE5 SHL DUP2 MSTORE PUSH1 0x20 PUSH1 0x4 DUP3 ADD MSTORE PUSH1 0x8 PUSH1 0x24 DUP3 ADD MSTORE PUSH8 0x2737BA103AB9B2B9 PUSH1 0xC1 SHL PUSH1 0x44 DUP3 ADD MSTORE PUSH1 0x64 ADD PUSH2 0x5C2 JUMP JUMPDEST DUP1 DUP4 DUP4 PUSH2 0x79A PUSH1 0x40 MLOAD DUP1 PUSH1 0x60 ADD PUSH1 0x40 MSTORE DUP1 PUSH1 0x34 DUP2 MSTORE PUSH1 0x20 ADD PUSH2 0x17B8 PUSH1 0x34 SWAP2 CODECOPY PUSH2 0xB15 JUMP JUMPDEST PUSH2 0x7A2 PUSH2 0x1068 JUMP JUMPDEST PUSH1 0x0 JUMPDEST PUSH1 0x2 DUP2 LT ISZERO PUSH2 0x803 JUMPI PUSH1 0x0 DUP2 PUSH1 0x2 DUP2 LT PUSH2 0x7C1 JUMPI PUSH2 0x7C1 PUSH2 0x13F9 JUMP JUMPDEST ADD SLOAD PUSH1 0x1 PUSH1 0x1 PUSH1 0xA0 SHL SUB AND DUP3 DUP3 PUSH1 0x2 DUP2 LT PUSH2 0x7DE JUMPI PUSH2 0x7DE PUSH2 0x13F9 JUMP JUMPDEST PUSH1 0x1 PUSH1 0x1 PUSH1 0xA0 SHL SUB SWAP1 SWAP3 AND PUSH1 0x20 SWAP3 SWAP1 SWAP3 MUL ADD MSTORE DUP1 PUSH2 0x7FB DUP2 PUSH2 0x1425 JUMP JUMPDEST SWAP2 POP POP PUSH2 0x7A5 JUMP JUMPDEST POP PUSH2 0x811 DUP5 ADDRESS DUP4 DUP7 DUP7 PUSH2 0x272 JUMP JUMPDEST PUSH2 0x851 JUMPI PUSH1 0x40 MLOAD PUSH3 0x461BCD PUSH1 0xE5 SHL DUP2 MSTORE PUSH1 0x20 PUSH1 0x4 DUP3 ADD MSTORE PUSH1 0x11 PUSH1 0x24 DUP3 ADD MSTORE PUSH17 0x496E76616C6964207369676E6174757265 PUSH1 0x78 SHL PUSH1 0x44 DUP3 ADD MSTORE PUSH1 0x64 ADD PUSH2 0x5C2 JUMP JUMPDEST DUP7 PUSH2 0x873 PUSH1 0x40 MLOAD DUP1 PUSH1 0x60 ADD PUSH1 0x40 MSTORE DUP1 PUSH1 0x32 DUP2 MSTORE PUSH1 0x20 ADD PUSH2 0x15F7 PUSH1 0x32 SWAP2 CODECOPY PUSH2 0xB15 JUMP JUMPDEST PUSH2 0x89E PUSH1 0x40 MLOAD DUP1 PUSH1 0x60 ADD PUSH1 0x40 MSTORE DUP1 PUSH1 0x3B DUP2 MSTORE PUSH1 0x20 ADD PUSH2 0x154E PUSH1 0x3B SWAP2 CODECOPY DUP3 MLOAD PUSH1 0x20 DUP5 ADD MLOAD SELFBALANCE SWAP2 SWAP1 PUSH2 0xB5B JUMP JUMPDEST PUSH1 0x20 DUP2 ADD MLOAD DUP2 MLOAD PUSH2 0x8AE SWAP2 PUSH2 0xBAA JUMP JUMPDEST SELFBALANCE LT ISZERO PUSH2 0x923 JUMPI PUSH1 0x40 MLOAD PUSH3 0x461BCD PUSH1 0xE5 SHL DUP2 MSTORE PUSH1 0x20 PUSH1 0x4 DUP3 ADD MSTORE PUSH1 0x3C PUSH1 0x24 DUP3 ADD MSTORE PUSH32 0x62616C616E6365206F6620636F6E7472616374206D757374206265203E3D2074 PUSH1 0x44 DUP3 ADD MSTORE PUSH32 0x6F2074686520746F74616C2062616C616E6365206F6620757365727300000000 PUSH1 0x64 DUP3 ADD MSTORE PUSH1 0x84 ADD PUSH2 0x5C2 JUMP JUMPDEST PUSH2 0x944 PUSH1 0x40 MLOAD DUP1 PUSH1 0x60 ADD PUSH1 0x40 MSTORE DUP1 PUSH1 0x2B DUP2 MSTORE PUSH1 0x20 ADD PUSH2 0x16BC PUSH1 0x2B SWAP2 CODECOPY PUSH2 0xB15 JUMP JUMPDEST PUSH1 0x5 SLOAD TIMESTAMP LT PUSH2 0x995 JUMPI PUSH1 0x40 MLOAD PUSH3 0x461BCD PUSH1 0xE5 SHL DUP2 MSTORE PUSH1 0x20 PUSH1 0x4 DUP3 ADD MSTORE PUSH1 0x18 PUSH1 0x24 DUP3 ADD MSTORE PUSH32 0x45787069726564206368616C6C656E676520706572696F640000000000000000 PUSH1 0x44 DUP3 ADD MSTORE PUSH1 0x64 ADD PUSH2 0x5C2 JUMP JUMPDEST PUSH1 0x6 SLOAD DUP8 GT PUSH2 0x9FB JUMPI PUSH1 0x40 MLOAD PUSH3 0x461BCD PUSH1 0xE5 SHL DUP2 MSTORE PUSH1 0x20 PUSH1 0x4 DUP3 ADD MSTORE PUSH1 0x2C PUSH1 0x24 DUP3 ADD MSTORE PUSH32 0x4E6F6E6365206D7573742062652067726561746572207468616E207468652063 PUSH1 0x44 DUP3 ADD MSTORE PUSH12 0x757272656E74206E6F6E6365 PUSH1 0xA0 SHL PUSH1 0x64 DUP3 ADD MSTORE PUSH1 0x84 ADD PUSH2 0x5C2 JUMP JUMPDEST PUSH1 0x0 JUMPDEST PUSH1 0x2 DUP2 LT ISZERO PUSH2 0xA62 JUMPI DUP9 DUP2 PUSH1 0x2 DUP2 LT PUSH2 0xA19 JUMPI PUSH2 0xA19 PUSH2 0x13F9 JUMP JUMPDEST PUSH1 0x20 MUL ADD MLOAD PUSH1 0x3 PUSH1 0x0 DUP1 DUP5 PUSH1 0x2 DUP2 LT PUSH2 0xA34 JUMPI PUSH2 0xA34 PUSH2 0x13F9 JUMP JUMPDEST ADD SLOAD PUSH1 0x1 PUSH1 0x1 PUSH1 0xA0 SHL SUB AND DUP2 MSTORE PUSH1 0x20 DUP2 ADD SWAP2 SWAP1 SWAP2 MSTORE PUSH1 0x40 ADD PUSH1 0x0 KECCAK256 SSTORE DUP1 PUSH2 0xA5A DUP2 PUSH2 0x1425 JUMP JUMPDEST SWAP2 POP POP PUSH2 0x9FE JUMP JUMPDEST POP PUSH1 0x6 DUP8 SWAP1 SSTORE PUSH1 0x4 SLOAD PUSH2 0xA76 SWAP1 TIMESTAMP SWAP1 PUSH2 0xBAA JUMP JUMPDEST PUSH1 0x5 SSTORE PUSH1 0x6 SLOAD PUSH1 0x40 MLOAD SWAP1 DUP2 MSTORE CALLER SWAP1 PUSH32 0x5050C6E2A6FC173775CE4852F893C9E5AAEFF00101F3AEF75E0EC263CF083CA9 SWAP1 PUSH1 0x20 ADD PUSH1 0x40 MLOAD DUP1 SWAP2 SUB SWAP1 LOG2 PUSH2 0xAD2 PUSH1 0x40 MLOAD DUP1 PUSH1 0x60 ADD PUSH1 0x40 MSTORE DUP1 PUSH1 0x32 DUP2 MSTORE PUSH1 0x20 ADD PUSH2 0x1589 PUSH1 0x32 SWAP2 CODECOPY PUSH2 0xB15 JUMP JUMPDEST POP PUSH2 0xAF4 PUSH1 0x40 MLOAD DUP1 PUSH1 0x60 ADD PUSH1 0x40 MSTORE DUP1 PUSH1 0x34 DUP2 MSTORE PUSH1 0x20 ADD PUSH2 0x1784 PUSH1 0x34 SWAP2 CODECOPY PUSH2 0xB15 JUMP JUMPDEST POP POP POP POP PUSH2 0x26D PUSH1 0x40 MLOAD DUP1 PUSH1 0x60 ADD PUSH1 0x40 MSTORE DUP1 PUSH1 0x2D DUP2 MSTORE PUSH1 0x20 ADD PUSH2 0x1757 PUSH1 0x2D SWAP2 CODECOPY JUMPDEST PUSH2 0xB58 DUP2 PUSH1 0x40 MLOAD PUSH1 0x24 ADD PUSH2 0xB29 SWAP2 SWAP1 PUSH2 0x143E JUMP JUMPDEST PUSH1 0x40 DUP1 MLOAD PUSH1 0x1F NOT DUP2 DUP5 SUB ADD DUP2 MSTORE SWAP2 SWAP1 MSTORE PUSH1 0x20 DUP2 ADD DUP1 MLOAD PUSH1 0x1 PUSH1 0x1 PUSH1 0xE0 SHL SUB AND PUSH4 0x104C13EB PUSH1 0xE2 SHL OR SWAP1 MSTORE PUSH2 0xBBD JUMP JUMPDEST POP JUMP JUMPDEST PUSH2 0xBA4 DUP5 DUP5 DUP5 DUP5 PUSH1 0x40 MLOAD PUSH1 0x24 ADD PUSH2 0xB75 SWAP5 SWAP4 SWAP3 SWAP2 SWAP1 PUSH2 0x1451 JUMP JUMPDEST PUSH1 0x40 DUP1 MLOAD PUSH1 0x1F NOT DUP2 DUP5 SUB ADD DUP2 MSTORE SWAP2 SWAP1 MSTORE PUSH1 0x20 DUP2 ADD DUP1 MLOAD PUSH1 0x1 PUSH1 0x1 PUSH1 0xE0 SHL SUB AND PUSH4 0x4772B33 PUSH1 0xE1 SHL OR SWAP1 MSTORE PUSH2 0xBBD JUMP JUMPDEST POP POP POP POP JUMP JUMPDEST PUSH1 0x0 PUSH2 0xBB6 DUP3 DUP5 PUSH2 0x1480 JUMP JUMPDEST SWAP4 SWAP3 POP POP POP JUMP JUMPDEST DUP1 MLOAD PUSH11 0x636F6E736F6C652E6C6F67 PUSH1 0x20 DUP4 ADD PUSH1 0x0 DUP1 DUP5 DUP4 DUP6 GAS STATICCALL POP POP POP POP POP JUMP JUMPDEST PUSH2 0xC23 DUP3 DUP3 PUSH1 0x40 MLOAD PUSH1 0x24 ADD PUSH2 0xBF4 SWAP3 SWAP2 SWAP1 PUSH2 0x1498 JUMP JUMPDEST PUSH1 0x40 DUP1 MLOAD PUSH1 0x1F NOT DUP2 DUP5 SUB ADD DUP2 MSTORE SWAP2 SWAP1 MSTORE PUSH1 0x20 DUP2 ADD DUP1 MLOAD PUSH1 0x1 PUSH1 0x1 PUSH1 0xE0 SHL SUB AND PUSH4 0x9710A9D PUSH1 0xE4 SHL OR SWAP1 MSTORE PUSH2 0xBBD JUMP JUMPDEST POP POP JUMP JUMPDEST PUSH2 0x26D DUP4 DUP4 DUP4 PUSH1 0x40 MLOAD PUSH1 0x24 ADD PUSH2 0xC3F SWAP4 SWAP3 SWAP2 SWAP1 PUSH2 0x14BA JUMP JUMPDEST PUSH1 0x40 DUP1 MLOAD PUSH1 0x1F NOT DUP2 DUP5 SUB ADD DUP2 MSTORE SWAP2 SWAP1 MSTORE PUSH1 0x20 DUP2 ADD DUP1 MLOAD PUSH1 0x1 PUSH1 0x1 PUSH1 0xE0 SHL SUB AND PUSH4 0x969CDD03 PUSH1 0xE0 SHL OR SWAP1 MSTORE PUSH2 0xBBD JUMP JUMPDEST PUSH1 0x0 DUP1 PUSH1 0x0 PUSH2 0xC7D DUP6 DUP6 PUSH2 0xD1E JUMP JUMPDEST SWAP2 POP SWAP2 POP PUSH2 0xC8A DUP2 PUSH2 0xD8C JUMP JUMPDEST POP SWAP4 SWAP3 POP POP POP JUMP JUMPDEST PUSH2 0xC23 DUP3 DUP3 PUSH1 0x40 MLOAD PUSH1 0x24 ADD PUSH2 0xCA8 SWAP3 SWAP2 SWAP1 PUSH2 0x14DF JUMP JUMPDEST PUSH1 0x40 DUP1 MLOAD PUSH1 0x1F NOT DUP2 DUP5 SUB ADD DUP2 MSTORE SWAP2 SWAP1 MSTORE PUSH1 0x20 DUP2 ADD DUP1 MLOAD PUSH1 0x1 PUSH1 0x1 PUSH1 0xE0 SHL SUB AND PUSH4 0x319AF333 PUSH1 0xE0 SHL OR SWAP1 MSTORE PUSH2 0xBBD JUMP JUMPDEST PUSH2 0x26D DUP4 DUP4 DUP4 PUSH1 0x40 MLOAD PUSH1 0x24 ADD PUSH2 0xCEF SWAP4 SWAP3 SWAP2 SWAP1 PUSH2 0x1509 JUMP JUMPDEST PUSH1 0x40 DUP1 MLOAD PUSH1 0x1F NOT DUP2 DUP5 SUB ADD DUP2 MSTORE SWAP2 SWAP1 MSTORE PUSH1 0x20 DUP2 ADD DUP1 MLOAD PUSH1 0x1 PUSH1 0x1 PUSH1 0xE0 SHL SUB AND PUSH4 0x7C81217 PUSH1 0xE0 SHL OR SWAP1 MSTORE PUSH2 0xBBD JUMP JUMPDEST PUSH1 0x0 DUP1 DUP3 MLOAD PUSH1 0x41 SUB PUSH2 0xD54 JUMPI PUSH1 0x20 DUP4 ADD MLOAD PUSH1 0x40 DUP5 ADD MLOAD PUSH1 0x60 DUP6 ADD MLOAD PUSH1 0x0 BYTE PUSH2 0xD48 DUP8 DUP3 DUP6 DUP6 PUSH2 0xF42 JUMP JUMPDEST SWAP5 POP SWAP5 POP POP POP POP PUSH2 0xD85 JUMP JUMPDEST DUP3 MLOAD PUSH1 0x40 SUB PUSH2 0xD7D JUMPI PUSH1 0x20 DUP4 ADD MLOAD PUSH1 0x40 DUP5 ADD MLOAD PUSH2 0xD72 DUP7 DUP4 DUP4 PUSH2 0x102F JUMP JUMPDEST SWAP4 POP SWAP4 POP POP POP PUSH2 0xD85 JUMP JUMPDEST POP PUSH1 0x0 SWAP1 POP PUSH1 0x2 JUMPDEST SWAP3 POP SWAP3 SWAP1 POP JUMP JUMPDEST PUSH1 0x0 DUP2 PUSH1 0x4 DUP2 GT ISZERO PUSH2 0xDA0 JUMPI PUSH2 0xDA0 PUSH2 0x1537 JUMP JUMPDEST SUB PUSH2 0xDA8 JUMPI POP JUMP JUMPDEST PUSH1 0x1 DUP2 PUSH1 0x4 DUP2 GT ISZERO PUSH2 0xDBC JUMPI PUSH2 0xDBC PUSH2 0x1537 JUMP JUMPDEST SUB PUSH2 0xE09 JUMPI PUSH1 0x40 MLOAD PUSH3 0x461BCD PUSH1 0xE5 SHL DUP2 MSTORE PUSH1 0x20 PUSH1 0x4 DUP3 ADD MSTORE PUSH1 0x18 PUSH1 0x24 DUP3 ADD MSTORE PUSH32 0x45434453413A20696E76616C6964207369676E61747572650000000000000000 PUSH1 0x44 DUP3 ADD MSTORE PUSH1 0x64 ADD PUSH2 0x5C2 JUMP JUMPDEST PUSH1 0x2 DUP2 PUSH1 0x4 DUP2 GT ISZERO PUSH2 0xE1D JUMPI PUSH2 0xE1D PUSH2 0x1537 JUMP JUMPDEST SUB PUSH2 0xE6A JUMPI PUSH1 0x40 MLOAD PUSH3 0x461BCD PUSH1 0xE5 SHL DUP2 MSTORE PUSH1 0x20 PUSH1 0x4 DUP3 ADD MSTORE PUSH1 0x1F PUSH1 0x24 DUP3 ADD MSTORE PUSH32 0x45434453413A20696E76616C6964207369676E6174757265206C656E67746800 PUSH1 0x44 DUP3 ADD MSTORE PUSH1 0x64 ADD PUSH2 0x5C2 JUMP JUMPDEST PUSH1 0x3 DUP2 PUSH1 0x4 DUP2 GT ISZERO PUSH2 0xE7E JUMPI PUSH2 0xE7E PUSH2 0x1537 JUMP JUMPDEST SUB PUSH2 0xED6 JUMPI PUSH1 0x40 MLOAD PUSH3 0x461BCD PUSH1 0xE5 SHL DUP2 MSTORE PUSH1 0x20 PUSH1 0x4 DUP3 ADD MSTORE PUSH1 0x22 PUSH1 0x24 DUP3 ADD MSTORE PUSH32 0x45434453413A20696E76616C6964207369676E6174757265202773272076616C PUSH1 0x44 DUP3 ADD MSTORE PUSH2 0x7565 PUSH1 0xF0 SHL PUSH1 0x64 DUP3 ADD MSTORE PUSH1 0x84 ADD PUSH2 0x5C2 JUMP JUMPDEST PUSH1 0x4 DUP2 PUSH1 0x4 DUP2 GT ISZERO PUSH2 0xEEA JUMPI PUSH2 0xEEA PUSH2 0x1537 JUMP JUMPDEST SUB PUSH2 0xB58 JUMPI PUSH1 0x40 MLOAD PUSH3 0x461BCD PUSH1 0xE5 SHL DUP2 MSTORE PUSH1 0x20 PUSH1 0x4 DUP3 ADD MSTORE PUSH1 0x22 PUSH1 0x24 DUP3 ADD MSTORE PUSH32 0x45434453413A20696E76616C6964207369676E6174757265202776272076616C PUSH1 0x44 DUP3 ADD MSTORE PUSH2 0x7565 PUSH1 0xF0 SHL PUSH1 0x64 DUP3 ADD MSTORE PUSH1 0x84 ADD PUSH2 0x5C2 JUMP JUMPDEST PUSH1 0x0 DUP1 PUSH32 0x7FFFFFFFFFFFFFFFFFFFFFFFFFFFFFFF5D576E7357A4501DDFE92F46681B20A0 DUP4 GT ISZERO PUSH2 0xF79 JUMPI POP PUSH1 0x0 SWAP1 POP PUSH1 0x3 PUSH2 0x1026 JUMP JUMPDEST DUP5 PUSH1 0xFF AND PUSH1 0x1B EQ ISZERO DUP1 ISZERO PUSH2 0xF91 JUMPI POP DUP5 PUSH1 0xFF AND PUSH1 0x1C EQ ISZERO JUMPDEST ISZERO PUSH2 0xFA2 JUMPI POP PUSH1 0x0 SWAP1 POP PUSH1 0x4 PUSH2 0x1026 JUMP JUMPDEST PUSH1 0x40 DUP1 MLOAD PUSH1 0x0 DUP1 DUP3 MSTORE PUSH1 0x20 DUP3 ADD DUP1 DUP5 MSTORE DUP10 SWAP1 MSTORE PUSH1 0xFF DUP9 AND SWAP3 DUP3 ADD SWAP3 SWAP1 SWAP3 MSTORE PUSH1 0x60 DUP2 ADD DUP7 SWAP1 MSTORE PUSH1 0x80 DUP2 ADD DUP6 SWAP1 MSTORE PUSH1 0x1 SWAP1 PUSH1 0xA0 ADD PUSH1 0x20 PUSH1 0x40 MLOAD PUSH1 0x20 DUP2 SUB SWAP1 DUP1 DUP5 SUB SWAP1 DUP6 GAS STATICCALL ISZERO DUP1 ISZERO PUSH2 0xFF6 JUMPI RETURNDATASIZE PUSH1 0x0 DUP1 RETURNDATACOPY RETURNDATASIZE PUSH1 0x0 REVERT JUMPDEST POP POP PUSH1 0x40 MLOAD PUSH1 0x1F NOT ADD MLOAD SWAP2 POP POP PUSH1 0x1 PUSH1 0x1 PUSH1 0xA0 SHL SUB DUP2 AND PUSH2 0x101F JUMPI PUSH1 0x0 PUSH1 0x1 SWAP3 POP SWAP3 POP POP PUSH2 0x1026 JUMP JUMPDEST SWAP2 POP PUSH1 0x0 SWAP1 POP JUMPDEST SWAP5 POP SWAP5 SWAP3 POP POP POP JUMP JUMPDEST PUSH1 0x0 DUP1 PUSH1 0x1 PUSH1 0x1 PUSH1 0xFF SHL SUB DUP4 AND DUP2 PUSH2 0x104C PUSH1 0xFF DUP7 SWAP1 SHR PUSH1 0x1B PUSH2 0x1480 JUMP JUMPDEST SWAP1 POP PUSH2 0x105A DUP8 DUP3 DUP9 DUP6 PUSH2 0xF42 JUMP JUMPDEST SWAP4 POP SWAP4 POP POP POP SWAP4 POP SWAP4 SWAP2 POP POP JUMP JUMPDEST PUSH1 0x40 MLOAD DUP1 PUSH1 0x40 ADD PUSH1 0x40 MSTORE DUP1 PUSH1 0x2 SWAP1 PUSH1 0x20 DUP3 MUL DUP1 CALLDATASIZE DUP4 CALLDATACOPY POP SWAP2 SWAP3 SWAP2 POP POP JUMP JUMPDEST PUSH4 0x4E487B71 PUSH1 0xE0 SHL PUSH1 0x0 MSTORE PUSH1 0x41 PUSH1 0x4 MSTORE PUSH1 0x24 PUSH1 0x0 REVERT JUMPDEST PUSH1 0x40 DUP1 MLOAD SWAP1 DUP2 ADD PUSH8 0xFFFFFFFFFFFFFFFF DUP2 GT DUP3 DUP3 LT OR ISZERO PUSH2 0x10BF JUMPI PUSH2 0x10BF PUSH2 0x1086 JUMP JUMPDEST PUSH1 0x40 MSTORE SWAP1 JUMP JUMPDEST PUSH1 0x40 MLOAD PUSH1 0x1F DUP3 ADD PUSH1 0x1F NOT AND DUP2 ADD PUSH8 0xFFFFFFFFFFFFFFFF DUP2 GT DUP3 DUP3 LT OR ISZERO PUSH2 0x10EE JUMPI PUSH2 0x10EE PUSH2 0x1086 JUMP JUMPDEST PUSH1 0x40 MSTORE SWAP2 SWAP1 POP JUMP JUMPDEST PUSH1 0x0 PUSH1 0x1F DUP4 DUP2 DUP5 ADD SLT PUSH2 0x1108 JUMPI PUSH1 0x0 DUP1 REVERT JUMPDEST PUSH2 0x1110 PUSH2 0x109C JUMP JUMPDEST DUP1 PUSH1 0x40 DUP6 ADD DUP7 DUP2 GT ISZERO PUSH2 0x1122 JUMPI PUSH1 0x0 DUP1 REVERT JUMPDEST DUP6 JUMPDEST DUP2 DUP2 LT ISZERO PUSH2 0x11B9 JUMPI DUP1 CALLDATALOAD PUSH8 0xFFFFFFFFFFFFFFFF DUP1 DUP3 GT ISZERO PUSH2 0x1145 JUMPI PUSH1 0x0 DUP1 DUP2 REVERT JUMPDEST DUP2 DUP10 ADD SWAP2 POP DUP10 DUP8 DUP4 ADD SLT PUSH2 0x1159 JUMPI PUSH1 0x0 DUP1 DUP2 REVERT JUMPDEST DUP2 CALLDATALOAD PUSH1 0x20 DUP3 DUP3 GT ISZERO PUSH2 0x116D JUMPI PUSH2 0x116D PUSH2 0x1086 JUMP JUMPDEST PUSH2 0x117E DUP3 DUP11 ADD PUSH1 0x1F NOT AND DUP3 ADD PUSH2 0x10C5 JUMP JUMPDEST SWAP3 POP DUP2 DUP4 MSTORE DUP12 DUP2 DUP4 DUP7 ADD ADD GT ISZERO PUSH2 0x1195 JUMPI PUSH1 0x0 DUP1 DUP2 REVERT JUMPDEST DUP2 DUP2 DUP6 ADD DUP3 DUP6 ADD CALLDATACOPY PUSH1 0x0 SWAP2 DUP4 ADD DUP2 ADD SWAP2 SWAP1 SWAP2 MSTORE SWAP1 DUP7 MSTORE SWAP5 SWAP1 SWAP5 ADD SWAP4 POP PUSH1 0x20 ADD PUSH2 0x1124 JUMP JUMPDEST POP SWAP1 SWAP7 SWAP6 POP POP POP POP POP POP JUMP JUMPDEST DUP1 CALLDATALOAD PUSH1 0x1 PUSH1 0x1 PUSH1 0xA0 SHL SUB DUP2 AND DUP2 EQ PUSH2 0x11DC JUMPI PUSH1 0x0 DUP1 REVERT JUMPDEST SWAP2 SWAP1 POP JUMP JUMPDEST PUSH1 0x0 DUP3 PUSH1 0x1F DUP4 ADD SLT PUSH2 0x11F2 JUMPI PUSH1 0x0 DUP1 REVERT JUMPDEST PUSH2 0x11FA PUSH2 0x109C JUMP JUMPDEST DUP1 PUSH1 0x40 DUP5 ADD DUP6 DUP2 GT ISZERO PUSH2 0x120C JUMPI PUSH1 0x0 DUP1 REVERT JUMPDEST DUP5 JUMPDEST DUP2 DUP2 LT ISZERO PUSH2 0x1226 JUMPI DUP1 CALLDATALOAD DUP5 MSTORE PUSH1 0x20 SWAP4 DUP5 ADD SWAP4 ADD PUSH2 0x120E JUMP JUMPDEST POP SWAP1 SWAP6 SWAP5 POP POP POP POP POP JUMP JUMPDEST PUSH1 0x0 DUP1 PUSH1 0x0 DUP1 PUSH1 0x0 PUSH1 0xE0 DUP7 DUP9 SUB SLT ISZERO PUSH2 0x1249 JUMPI PUSH1 0x0 DUP1 REVERT JUMPDEST DUP6 CALLDATALOAD PUSH8 0xFFFFFFFFFFFFFFFF DUP2 GT ISZERO PUSH2 0x1260 JUMPI PUSH1 0x0 DUP1 REVERT JUMPDEST PUSH2 0x126C DUP9 DUP3 DUP10 ADD PUSH2 0x10F6 JUMP JUMPDEST SWAP6 POP POP PUSH1 0x20 PUSH2 0x127C DUP2 DUP9 ADD PUSH2 0x11C5 JUMP JUMPDEST SWAP5 POP DUP8 PUSH1 0x5F DUP9 ADD SLT PUSH2 0x128D JUMPI PUSH1 0x0 DUP1 REVERT JUMPDEST PUSH2 0x1295 PUSH2 0x109C JUMP JUMPDEST DUP1 PUSH1 0x80 DUP10 ADD DUP11 DUP2 GT ISZERO PUSH2 0x12A7 JUMPI PUSH1 0x0 DUP1 REVERT JUMPDEST PUSH1 0x40 DUP11 ADD JUMPDEST DUP2 DUP2 LT ISZERO PUSH2 0x12CA JUMPI PUSH2 0x12BD DUP2 PUSH2 0x11C5 JUMP JUMPDEST DUP5 MSTORE SWAP3 DUP5 ADD SWAP3 DUP5 ADD PUSH2 0x12AC JUMP JUMPDEST POP DUP2 SWAP7 POP PUSH2 0x12D8 DUP12 DUP3 PUSH2 0x11E1 JUMP JUMPDEST SWAP9 SWAP12 SWAP8 SWAP11 POP SWAP6 SWAP9 PUSH1 0xC0 ADD CALLDATALOAD SWAP7 SWAP6 POP POP POP POP POP POP JUMP JUMPDEST PUSH1 0x0 PUSH1 0x20 DUP3 DUP5 SUB SLT ISZERO PUSH2 0x12FF JUMPI PUSH1 0x0 DUP1 REVERT JUMPDEST PUSH2 0xBB6 DUP3 PUSH2 0x11C5 JUMP JUMPDEST PUSH1 0x0 PUSH1 0x20 DUP3 DUP5 SUB SLT ISZERO PUSH2 0x131A JUMPI PUSH1 0x0 DUP1 REVERT JUMPDEST POP CALLDATALOAD SWAP2 SWAP1 POP JUMP JUMPDEST PUSH1 0x0 DUP1 PUSH1 0x0 PUSH1 0x80 DUP5 DUP7 SUB SLT ISZERO PUSH2 0x1336 JUMPI PUSH1 0x0 DUP1 REVERT JUMPDEST PUSH2 0x1340 DUP6 DUP6 PUSH2 0x11E1 JUMP JUMPDEST SWAP3 POP PUSH1 0x40 DUP5 ADD CALLDATALOAD SWAP2 POP PUSH1 0x60 DUP5 ADD CALLDATALOAD PUSH8 0xFFFFFFFFFFFFFFFF DUP2 GT ISZERO PUSH2 0x1363 JUMPI PUSH1 0x0 DUP1 REVERT JUMPDEST PUSH2 0x136F DUP7 DUP3 DUP8 ADD PUSH2 0x10F6 JUMP JUMPDEST SWAP2 POP POP SWAP3 POP SWAP3 POP SWAP3 JUMP JUMPDEST PUSH1 0x0 DUP2 MLOAD DUP1 DUP5 MSTORE PUSH1 0x0 JUMPDEST DUP2 DUP2 LT ISZERO PUSH2 0x139F JUMPI PUSH1 0x20 DUP2 DUP6 ADD DUP2 ADD MLOAD DUP7 DUP4 ADD DUP3 ADD MSTORE ADD PUSH2 0x1383 JUMP JUMPDEST DUP2 DUP2 GT ISZERO PUSH2 0x13B1 JUMPI PUSH1 0x0 PUSH1 0x20 DUP4 DUP8 ADD ADD MSTORE JUMPDEST POP PUSH1 0x1F ADD PUSH1 0x1F NOT AND SWAP3 SWAP1 SWAP3 ADD PUSH1 0x20 ADD SWAP3 SWAP2 POP POP JUMP JUMPDEST PUSH1 0x60 DUP2 MSTORE PUSH1 0x0 PUSH2 0x13D9 PUSH1 0x60 DUP4 ADD DUP7 PUSH2 0x1379 JUMP JUMPDEST PUSH1 0x20 DUP4 ADD SWAP5 SWAP1 SWAP5 MSTORE POP PUSH1 0x1 PUSH1 0x1 PUSH1 0xA0 SHL SUB SWAP2 SWAP1 SWAP2 AND PUSH1 0x40 SWAP1 SWAP2 ADD MSTORE SWAP2 SWAP1 POP JUMP JUMPDEST PUSH4 0x4E487B71 PUSH1 0xE0 SHL PUSH1 0x0 MSTORE PUSH1 0x32 PUSH1 0x4 MSTORE PUSH1 0x24 PUSH1 0x0 REVERT JUMPDEST PUSH4 0x4E487B71 PUSH1 0xE0 SHL PUSH1 0x0 MSTORE PUSH1 0x11 PUSH1 0x4 MSTORE PUSH1 0x24 PUSH1 0x0 REVERT JUMPDEST PUSH1 0x0 PUSH1 0x1 DUP3 ADD PUSH2 0x1437 JUMPI PUSH2 0x1437 PUSH2 0x140F JUMP JUMPDEST POP PUSH1 0x1 ADD SWAP1 JUMP JUMPDEST PUSH1 0x20 DUP2 MSTORE PUSH1 0x0 PUSH2 0xBB6 PUSH1 0x20 DUP4 ADD DUP5 PUSH2 0x1379 JUMP JUMPDEST PUSH1 0x80 DUP2 MSTORE PUSH1 0x0 PUSH2 0x1464 PUSH1 0x80 DUP4 ADD DUP8 PUSH2 0x1379 JUMP JUMPDEST PUSH1 0x20 DUP4 ADD SWAP6 SWAP1 SWAP6 MSTORE POP PUSH1 0x40 DUP2 ADD SWAP3 SWAP1 SWAP3 MSTORE PUSH1 0x60 SWAP1 SWAP2 ADD MSTORE SWAP2 SWAP1 POP JUMP JUMPDEST PUSH1 0x0 DUP3 NOT DUP3 GT ISZERO PUSH2 0x1493 JUMPI PUSH2 0x1493 PUSH2 0x140F JUMP JUMPDEST POP ADD SWAP1 JUMP JUMPDEST PUSH1 0x40 DUP2 MSTORE PUSH1 0x0 PUSH2 0x14AB PUSH1 0x40 DUP4 ADD DUP6 PUSH2 0x1379 JUMP JUMPDEST SWAP1 POP DUP3 PUSH1 0x20 DUP4 ADD MSTORE SWAP4 SWAP3 POP POP POP JUMP JUMPDEST PUSH1 0x60 DUP2 MSTORE PUSH1 0x0 PUSH2 0x14CD PUSH1 0x60 DUP4 ADD DUP7 PUSH2 0x1379 JUMP JUMPDEST PUSH1 0x20 DUP4 ADD SWAP5 SWAP1 SWAP5 MSTORE POP PUSH1 0x40 ADD MSTORE SWAP2 SWAP1 POP JUMP JUMPDEST PUSH1 0x40 DUP2 MSTORE PUSH1 0x0 PUSH2 0x14F2 PUSH1 0x40 DUP4 ADD DUP6 PUSH2 0x1379 JUMP JUMPDEST SWAP1 POP PUSH1 0x1 DUP1 PUSH1 0xA0 SHL SUB DUP4 AND PUSH1 0x20 DUP4 ADD MSTORE SWAP4 SWAP3 POP POP POP JUMP JUMPDEST PUSH1 0x60 DUP2 MSTORE PUSH1 0x0 PUSH2 0x151C PUSH1 0x60 DUP4 ADD DUP7 PUSH2 0x1379 JUMP JUMPDEST PUSH1 0x1 PUSH1 0x1 PUSH1 0xA0 SHL SUB SWAP5 SWAP1 SWAP5 AND PUSH1 0x20 DUP4 ADD MSTORE POP PUSH1 0x40 ADD MSTORE SWAP2 SWAP1 POP JUMP JUMPDEST PUSH4 0x4E487B71 PUSH1 0xE0 SHL PUSH1 0x0 MSTORE PUSH1 0x21 PUSH1 0x4 MSTORE PUSH1 0x24 PUSH1 0x0 REVERT INVALID PUSH4 0x6F6E7472 PUSH2 0x6374 KECCAK256 PUSH3 0x616C61 PUSH15 0x63652069732025642C2062616C616E PUSH4 0x65735B30 0x5D KECCAK256 PUSH10 0x732025642C62616C616E PUSH4 0x65735B31 0x5D KECCAK256 PUSH10 0x73202564426944697265 PUSH4 0x74696F6E PUSH2 0x6C50 PUSH2 0x796D PUSH6 0x6E744368616E PUSH15 0x656C2E636865636B42616C616E6365 PUSH20 0x2829207061737365644269446972656374696F6E PUSH2 0x6C50 PUSH2 0x796D PUSH6 0x6E744368616E PUSH15 0x656C2E66616C6C6261636B28292C20 MSTORE PUSH6 0x63656976696E PUSH8 0x2025642066726F6D KECCAK256 0x25 PUSH20 0x4269446972656374696F6E616C5061796D656E74 NUMBER PUSH9 0x616E6E656C2E636865 PUSH4 0x6B42616C PUSH2 0x6E63 PUSH6 0x732829206361 PUSH13 0x6C65644269446972656374696F PUSH15 0x616C5061796D656E744368616E6E65 PUSH13 0x2E6F6E6C795573657228292063 PUSH2 0x6C6C PUSH6 0x644269446972 PUSH6 0x6374696F6E61 PUSH13 0x5061796D656E744368616E6E65 PUSH13 0x2E76657269667928292063616C PUSH13 0x65644269446972656374696F6E PUSH2 0x6C50 PUSH2 0x796D PUSH6 0x6E744368616E PUSH15 0x656C2E7265636569766528292C2052 PUSH6 0x63656976696E PUSH8 0x2025642066726F6D KECCAK256 0x25 PUSH20 0x4269446972656374696F6E616C5061796D656E74 NUMBER PUSH9 0x616E6E656C2E636861 PUSH13 0x6C656E67654578697428294269 DIFFICULTY PUSH10 0x72656374696F6E616C50 PUSH2 0x796D PUSH6 0x6E744368616E PUSH15 0x656C2E776974686472617728292063 PUSH2 0x6C6C PUSH6 0x644269446972 PUSH6 0x6374696F6E61 PUSH13 0x5061796D656E744368616E6E65 PUSH13 0x2E776974686472617728292C20 PUSH14 0x73672E73656E6465722069732025 PUSH20 0x2C20616D6F756E743D2564426944697265637469 PUSH16 0x6E616C5061796D656E744368616E6E65 PUSH13 0x2E6F6E6C795573657228292070 PUSH2 0x7373 PUSH6 0x644269446972 PUSH6 0x6374696F6E61 PUSH13 0x5061796D656E744368616E6E65 PUSH13 0x2E636865636B5369676E617475 PUSH19 0x65732829207061737365644269446972656374 PUSH10 0x6F6E616C5061796D656E PUSH21 0x4368616E6E656C2E636865636B5369676E61747572 PUSH6 0x732829206361 PUSH13 0x6C6564A2646970667358221220 PUSH7 0x1D6F2D91CD38A2 CALLDATALOAD 0x2E 0x4A 0xB1 0xC 0xEC STATICCALL SHR 0xA6 0x23 CHAINID LT 0x22 SWAP6 0x2E PUSH26 0x75FCB9B7E70164864736F6C634300080E003300000000000000 ",
  "sha1": "f7d0deddeefd03f8fc98b411998b18a6c014d1d8",
  "source": "// SPDX-License-Identifier: MIT\npragma solidity 0.8.14;\n\n/*\nOpening a channel\n1. Alice and Bob fund a multi-sig wallet\n2. Precompute payment channel address\n3. Alice and Bob exchanges signatures of initial balances\n4. Alice and Bob creates a transaction that can deploy a payment channel from\n   the multi-sig wallet\n\nUpdate channel balances\n1. Repeat steps 1 - 3 from opening a channel\n2. From multi-sig wallet create a transaction that will\n   - delete the transaction that would have deployed the old payment channel\n   - and then create a transaction that can deploy a payment channel with the\n     new balances\n\nClosing a channel when Alice and Bob agree on the final balance\n1. From multi-sig wallet create a transaction that will\n   - send payments to Alice and Bob\n   - and then delete the transaction that would have created the payment channel\n\nClosing a channel when Alice and Bob do not agree on the final balances\n1. Deploy payment channel from multi-sig\n2. call challengeExit() to start the process of closing a channel\n3. Alice and Bob can withdraw funds once the channel is expired\n*/\n\nimport \"@openzeppelin/contracts/utils/math/SafeMath.sol\";\nimport \"@openzeppelin/contracts/utils/cryptography/ECDSA.sol\";\nimport \"./console.sol\";\n\ncontract BiDirectionalPaymentChannel {\n    using SafeMath for uint256;\n    using ECDSA for bytes32;\n\n    event ChallengeExit(address indexed sender, uint256 nonce);\n    event Withdraw(address indexed to, uint256 amount);\n\n    address payable[2] public users;\n    mapping(address => bool) public isUser;\n\n    mapping(address => uint256) public balances;\n\n    uint256 public challengePeriod;\n    uint256 public expiresAt;\n    uint256 public nonce;\n\n    modifier checkBalances(uint256[2] memory _balances) {\n        console.log(\"BiDirectionalPaymentChannel.checkBalances() called\");\n        console.log(\n            \"contract balance is %d, balances[0] is %d,balances[1] is %d\",\n            address(this).balance,\n            _balances[0],\n            _balances[1]\n        );\n        require(\n            address(this).balance >= _balances[0].add(_balances[1]),\n            \"balance of contract must be >= to the total balance of users\"\n        );\n        _;\n        console.log(\"BiDirectionalPaymentChannel.checkBalances() passed\");\n    }\n\n    // NOTE: deposit from multi-sig wallet\n    constructor(\n        address payable[2] memory _users,\n        uint256[2] memory _balances,\n        uint256 _expiresAt,\n        uint256 _challengePeriod\n    ) payable checkBalances(_balances) {\n        console.log(\"BiDirectionalPaymentChannel.constructor()\");\n        require(_expiresAt > block.timestamp, \"Expiration must be > now\");\n        require(_challengePeriod > 0, \"Challenge period must be > 0\");\n\n        for (uint256 i = 0; i < _users.length; i++) {\n            address payable user = _users[i];\n\n            require(!isUser[user], \"user must be unique\");\n            users[i] = user;\n            isUser[user] = true;\n\n            balances[user] = _balances[i];\n        }\n\n        expiresAt = _expiresAt;\n        challengePeriod = _challengePeriod;\n    }\n\n    function verify(\n        bytes[2] memory _signatures,\n        address _contract,\n        address[2] memory _signers,\n        uint256[2] memory _balances,\n        uint256 _nonce\n    ) public view returns (bool) {\n        console.log(\"BiDirectionalPaymentChannel.verify() called\");\n        console.log(\"nonce is %d\", _nonce);\n        for (uint256 i = 0; i < _signatures.length; i++) {\n            /*\n            NOTE: sign with address of this contract to protect\n                  agains replay attack on other contracts\n            */\n            console.log(\"_signers[%d] is %s\", i, _signers[i]);\n            console.log(\"_balances[%d] is %s\", i, _balances[i]);\n            address decoded = keccak256(\n                abi.encodePacked(_contract, _balances[i], _nonce)\n            ).toEthSignedMessageHash().recover(_signatures[i]);\n            console.log(\"decoded is %s\", decoded);\n            bool valid = _signers[i] ==\n                keccak256(abi.encodePacked(_contract, _balances[i], _nonce))\n                    .toEthSignedMessageHash()\n                    .recover(_signatures[i]);\n\n            if (!valid) {\n                return false;\n            }\n        }\n        return true;\n    }\n\n    modifier checkSignatures(\n        bytes[2] memory _signatures,\n        uint256[2] memory _balances,\n        uint256 _nonce\n    ) {\n        console.log(\"BiDirectionalPaymentChannel.checkSignatures() called\");\n        // Note: copy storage array to memory\n        address[2] memory signers;\n        for (uint256 i = 0; i < users.length; i++) {\n            signers[i] = users[i];\n        }\n\n        require(\n            verify(_signatures, address(this), signers, _balances, _nonce),\n            \"Invalid signature\"\n        );\n        _;\n        console.log(\"BiDirectionalPaymentChannel.checkSignatures() passed\");\n    }\n\n    modifier onlyUser() {\n        console.log(\"BiDirectionalPaymentChannel.onlyUser() called\");\n        require(isUser[msg.sender], \"Not user\");\n        _;\n        console.log(\"BiDirectionalPaymentChannel.onlyUser() passed\");\n    }\n\n    function challengeExit(\n        uint256[2] memory _balances,\n        uint256 _nonce,\n        bytes[2] memory _signatures\n    )\n        public\n        onlyUser\n        checkSignatures(_signatures, _balances, _nonce)\n        checkBalances(_balances)\n    {\n        console.log(\"BiDirectionalPaymentChannel.challengeExit()\");\n        require(block.timestamp < expiresAt, \"Expired challenge period\");\n        require(_nonce > nonce, \"Nonce must be greater than the current nonce\");\n\n        for (uint256 i = 0; i < _balances.length; i++) {\n            balances[users[i]] = _balances[i];\n        }\n        nonce = _nonce;\n        expiresAt = block.timestamp.add(challengePeriod);\n\n        emit ChallengeExit(msg.sender, nonce);\n    }\n\n    function withdraw() public onlyUser {\n        // commented out in order to be able to call withdraw(), normally\n        // it should be uncommented\n        //        require(\n        //            block.timestamp >= expiresAt,\n        //            \"Challenge period has not expired yet\"\n        //        );\n        console.log(\"BiDirectionalPaymentChannel.withdraw() called\");\n        uint256 amount = balances[msg.sender];\n        balances[msg.sender] = 0;\n\n        (bool sent, ) = msg.sender.call{value: amount}(\"\");\n        require(sent, \"Failed to send Ether\");\n        console.log(\n            \"BiDirectionalPaymentChannel.withdraw(), msg.sender is %s, amount=%d\",\n            msg.sender,\n            amount\n        );\n        emit Withdraw(msg.sender, amount);\n    }\n\n    receive() external payable {\n        console.log(\n            \"BiDirectionalPaymentChannel.receive(), Receiving %d from %s\",\n            msg.value,\n            msg.sender\n        );\n    }\n\n    fallback() external payable {\n        console.log(\n            \"BiDirectionalPaymentChannel.fallback(), Receiving %d from %s\",\n            msg.value,\n            msg.sender\n        );\n    }\n}\n",
  "sourcePath": "contracts/BidirectionalPayment.sol",
  "type": "contract"
}