{
  "abi": [
    {
      "inputs": [
        {
          "internalType": "address[]",
          "name": "_owners",
          "type": "address[]"
        },
        {
          "internalType": "uint256",
          "name": "_numConfirmationsRequired",
          "type": "uint256"
        }
      ],
      "stateMutability": "nonpayable",
      "type": "constructor"
    },
    {
      "anonymous": false,
      "inputs": [
        {
          "indexed": true,
          "internalType": "address",
          "name": "owner",
          "type": "address"
        },
        {
          "indexed": true,
          "internalType": "uint256",
          "name": "txIndex",
          "type": "uint256"
        }
      ],
      "name": "ConfirmTransaction",
      "type": "event"
    },
    {
      "anonymous": false,
      "inputs": [
        {
          "indexed": true,
          "internalType": "address",
          "name": "sender",
          "type": "address"
        },
        {
          "indexed": false,
          "internalType": "uint256",
          "name": "amount",
          "type": "uint256"
        },
        {
          "indexed": false,
          "internalType": "uint256",
          "name": "balance",
          "type": "uint256"
        }
      ],
      "name": "Deposit",
      "type": "event"
    },
    {
      "anonymous": false,
      "inputs": [
        {
          "indexed": true,
          "internalType": "address",
          "name": "owner",
          "type": "address"
        },
        {
          "indexed": true,
          "internalType": "uint256",
          "name": "txIndex",
          "type": "uint256"
        }
      ],
      "name": "ExecuteTransaction",
      "type": "event"
    },
    {
      "anonymous": false,
      "inputs": [
        {
          "indexed": true,
          "internalType": "address",
          "name": "owner",
          "type": "address"
        },
        {
          "indexed": true,
          "internalType": "uint256",
          "name": "txIndex",
          "type": "uint256"
        }
      ],
      "name": "RevokeConfirmation",
      "type": "event"
    },
    {
      "anonymous": false,
      "inputs": [
        {
          "indexed": true,
          "internalType": "address",
          "name": "owner",
          "type": "address"
        },
        {
          "indexed": true,
          "internalType": "uint256",
          "name": "txIndex",
          "type": "uint256"
        },
        {
          "indexed": true,
          "internalType": "address",
          "name": "to",
          "type": "address"
        },
        {
          "indexed": false,
          "internalType": "uint256",
          "name": "value",
          "type": "uint256"
        },
        {
          "indexed": false,
          "internalType": "bytes",
          "name": "data",
          "type": "bytes"
        }
      ],
      "name": "SubmitTransaction",
      "type": "event"
    },
    {
      "stateMutability": "payable",
      "type": "fallback"
    },
    {
      "inputs": [
        {
          "internalType": "uint256",
          "name": "_txIndex",
          "type": "uint256"
        }
      ],
      "name": "confirmTransaction",
      "outputs": [],
      "stateMutability": "nonpayable",
      "type": "function"
    },
    {
      "inputs": [
        {
          "internalType": "uint256",
          "name": "_txIndex",
          "type": "uint256"
        }
      ],
      "name": "executeTransaction",
      "outputs": [],
      "stateMutability": "nonpayable",
      "type": "function"
    },
    {
      "inputs": [],
      "name": "getOwners",
      "outputs": [
        {
          "internalType": "address[]",
          "name": "",
          "type": "address[]"
        }
      ],
      "stateMutability": "view",
      "type": "function"
    },
    {
      "inputs": [
        {
          "internalType": "uint256",
          "name": "_txIndex",
          "type": "uint256"
        }
      ],
      "name": "getTransaction",
      "outputs": [
        {
          "internalType": "address",
          "name": "to",
          "type": "address"
        },
        {
          "internalType": "uint256",
          "name": "value",
          "type": "uint256"
        },
        {
          "internalType": "bytes",
          "name": "data",
          "type": "bytes"
        },
        {
          "internalType": "bool",
          "name": "executed",
          "type": "bool"
        },
        {
          "internalType": "uint256",
          "name": "numConfirmations",
          "type": "uint256"
        }
      ],
      "stateMutability": "view",
      "type": "function"
    },
    {
      "inputs": [],
      "name": "getTransactionCount",
      "outputs": [
        {
          "internalType": "uint256",
          "name": "",
          "type": "uint256"
        }
      ],
      "stateMutability": "view",
      "type": "function"
    },
    {
      "inputs": [
        {
          "internalType": "uint256",
          "name": "",
          "type": "uint256"
        },
        {
          "internalType": "address",
          "name": "",
          "type": "address"
        }
      ],
      "name": "isConfirmed",
      "outputs": [
        {
          "internalType": "bool",
          "name": "",
          "type": "bool"
        }
      ],
      "stateMutability": "view",
      "type": "function"
    },
    {
      "inputs": [
        {
          "internalType": "address",
          "name": "",
          "type": "address"
        }
      ],
      "name": "isOwner",
      "outputs": [
        {
          "internalType": "bool",
          "name": "",
          "type": "bool"
        }
      ],
      "stateMutability": "view",
      "type": "function"
    },
    {
      "inputs": [],
      "name": "numConfirmationsRequired",
      "outputs": [
        {
          "internalType": "uint256",
          "name": "",
          "type": "uint256"
        }
      ],
      "stateMutability": "view",
      "type": "function"
    },
    {
      "inputs": [
        {
          "internalType": "uint256",
          "name": "",
          "type": "uint256"
        }
      ],
      "name": "owners",
      "outputs": [
        {
          "internalType": "address",
          "name": "",
          "type": "address"
        }
      ],
      "stateMutability": "view",
      "type": "function"
    },
    {
      "inputs": [
        {
          "internalType": "uint256",
          "name": "_txIndex",
          "type": "uint256"
        }
      ],
      "name": "revokeConfirmation",
      "outputs": [],
      "stateMutability": "nonpayable",
      "type": "function"
    },
    {
      "inputs": [
        {
          "internalType": "address",
          "name": "_to",
          "type": "address"
        },
        {
          "internalType": "uint256",
          "name": "_value",
          "type": "uint256"
        },
        {
          "internalType": "bytes",
          "name": "_data",
          "type": "bytes"
        }
      ],
      "name": "submitTransaction",
      "outputs": [],
      "stateMutability": "nonpayable",
      "type": "function"
    },
    {
      "inputs": [
        {
          "internalType": "uint256",
          "name": "",
          "type": "uint256"
        }
      ],
      "name": "transactions",
      "outputs": [
        {
          "internalType": "address",
          "name": "to",
          "type": "address"
        },
        {
          "internalType": "uint256",
          "name": "value",
          "type": "uint256"
        },
        {
          "internalType": "bytes",
          "name": "data",
          "type": "bytes"
        },
        {
          "internalType": "bool",
          "name": "executed",
          "type": "bool"
        },
        {
          "internalType": "uint256",
          "name": "numConfirmations",
          "type": "uint256"
        }
      ],
      "stateMutability": "view",
      "type": "function"
    },
    {
      "stateMutability": "payable",
      "type": "receive"
    }
  ],
  "bytecode": "60806040523480156200001157600080fd5b5060405162001f8938038062001f89833981016040819052620000349162000353565b6200006360405180606001604052806023815260200162001f6660239139620002b160201b6200107a1760201c565b6000825111620000ac5760405162461bcd60e51b815260206004820152600f60248201526e1bdddb995c9cc81c995c5d5a5c9959608a1b60448201526064015b60405180910390fd5b600081118015620000be575081518111155b6200011d5760405162461bcd60e51b815260206004820152602860248201527f696e76616c6964206e756d626572206f6620726571756972656420636f6e6669604482015267726d6174696f6e7360c01b6064820152608401620000a3565b60005b8251811015620002725760008382815181106200014157620001416200042d565b6020026020010151905060006001600160a01b0316816001600160a01b0316036200019f5760405162461bcd60e51b815260206004820152600d60248201526c34b73b30b634b21037bbb732b960991b6044820152606401620000a3565b6001600160a01b03811660009081526001602052604090205460ff1615620001fd5760405162461bcd60e51b815260206004820152601060248201526f6f776e6572206e6f7420756e6971756560801b6044820152606401620000a3565b6001600160a01b031660008181526001602081905260408220805460ff191682179055815490810182559080527f290decd9548b62a8d60345a988386fc84ba6bc95484008f6362f93160ef3e5630180546001600160a01b031916909117905580620002698162000443565b91505062000120565b5080600281905550620002a960405180606001604052806023815260200162001f4360239139620002b160201b6200107a1760201c565b5050620004c3565b620002fc81604051602401620002c891906200046b565b60408051601f198184030181529190526020810180516001600160e01b0390811663104c13eb60e21b17909152620002ff16565b50565b80516a636f6e736f6c652e6c6f67602083016000808483855afa5050505050565b634e487b7160e01b600052604160045260246000fd5b80516001600160a01b03811681146200034e57600080fd5b919050565b600080604083850312156200036757600080fd5b82516001600160401b03808211156200037f57600080fd5b818501915085601f8301126200039457600080fd5b8151602082821115620003ab57620003ab62000320565b8160051b604051601f19603f83011681018181108682111715620003d357620003d362000320565b604052928352818301935084810182019289841115620003f257600080fd5b948201945b838610156200041b576200040b8662000336565b85529482019493820193620003f7565b97909101519698969750505050505050565b634e487b7160e01b600052603260045260246000fd5b6000600182016200046457634e487b7160e01b600052601160045260246000fd5b5060010190565b600060208083528351808285015260005b818110156200049a578581018301518582016040015282016200047c565b81811115620004ad576000604083870101525b50601f01601f1916929092016040019392505050565b611a7080620004d36000396000f3fe6080604052600436106100ab5760003560e01c80639ace38c2116100645780639ace38c21461025a578063a0e67e2b1461027a578063c01a8c841461029c578063c6427474146102bc578063d0549b85146102dc578063ee22610b146102f25761010e565b8063025e7c271461013057806320ea8d861461016d5780632e7700f01461018f5780632f54bf6e146101ae57806333ea3dc8146101ee57806380f59a651461021f5761010e565b3661010e576100d26040518060600160405280602981526020016117986029913934610312565b6040805134815247602082015233917f90890809c654f11d6e72a28fa60149770a0d11ec6c92319d6ceb2bb0a4ea1a15910160405180910390a2005b6100d26040518060600160405280602a8152602001611806602a913934610312565b34801561013c57600080fd5b5061015061014b366004611244565b61035b565b6040516001600160a01b0390911681526020015b60405180910390f35b34801561017957600080fd5b5061018d610188366004611244565b610385565b005b34801561019b57600080fd5b506004545b604051908152602001610164565b3480156101ba57600080fd5b506101de6101c9366004611279565b60016020526000908152604090205460ff1681565b6040519015158152602001610164565b3480156101fa57600080fd5b5061020e610209366004611244565b610622565b6040516101649594939291906112e8565b34801561022b57600080fd5b506101de61023a366004611323565b600360209081526000928352604080842090915290825290205460ff1681565b34801561026657600080fd5b5061020e610275366004611244565b61071d565b34801561028657600080fd5b5061028f6107f6565b604051610164919061134f565b3480156102a857600080fd5b5061018d6102b7366004611244565b610858565b3480156102c857600080fd5b5061018d6102d73660046113b2565b610aef565b3480156102e857600080fd5b506101a060025481565b3480156102fe57600080fd5b5061018d61030d366004611244565b610cdb565b610357828260405160240161032892919061147d565b60408051601f198184030181529190526020810180516001600160e01b03166309710a9d60e41b1790526110b9565b5050565b6000818154811061036b57600080fd5b6000918252602090912001546001600160a01b0316905081565b6103a66040518060600160405280602181526020016119a66021913961107a565b3360009081526001602052604090205460ff166103de5760405162461bcd60e51b81526004016103d59061149f565b60405180910390fd5b806104016040518060600160405280602381526020016116d76023913982610312565b60045481106104225760405162461bcd60e51b81526004016103d5906114c2565b81610445604051806060016040528060268152602001611a156026913982610312565b60048181548110610458576104586114ed565b600091825260209091206003600590920201015460ff161561048c5760405162461bcd60e51b81526004016103d590611503565b6104ae6040518060600160405280602d81526020016119e8602d913984610312565b6000600484815481106104c3576104c36114ed565b600091825260208083208784526003825260408085203386529092529220546005909102909101915060ff1661052e5760405162461bcd60e51b815260206004820152601060248201526f1d1e081b9bdd0818dbdb999a5c9b595960821b60448201526064016103d5565b60018160040160008282546105439190611546565b90915550506000848152600360209081526040808320338452825291829020805460ff19169055815160608101909252602d80835261058a92916118d09083013985610312565b604051849033907ff0dca620e2e81f7841d07bcc105e1704fb01475b278a9d4c236e1c62945edd5590600090a3506105da6040518060600160405280602681526020016118fd6026913982610312565b506105fd6040518060600160405280602381526020016117486023913982610312565b5061061f6040518060600160405280602181526020016119c76021913961107a565b50565b600080606060008060006004878154811061063f5761063f6114ed565b6000918252602090912060059091020180546001820154600383015460048401546002850180549596506001600160a01b039094169492939260ff9092169183906106899061155d565b80601f01602080910402602001604051908101604052809291908181526020018280546106b59061155d565b80156107025780601f106106d757610100808354040283529160200191610702565b820191906000526020600020905b8154815290600101906020018083116106e557829003601f168201915b50505050509250955095509550955095505091939590929450565b6004818154811061072d57600080fd5b60009182526020909120600590910201805460018201546002830180546001600160a01b0390931694509092916107639061155d565b80601f016020809104026020016040519081016040528092919081815260200182805461078f9061155d565b80156107dc5780601f106107b1576101008083540402835291602001916107dc565b820191906000526020600020905b8154815290600101906020018083116107bf57829003601f168201915b505050506003830154600490930154919260ff1691905085565b6060600080548060200260200160405190810160405280929190818152602001828054801561084e57602002820191906000526020600020905b81546001600160a01b03168152600190910190602001808311610830575b5050505050905090565b6108796040518060600160405280602181526020016119a66021913961107a565b3360009081526001602052604090205460ff166108a85760405162461bcd60e51b81526004016103d59061149f565b806108cb6040518060600160405280602381526020016116d76023913982610312565b60045481106108ec5760405162461bcd60e51b81526004016103d5906114c2565b8161090f604051806060016040528060268152602001611a156026913982610312565b60048181548110610922576109226114ed565b600091825260209091206003600590920201015460ff16156109565760405162461bcd60e51b81526004016103d590611503565b826109796040518060600160405280602781526020016117216027913982610312565b600081815260036020908152604080832033845290915290205460ff16156109da5760405162461bcd60e51b81526020600482015260146024820152731d1e08185b1c9958591e4818dbdb999a5c9b595960621b60448201526064016103d5565b6109fc6040518060600160405280602d815260200161176b602d913985610312565b600060048581548110610a1157610a116114ed565b906000526020600020906005020190506001816004016000828254610a369190611597565b90915550506000858152600360209081526040808320338085529252808320805460ff191660011790555187927f5cbe105e36805f7820e291f799d5794ff948af2a5f664e580382defb6339004191a3610aa960405180606001604052806036815260200161189a6036913986336110da565b50610acc6040518060600160405280602781526020016116fa6027913982610312565b506105da6040518060600160405280602681526020016118fd6026913982610312565b610b106040518060600160405280602181526020016119a66021913961107a565b3360009081526001602052604090205460ff16610b3f5760405162461bcd60e51b81526004016103d59061149f565b600480546040805160a0810182526001600160a01b0387811682526020808301888152938301878152600060608501819052608085018190526001870188559690965282517f8a35acfbc15ff81a39ae7d344fd709f28e8600b4aa8c65c6b64bfe7fe36bd19b6005870290810180546001600160a01b0319169290941691909117835593517f8a35acfbc15ff81a39ae7d344fd709f28e8600b4aa8c65c6b64bfe7fe36bd19c85015594518051949592949193610c23937f8a35acfbc15ff81a39ae7d344fd709f28e8600b4aa8c65c6b64bfe7fe36bd19d909101929101906111ab565b50606082015160038201805460ff19169115159190911790556080909101516004909101556040516001600160a01b03851690829033907fd5a05bf70715ad82a09a756320284a1b54c9ff74cd0f8cce6219e79b563fe59d90610c8990889088906115af565b60405180910390a4610cb46040518060600160405280603d8152602001611923603d91398283611121565b50610cd66040518060600160405280602181526020016119c76021913961107a565b505050565b610cfc6040518060600160405280602181526020016119a66021913961107a565b3360009081526001602052604090205460ff16610d2b5760405162461bcd60e51b81526004016103d59061149f565b80610d4e6040518060600160405280602381526020016116d76023913982610312565b6004548110610d6f5760405162461bcd60e51b81526004016103d5906114c2565b81610d92604051806060016040528060268152602001611a156026913982610312565b60048181548110610da557610da56114ed565b600091825260209091206003600590920201015460ff1615610dd95760405162461bcd60e51b81526004016103d590611503565b610dfb6040518060600160405280602d815260200161186d602d913984610312565b600060048481548110610e1057610e106114ed565b9060005260206000209060050201905060025481600401541015610e6a5760405162461bcd60e51b81526020600482015260116024820152700c6c2dcdcdee840caf0cac6eae8ca40e8f607b1b60448201526064016103d5565b60038101805460ff191660011790556040805160608101909152603d808252610e9d919061183060208301398547611121565b610ec460405180608001604052806046815260200161196060469139858360010154611121565b610f59816002018054610ed69061155d565b80601f0160208091040260200160405190810160405280929190818152602001828054610f029061155d565b8015610f4f5780601f10610f2457610100808354040283529160200191610f4f565b820191906000526020600020905b815481529060010190602001808311610f3257829003601f168201915b5050505050611168565b805460405160009182916001600160a01b0390911690610f7d9060028601906115d0565b6000604051808303816000865af19150503d8060008114610fba576040519150601f19603f3d011682016040523d82523d6000602084013e610fbf565b606091505b509150915081610ffd5760405162461bcd60e51b81526020600482015260096024820152681d1e0819985a5b195960ba1b60448201526064016103d5565b61101f6040518060800160405280604581526020016117c16045913987610312565b61102881611168565b604051869033907f5445f318f4f5fcfb66592e68e0cc5822aa15664039bd5f0ffde24c5a8142b1ac90600090a35050506105da6040518060600160405280602681526020016118fd6026913982610312565b61061f8160405160240161108e919061166b565b60408051601f198184030181529190526020810180516001600160e01b031663104c13eb60e21b1790525b80516a636f6e736f6c652e6c6f67602083016000808483855afa5050505050565b610cd68383836040516024016110f29392919061167e565b60408051601f198184030181529190526020810180516001600160e01b031663e3849f7960e01b1790526110b9565b610cd6838383604051602401611139939291906116b1565b60408051601f198184030181529190526020810180516001600160e01b031663969cdd0360e01b1790526110b9565b61061f8160405160240161117c919061166b565b60408051601f198184030181529190526020810180516001600160e01b03166305f3bfab60e11b1790526110b9565b8280546111b79061155d565b90600052602060002090601f0160209004810192826111d9576000855561121f565b82601f106111f257805160ff191683800117855561121f565b8280016001018555821561121f579182015b8281111561121f578251825591602001919060010190611204565b5061122b92915061122f565b5090565b5b8082111561122b5760008155600101611230565b60006020828403121561125657600080fd5b5035919050565b80356001600160a01b038116811461127457600080fd5b919050565b60006020828403121561128b57600080fd5b6112948261125d565b9392505050565b6000815180845260005b818110156112c1576020818501810151868301820152016112a5565b818111156112d3576000602083870101525b50601f01601f19169290920160200192915050565b60018060a01b038616815284602082015260a06040820152600061130f60a083018661129b565b931515606083015250608001529392505050565b6000806040838503121561133657600080fd5b823591506113466020840161125d565b90509250929050565b6020808252825182820181905260009190848201906040850190845b818110156113905783516001600160a01b03168352928401929184019160010161136b565b50909695505050505050565b634e487b7160e01b600052604160045260246000fd5b6000806000606084860312156113c757600080fd5b6113d08461125d565b925060208401359150604084013567ffffffffffffffff808211156113f457600080fd5b818601915086601f83011261140857600080fd5b81358181111561141a5761141a61139c565b604051601f8201601f19908116603f011681019083821181831017156114425761144261139c565b8160405282815289602084870101111561145b57600080fd5b8260208601602083013760006020848301015280955050505050509250925092565b604081526000611490604083018561129b565b90508260208301529392505050565b6020808252600990820152683737ba1037bbb732b960b91b604082015260600190565b6020808252601190820152701d1e08191bd95cc81b9bdd08195e1a5cdd607a1b604082015260600190565b634e487b7160e01b600052603260045260246000fd5b6020808252601390820152721d1e08185b1c9958591e48195e1958dd5d1959606a1b604082015260600190565b634e487b7160e01b600052601160045260246000fd5b60008282101561155857611558611530565b500390565b600181811c9082168061157157607f821691505b60208210810361159157634e487b7160e01b600052602260045260246000fd5b50919050565b600082198211156115aa576115aa611530565b500190565b8281526040602082015260006115c8604083018461129b565b949350505050565b600080835481600182811c9150808316806115ec57607f831692505b6020808410820361160b57634e487b7160e01b86526022600452602486fd5b81801561161f57600181146116305761165d565b60ff1986168952848901965061165d565b60008a81526020902060005b868110156116555781548b82015290850190830161163c565b505084890196505b509498975050505050505050565b602081526000611294602083018461129b565b606081526000611691606083018661129b565b6020830194909452506001600160a01b0391909116604090910152919050565b6060815260006116c4606083018661129b565b6020830194909452506040015291905056fe4d756c746953696757616c6c65742e747845786973747328232564292063616c6c65644d756c746953696757616c6c65742e6e6f74436f6e6669726d65642823256429207061737365644d756c746953696757616c6c65742e6e6f74436f6e6669726d656428232564292063616c6c65644d756c746953696757616c6c65742e74784578697374732823256429207061737365644d756c746953696757616c6c65742e636f6e6669726d5472616e73616374696f6e28232564292063616c6c65644d756c746953696757616c6c65742e7265636569766528292c206d73672e76616c75652069732025644d756c746953696757616c6c65742e657865637574655472616e73616374696f6e2823256429206166746572206c6f772d6c6576656c2063616c6c2c20726574646174613d4d756c746953696757616c6c65742e66616c6c6261636b28292c206d73672e76616c75652069732025644d756c746953696757616c6c65742e657865637574655472616e73616374696f6e282325642920636f6e74726163742062616c616e63652069732025644d756c746953696757616c6c65742e657865637574655472616e73616374696f6e28232564292063616c6c65644d756c746953696757616c6c65742e636f6e6669726d5472616e73616374696f6e282325642920636f6e6669726d65642062792025734d756c746953696757616c6c65742e7265766f6b65436f6e6669726d6174696f6e2823256429207061737365644d756c746953696757616c6c65742e6e6f7445786563757465642823256429207061737365644d756c746953696757616c6c65742e7375626d69745472616e73616374696f6e28232564292c207472616e73616374696f6e20256420637265617465644d756c746953696757616c6c65742e657865637574655472616e73616374696f6e2823256429206c6f772d6c6576656c2063616c6c2c2076616c75653d25642c20646174613d4d756c746953696757616c6c65742e6f6e6c794f776e657228292063616c6c65644d756c746953696757616c6c65742e6f6e6c794f776e65722829207061737365644d756c746953696757616c6c65742e7265766f6b65436f6e6669726d6174696f6e28232564292063616c6c65644d756c746953696757616c6c65742e6e6f74457865637574656428232564292063616c6c6564a2646970667358221220e13f7bb38e614b0530d940e491383833ab93417cb0f0ea77eec6e4a7a7b5793964736f6c634300080e00334d756c746953696757616c6c65742e636f6e7374727563746f722829207061737365644d756c746953696757616c6c65742e636f6e7374727563746f7228292063616c6c6564",
  "bytecodeSha1": "da39a3ee5e6b4b0d3255bfef95601890afd80709",
  "compiler": {
    "evm_version": "istanbul",
    "optimizer": {
      "enabled": true,
      "runs": 200
    },
    "version": "0.8.14+commit.80d49f37"
  },
  "contractName": "MultiSigWallet",
  "language": "Solidity",
  "natspec": {
    "kind": "dev",
    "methods": {},
    "version": 1
  },
  "opcodes": "PUSH1 0x80 PUSH1 0x40 MSTORE PUSH1 0x4 CALLDATASIZE LT PUSH2 0xAB JUMPI PUSH1 0x0 CALLDATALOAD PUSH1 0xE0 SHR DUP1 PUSH4 0x9ACE38C2 GT PUSH2 0x64 JUMPI DUP1 PUSH4 0x9ACE38C2 EQ PUSH2 0x25A JUMPI DUP1 PUSH4 0xA0E67E2B EQ PUSH2 0x27A JUMPI DUP1 PUSH4 0xC01A8C84 EQ PUSH2 0x29C JUMPI DUP1 PUSH4 0xC6427474 EQ PUSH2 0x2BC JUMPI DUP1 PUSH4 0xD0549B85 EQ PUSH2 0x2DC JUMPI DUP1 PUSH4 0xEE22610B EQ PUSH2 0x2F2 JUMPI PUSH2 0x10E JUMP JUMPDEST DUP1 PUSH4 0x25E7C27 EQ PUSH2 0x130 JUMPI DUP1 PUSH4 0x20EA8D86 EQ PUSH2 0x16D JUMPI DUP1 PUSH4 0x2E7700F0 EQ PUSH2 0x18F JUMPI DUP1 PUSH4 0x2F54BF6E EQ PUSH2 0x1AE JUMPI DUP1 PUSH4 0x33EA3DC8 EQ PUSH2 0x1EE JUMPI DUP1 PUSH4 0x80F59A65 EQ PUSH2 0x21F JUMPI PUSH2 0x10E JUMP JUMPDEST CALLDATASIZE PUSH2 0x10E JUMPI PUSH2 0xD2 PUSH1 0x40 MLOAD DUP1 PUSH1 0x60 ADD PUSH1 0x40 MSTORE DUP1 PUSH1 0x29 DUP2 MSTORE PUSH1 0x20 ADD PUSH2 0x1798 PUSH1 0x29 SWAP2 CODECOPY CALLVALUE PUSH2 0x312 JUMP JUMPDEST PUSH1 0x40 DUP1 MLOAD CALLVALUE DUP2 MSTORE SELFBALANCE PUSH1 0x20 DUP3 ADD MSTORE CALLER SWAP2 PUSH32 0x90890809C654F11D6E72A28FA60149770A0D11EC6C92319D6CEB2BB0A4EA1A15 SWAP2 ADD PUSH1 0x40 MLOAD DUP1 SWAP2 SUB SWAP1 LOG2 STOP JUMPDEST PUSH2 0xD2 PUSH1 0x40 MLOAD DUP1 PUSH1 0x60 ADD PUSH1 0x40 MSTORE DUP1 PUSH1 0x2A DUP2 MSTORE PUSH1 0x20 ADD PUSH2 0x1806 PUSH1 0x2A SWAP2 CODECOPY CALLVALUE PUSH2 0x312 JUMP JUMPDEST CALLVALUE DUP1 ISZERO PUSH2 0x13C JUMPI PUSH1 0x0 DUP1 REVERT JUMPDEST POP PUSH2 0x150 PUSH2 0x14B CALLDATASIZE PUSH1 0x4 PUSH2 0x1244 JUMP JUMPDEST PUSH2 0x35B JUMP JUMPDEST PUSH1 0x40 MLOAD PUSH1 0x1 PUSH1 0x1 PUSH1 0xA0 SHL SUB SWAP1 SWAP2 AND DUP2 MSTORE PUSH1 0x20 ADD JUMPDEST PUSH1 0x40 MLOAD DUP1 SWAP2 SUB SWAP1 RETURN JUMPDEST CALLVALUE DUP1 ISZERO PUSH2 0x179 JUMPI PUSH1 0x0 DUP1 REVERT JUMPDEST POP PUSH2 0x18D PUSH2 0x188 CALLDATASIZE PUSH1 0x4 PUSH2 0x1244 JUMP JUMPDEST PUSH2 0x385 JUMP JUMPDEST STOP JUMPDEST CALLVALUE DUP1 ISZERO PUSH2 0x19B JUMPI PUSH1 0x0 DUP1 REVERT JUMPDEST POP PUSH1 0x4 SLOAD JUMPDEST PUSH1 0x40 MLOAD SWAP1 DUP2 MSTORE PUSH1 0x20 ADD PUSH2 0x164 JUMP JUMPDEST CALLVALUE DUP1 ISZERO PUSH2 0x1BA JUMPI PUSH1 0x0 DUP1 REVERT JUMPDEST POP PUSH2 0x1DE PUSH2 0x1C9 CALLDATASIZE PUSH1 0x4 PUSH2 0x1279 JUMP JUMPDEST PUSH1 0x1 PUSH1 0x20 MSTORE PUSH1 0x0 SWAP1 DUP2 MSTORE PUSH1 0x40 SWAP1 KECCAK256 SLOAD PUSH1 0xFF AND DUP2 JUMP JUMPDEST PUSH1 0x40 MLOAD SWAP1 ISZERO ISZERO DUP2 MSTORE PUSH1 0x20 ADD PUSH2 0x164 JUMP JUMPDEST CALLVALUE DUP1 ISZERO PUSH2 0x1FA JUMPI PUSH1 0x0 DUP1 REVERT JUMPDEST POP PUSH2 0x20E PUSH2 0x209 CALLDATASIZE PUSH1 0x4 PUSH2 0x1244 JUMP JUMPDEST PUSH2 0x622 JUMP JUMPDEST PUSH1 0x40 MLOAD PUSH2 0x164 SWAP6 SWAP5 SWAP4 SWAP3 SWAP2 SWAP1 PUSH2 0x12E8 JUMP JUMPDEST CALLVALUE DUP1 ISZERO PUSH2 0x22B JUMPI PUSH1 0x0 DUP1 REVERT JUMPDEST POP PUSH2 0x1DE PUSH2 0x23A CALLDATASIZE PUSH1 0x4 PUSH2 0x1323 JUMP JUMPDEST PUSH1 0x3 PUSH1 0x20 SWAP1 DUP2 MSTORE PUSH1 0x0 SWAP3 DUP4 MSTORE PUSH1 0x40 DUP1 DUP5 KECCAK256 SWAP1 SWAP2 MSTORE SWAP1 DUP3 MSTORE SWAP1 KECCAK256 SLOAD PUSH1 0xFF AND DUP2 JUMP JUMPDEST CALLVALUE DUP1 ISZERO PUSH2 0x266 JUMPI PUSH1 0x0 DUP1 REVERT JUMPDEST POP PUSH2 0x20E PUSH2 0x275 CALLDATASIZE PUSH1 0x4 PUSH2 0x1244 JUMP JUMPDEST PUSH2 0x71D JUMP JUMPDEST CALLVALUE DUP1 ISZERO PUSH2 0x286 JUMPI PUSH1 0x0 DUP1 REVERT JUMPDEST POP PUSH2 0x28F PUSH2 0x7F6 JUMP JUMPDEST PUSH1 0x40 MLOAD PUSH2 0x164 SWAP2 SWAP1 PUSH2 0x134F JUMP JUMPDEST CALLVALUE DUP1 ISZERO PUSH2 0x2A8 JUMPI PUSH1 0x0 DUP1 REVERT JUMPDEST POP PUSH2 0x18D PUSH2 0x2B7 CALLDATASIZE PUSH1 0x4 PUSH2 0x1244 JUMP JUMPDEST PUSH2 0x858 JUMP JUMPDEST CALLVALUE DUP1 ISZERO PUSH2 0x2C8 JUMPI PUSH1 0x0 DUP1 REVERT JUMPDEST POP PUSH2 0x18D PUSH2 0x2D7 CALLDATASIZE PUSH1 0x4 PUSH2 0x13B2 JUMP JUMPDEST PUSH2 0xAEF JUMP JUMPDEST CALLVALUE DUP1 ISZERO PUSH2 0x2E8 JUMPI PUSH1 0x0 DUP1 REVERT JUMPDEST POP PUSH2 0x1A0 PUSH1 0x2 SLOAD DUP2 JUMP JUMPDEST CALLVALUE DUP1 ISZERO PUSH2 0x2FE JUMPI PUSH1 0x0 DUP1 REVERT JUMPDEST POP PUSH2 0x18D PUSH2 0x30D CALLDATASIZE PUSH1 0x4 PUSH2 0x1244 JUMP JUMPDEST PUSH2 0xCDB JUMP JUMPDEST PUSH2 0x357 DUP3 DUP3 PUSH1 0x40 MLOAD PUSH1 0x24 ADD PUSH2 0x328 SWAP3 SWAP2 SWAP1 PUSH2 0x147D JUMP JUMPDEST PUSH1 0x40 DUP1 MLOAD PUSH1 0x1F NOT DUP2 DUP5 SUB ADD DUP2 MSTORE SWAP2 SWAP1 MSTORE PUSH1 0x20 DUP2 ADD DUP1 MLOAD PUSH1 0x1 PUSH1 0x1 PUSH1 0xE0 SHL SUB AND PUSH4 0x9710A9D PUSH1 0xE4 SHL OR SWAP1 MSTORE PUSH2 0x10B9 JUMP JUMPDEST POP POP JUMP JUMPDEST PUSH1 0x0 DUP2 DUP2 SLOAD DUP2 LT PUSH2 0x36B JUMPI PUSH1 0x0 DUP1 REVERT JUMPDEST PUSH1 0x0 SWAP2 DUP3 MSTORE PUSH1 0x20 SWAP1 SWAP2 KECCAK256 ADD SLOAD PUSH1 0x1 PUSH1 0x1 PUSH1 0xA0 SHL SUB AND SWAP1 POP DUP2 JUMP JUMPDEST PUSH2 0x3A6 PUSH1 0x40 MLOAD DUP1 PUSH1 0x60 ADD PUSH1 0x40 MSTORE DUP1 PUSH1 0x21 DUP2 MSTORE PUSH1 0x20 ADD PUSH2 0x19A6 PUSH1 0x21 SWAP2 CODECOPY PUSH2 0x107A JUMP JUMPDEST CALLER PUSH1 0x0 SWAP1 DUP2 MSTORE PUSH1 0x1 PUSH1 0x20 MSTORE PUSH1 0x40 SWAP1 KECCAK256 SLOAD PUSH1 0xFF AND PUSH2 0x3DE JUMPI PUSH1 0x40 MLOAD PUSH3 0x461BCD PUSH1 0xE5 SHL DUP2 MSTORE PUSH1 0x4 ADD PUSH2 0x3D5 SWAP1 PUSH2 0x149F JUMP JUMPDEST PUSH1 0x40 MLOAD DUP1 SWAP2 SUB SWAP1 REVERT JUMPDEST DUP1 PUSH2 0x401 PUSH1 0x40 MLOAD DUP1 PUSH1 0x60 ADD PUSH1 0x40 MSTORE DUP1 PUSH1 0x23 DUP2 MSTORE PUSH1 0x20 ADD PUSH2 0x16D7 PUSH1 0x23 SWAP2 CODECOPY DUP3 PUSH2 0x312 JUMP JUMPDEST PUSH1 0x4 SLOAD DUP2 LT PUSH2 0x422 JUMPI PUSH1 0x40 MLOAD PUSH3 0x461BCD PUSH1 0xE5 SHL DUP2 MSTORE PUSH1 0x4 ADD PUSH2 0x3D5 SWAP1 PUSH2 0x14C2 JUMP JUMPDEST DUP2 PUSH2 0x445 PUSH1 0x40 MLOAD DUP1 PUSH1 0x60 ADD PUSH1 0x40 MSTORE DUP1 PUSH1 0x26 DUP2 MSTORE PUSH1 0x20 ADD PUSH2 0x1A15 PUSH1 0x26 SWAP2 CODECOPY DUP3 PUSH2 0x312 JUMP JUMPDEST PUSH1 0x4 DUP2 DUP2 SLOAD DUP2 LT PUSH2 0x458 JUMPI PUSH2 0x458 PUSH2 0x14ED JUMP JUMPDEST PUSH1 0x0 SWAP2 DUP3 MSTORE PUSH1 0x20 SWAP1 SWAP2 KECCAK256 PUSH1 0x3 PUSH1 0x5 SWAP1 SWAP3 MUL ADD ADD SLOAD PUSH1 0xFF AND ISZERO PUSH2 0x48C JUMPI PUSH1 0x40 MLOAD PUSH3 0x461BCD PUSH1 0xE5 SHL DUP2 MSTORE PUSH1 0x4 ADD PUSH2 0x3D5 SWAP1 PUSH2 0x1503 JUMP JUMPDEST PUSH2 0x4AE PUSH1 0x40 MLOAD DUP1 PUSH1 0x60 ADD PUSH1 0x40 MSTORE DUP1 PUSH1 0x2D DUP2 MSTORE PUSH1 0x20 ADD PUSH2 0x19E8 PUSH1 0x2D SWAP2 CODECOPY DUP5 PUSH2 0x312 JUMP JUMPDEST PUSH1 0x0 PUSH1 0x4 DUP5 DUP2 SLOAD DUP2 LT PUSH2 0x4C3 JUMPI PUSH2 0x4C3 PUSH2 0x14ED JUMP JUMPDEST PUSH1 0x0 SWAP2 DUP3 MSTORE PUSH1 0x20 DUP1 DUP4 KECCAK256 DUP8 DUP5 MSTORE PUSH1 0x3 DUP3 MSTORE PUSH1 0x40 DUP1 DUP6 KECCAK256 CALLER DUP7 MSTORE SWAP1 SWAP3 MSTORE SWAP3 KECCAK256 SLOAD PUSH1 0x5 SWAP1 SWAP2 MUL SWAP1 SWAP2 ADD SWAP2 POP PUSH1 0xFF AND PUSH2 0x52E JUMPI PUSH1 0x40 MLOAD PUSH3 0x461BCD PUSH1 0xE5 SHL DUP2 MSTORE PUSH1 0x20 PUSH1 0x4 DUP3 ADD MSTORE PUSH1 0x10 PUSH1 0x24 DUP3 ADD MSTORE PUSH16 0x1D1E081B9BDD0818DBDB999A5C9B5959 PUSH1 0x82 SHL PUSH1 0x44 DUP3 ADD MSTORE PUSH1 0x64 ADD PUSH2 0x3D5 JUMP JUMPDEST PUSH1 0x1 DUP2 PUSH1 0x4 ADD PUSH1 0x0 DUP3 DUP3 SLOAD PUSH2 0x543 SWAP2 SWAP1 PUSH2 0x1546 JUMP JUMPDEST SWAP1 SWAP2 SSTORE POP POP PUSH1 0x0 DUP5 DUP2 MSTORE PUSH1 0x3 PUSH1 0x20 SWAP1 DUP2 MSTORE PUSH1 0x40 DUP1 DUP4 KECCAK256 CALLER DUP5 MSTORE DUP3 MSTORE SWAP2 DUP3 SWAP1 KECCAK256 DUP1 SLOAD PUSH1 0xFF NOT AND SWAP1 SSTORE DUP2 MLOAD PUSH1 0x60 DUP2 ADD SWAP1 SWAP3 MSTORE PUSH1 0x2D DUP1 DUP4 MSTORE PUSH2 0x58A SWAP3 SWAP2 PUSH2 0x18D0 SWAP1 DUP4 ADD CODECOPY DUP6 PUSH2 0x312 JUMP JUMPDEST PUSH1 0x40 MLOAD DUP5 SWAP1 CALLER SWAP1 PUSH32 0xF0DCA620E2E81F7841D07BCC105E1704FB01475B278A9D4C236E1C62945EDD55 SWAP1 PUSH1 0x0 SWAP1 LOG3 POP PUSH2 0x5DA PUSH1 0x40 MLOAD DUP1 PUSH1 0x60 ADD PUSH1 0x40 MSTORE DUP1 PUSH1 0x26 DUP2 MSTORE PUSH1 0x20 ADD PUSH2 0x18FD PUSH1 0x26 SWAP2 CODECOPY DUP3 PUSH2 0x312 JUMP JUMPDEST POP PUSH2 0x5FD PUSH1 0x40 MLOAD DUP1 PUSH1 0x60 ADD PUSH1 0x40 MSTORE DUP1 PUSH1 0x23 DUP2 MSTORE PUSH1 0x20 ADD PUSH2 0x1748 PUSH1 0x23 SWAP2 CODECOPY DUP3 PUSH2 0x312 JUMP JUMPDEST POP PUSH2 0x61F PUSH1 0x40 MLOAD DUP1 PUSH1 0x60 ADD PUSH1 0x40 MSTORE DUP1 PUSH1 0x21 DUP2 MSTORE PUSH1 0x20 ADD PUSH2 0x19C7 PUSH1 0x21 SWAP2 CODECOPY PUSH2 0x107A JUMP JUMPDEST POP JUMP JUMPDEST PUSH1 0x0 DUP1 PUSH1 0x60 PUSH1 0x0 DUP1 PUSH1 0x0 PUSH1 0x4 DUP8 DUP2 SLOAD DUP2 LT PUSH2 0x63F JUMPI PUSH2 0x63F PUSH2 0x14ED JUMP JUMPDEST PUSH1 0x0 SWAP2 DUP3 MSTORE PUSH1 0x20 SWAP1 SWAP2 KECCAK256 PUSH1 0x5 SWAP1 SWAP2 MUL ADD DUP1 SLOAD PUSH1 0x1 DUP3 ADD SLOAD PUSH1 0x3 DUP4 ADD SLOAD PUSH1 0x4 DUP5 ADD SLOAD PUSH1 0x2 DUP6 ADD DUP1 SLOAD SWAP6 SWAP7 POP PUSH1 0x1 PUSH1 0x1 PUSH1 0xA0 SHL SUB SWAP1 SWAP5 AND SWAP5 SWAP3 SWAP4 SWAP3 PUSH1 0xFF SWAP1 SWAP3 AND SWAP2 DUP4 SWAP1 PUSH2 0x689 SWAP1 PUSH2 0x155D JUMP JUMPDEST DUP1 PUSH1 0x1F ADD PUSH1 0x20 DUP1 SWAP2 DIV MUL PUSH1 0x20 ADD PUSH1 0x40 MLOAD SWAP1 DUP2 ADD PUSH1 0x40 MSTORE DUP1 SWAP3 SWAP2 SWAP1 DUP2 DUP2 MSTORE PUSH1 0x20 ADD DUP3 DUP1 SLOAD PUSH2 0x6B5 SWAP1 PUSH2 0x155D JUMP JUMPDEST DUP1 ISZERO PUSH2 0x702 JUMPI DUP1 PUSH1 0x1F LT PUSH2 0x6D7 JUMPI PUSH2 0x100 DUP1 DUP4 SLOAD DIV MUL DUP4 MSTORE SWAP2 PUSH1 0x20 ADD SWAP2 PUSH2 0x702 JUMP JUMPDEST DUP3 ADD SWAP2 SWAP1 PUSH1 0x0 MSTORE PUSH1 0x20 PUSH1 0x0 KECCAK256 SWAP1 JUMPDEST DUP2 SLOAD DUP2 MSTORE SWAP1 PUSH1 0x1 ADD SWAP1 PUSH1 0x20 ADD DUP1 DUP4 GT PUSH2 0x6E5 JUMPI DUP3 SWAP1 SUB PUSH1 0x1F AND DUP3 ADD SWAP2 JUMPDEST POP POP POP POP POP SWAP3 POP SWAP6 POP SWAP6 POP SWAP6 POP SWAP6 POP SWAP6 POP POP SWAP2 SWAP4 SWAP6 SWAP1 SWAP3 SWAP5 POP JUMP JUMPDEST PUSH1 0x4 DUP2 DUP2 SLOAD DUP2 LT PUSH2 0x72D JUMPI PUSH1 0x0 DUP1 REVERT JUMPDEST PUSH1 0x0 SWAP2 DUP3 MSTORE PUSH1 0x20 SWAP1 SWAP2 KECCAK256 PUSH1 0x5 SWAP1 SWAP2 MUL ADD DUP1 SLOAD PUSH1 0x1 DUP3 ADD SLOAD PUSH1 0x2 DUP4 ADD DUP1 SLOAD PUSH1 0x1 PUSH1 0x1 PUSH1 0xA0 SHL SUB SWAP1 SWAP4 AND SWAP5 POP SWAP1 SWAP3 SWAP2 PUSH2 0x763 SWAP1 PUSH2 0x155D JUMP JUMPDEST DUP1 PUSH1 0x1F ADD PUSH1 0x20 DUP1 SWAP2 DIV MUL PUSH1 0x20 ADD PUSH1 0x40 MLOAD SWAP1 DUP2 ADD PUSH1 0x40 MSTORE DUP1 SWAP3 SWAP2 SWAP1 DUP2 DUP2 MSTORE PUSH1 0x20 ADD DUP3 DUP1 SLOAD PUSH2 0x78F SWAP1 PUSH2 0x155D JUMP JUMPDEST DUP1 ISZERO PUSH2 0x7DC JUMPI DUP1 PUSH1 0x1F LT PUSH2 0x7B1 JUMPI PUSH2 0x100 DUP1 DUP4 SLOAD DIV MUL DUP4 MSTORE SWAP2 PUSH1 0x20 ADD SWAP2 PUSH2 0x7DC JUMP JUMPDEST DUP3 ADD SWAP2 SWAP1 PUSH1 0x0 MSTORE PUSH1 0x20 PUSH1 0x0 KECCAK256 SWAP1 JUMPDEST DUP2 SLOAD DUP2 MSTORE SWAP1 PUSH1 0x1 ADD SWAP1 PUSH1 0x20 ADD DUP1 DUP4 GT PUSH2 0x7BF JUMPI DUP3 SWAP1 SUB PUSH1 0x1F AND DUP3 ADD SWAP2 JUMPDEST POP POP POP POP PUSH1 0x3 DUP4 ADD SLOAD PUSH1 0x4 SWAP1 SWAP4 ADD SLOAD SWAP2 SWAP3 PUSH1 0xFF AND SWAP2 SWAP1 POP DUP6 JUMP JUMPDEST PUSH1 0x60 PUSH1 0x0 DUP1 SLOAD DUP1 PUSH1 0x20 MUL PUSH1 0x20 ADD PUSH1 0x40 MLOAD SWAP1 DUP2 ADD PUSH1 0x40 MSTORE DUP1 SWAP3 SWAP2 SWAP1 DUP2 DUP2 MSTORE PUSH1 0x20 ADD DUP3 DUP1 SLOAD DUP1 ISZERO PUSH2 0x84E JUMPI PUSH1 0x20 MUL DUP3 ADD SWAP2 SWAP1 PUSH1 0x0 MSTORE PUSH1 0x20 PUSH1 0x0 KECCAK256 SWAP1 JUMPDEST DUP2 SLOAD PUSH1 0x1 PUSH1 0x1 PUSH1 0xA0 SHL SUB AND DUP2 MSTORE PUSH1 0x1 SWAP1 SWAP2 ADD SWAP1 PUSH1 0x20 ADD DUP1 DUP4 GT PUSH2 0x830 JUMPI JUMPDEST POP POP POP POP POP SWAP1 POP SWAP1 JUMP JUMPDEST PUSH2 0x879 PUSH1 0x40 MLOAD DUP1 PUSH1 0x60 ADD PUSH1 0x40 MSTORE DUP1 PUSH1 0x21 DUP2 MSTORE PUSH1 0x20 ADD PUSH2 0x19A6 PUSH1 0x21 SWAP2 CODECOPY PUSH2 0x107A JUMP JUMPDEST CALLER PUSH1 0x0 SWAP1 DUP2 MSTORE PUSH1 0x1 PUSH1 0x20 MSTORE PUSH1 0x40 SWAP1 KECCAK256 SLOAD PUSH1 0xFF AND PUSH2 0x8A8 JUMPI PUSH1 0x40 MLOAD PUSH3 0x461BCD PUSH1 0xE5 SHL DUP2 MSTORE PUSH1 0x4 ADD PUSH2 0x3D5 SWAP1 PUSH2 0x149F JUMP JUMPDEST DUP1 PUSH2 0x8CB PUSH1 0x40 MLOAD DUP1 PUSH1 0x60 ADD PUSH1 0x40 MSTORE DUP1 PUSH1 0x23 DUP2 MSTORE PUSH1 0x20 ADD PUSH2 0x16D7 PUSH1 0x23 SWAP2 CODECOPY DUP3 PUSH2 0x312 JUMP JUMPDEST PUSH1 0x4 SLOAD DUP2 LT PUSH2 0x8EC JUMPI PUSH1 0x40 MLOAD PUSH3 0x461BCD PUSH1 0xE5 SHL DUP2 MSTORE PUSH1 0x4 ADD PUSH2 0x3D5 SWAP1 PUSH2 0x14C2 JUMP JUMPDEST DUP2 PUSH2 0x90F PUSH1 0x40 MLOAD DUP1 PUSH1 0x60 ADD PUSH1 0x40 MSTORE DUP1 PUSH1 0x26 DUP2 MSTORE PUSH1 0x20 ADD PUSH2 0x1A15 PUSH1 0x26 SWAP2 CODECOPY DUP3 PUSH2 0x312 JUMP JUMPDEST PUSH1 0x4 DUP2 DUP2 SLOAD DUP2 LT PUSH2 0x922 JUMPI PUSH2 0x922 PUSH2 0x14ED JUMP JUMPDEST PUSH1 0x0 SWAP2 DUP3 MSTORE PUSH1 0x20 SWAP1 SWAP2 KECCAK256 PUSH1 0x3 PUSH1 0x5 SWAP1 SWAP3 MUL ADD ADD SLOAD PUSH1 0xFF AND ISZERO PUSH2 0x956 JUMPI PUSH1 0x40 MLOAD PUSH3 0x461BCD PUSH1 0xE5 SHL DUP2 MSTORE PUSH1 0x4 ADD PUSH2 0x3D5 SWAP1 PUSH2 0x1503 JUMP JUMPDEST DUP3 PUSH2 0x979 PUSH1 0x40 MLOAD DUP1 PUSH1 0x60 ADD PUSH1 0x40 MSTORE DUP1 PUSH1 0x27 DUP2 MSTORE PUSH1 0x20 ADD PUSH2 0x1721 PUSH1 0x27 SWAP2 CODECOPY DUP3 PUSH2 0x312 JUMP JUMPDEST PUSH1 0x0 DUP2 DUP2 MSTORE PUSH1 0x3 PUSH1 0x20 SWAP1 DUP2 MSTORE PUSH1 0x40 DUP1 DUP4 KECCAK256 CALLER DUP5 MSTORE SWAP1 SWAP2 MSTORE SWAP1 KECCAK256 SLOAD PUSH1 0xFF AND ISZERO PUSH2 0x9DA JUMPI PUSH1 0x40 MLOAD PUSH3 0x461BCD PUSH1 0xE5 SHL DUP2 MSTORE PUSH1 0x20 PUSH1 0x4 DUP3 ADD MSTORE PUSH1 0x14 PUSH1 0x24 DUP3 ADD MSTORE PUSH20 0x1D1E08185B1C9958591E4818DBDB999A5C9B5959 PUSH1 0x62 SHL PUSH1 0x44 DUP3 ADD MSTORE PUSH1 0x64 ADD PUSH2 0x3D5 JUMP JUMPDEST PUSH2 0x9FC PUSH1 0x40 MLOAD DUP1 PUSH1 0x60 ADD PUSH1 0x40 MSTORE DUP1 PUSH1 0x2D DUP2 MSTORE PUSH1 0x20 ADD PUSH2 0x176B PUSH1 0x2D SWAP2 CODECOPY DUP6 PUSH2 0x312 JUMP JUMPDEST PUSH1 0x0 PUSH1 0x4 DUP6 DUP2 SLOAD DUP2 LT PUSH2 0xA11 JUMPI PUSH2 0xA11 PUSH2 0x14ED JUMP JUMPDEST SWAP1 PUSH1 0x0 MSTORE PUSH1 0x20 PUSH1 0x0 KECCAK256 SWAP1 PUSH1 0x5 MUL ADD SWAP1 POP PUSH1 0x1 DUP2 PUSH1 0x4 ADD PUSH1 0x0 DUP3 DUP3 SLOAD PUSH2 0xA36 SWAP2 SWAP1 PUSH2 0x1597 JUMP JUMPDEST SWAP1 SWAP2 SSTORE POP POP PUSH1 0x0 DUP6 DUP2 MSTORE PUSH1 0x3 PUSH1 0x20 SWAP1 DUP2 MSTORE PUSH1 0x40 DUP1 DUP4 KECCAK256 CALLER DUP1 DUP6 MSTORE SWAP3 MSTORE DUP1 DUP4 KECCAK256 DUP1 SLOAD PUSH1 0xFF NOT AND PUSH1 0x1 OR SWAP1 SSTORE MLOAD DUP8 SWAP3 PUSH32 0x5CBE105E36805F7820E291F799D5794FF948AF2A5F664E580382DEFB63390041 SWAP2 LOG3 PUSH2 0xAA9 PUSH1 0x40 MLOAD DUP1 PUSH1 0x60 ADD PUSH1 0x40 MSTORE DUP1 PUSH1 0x36 DUP2 MSTORE PUSH1 0x20 ADD PUSH2 0x189A PUSH1 0x36 SWAP2 CODECOPY DUP7 CALLER PUSH2 0x10DA JUMP JUMPDEST POP PUSH2 0xACC PUSH1 0x40 MLOAD DUP1 PUSH1 0x60 ADD PUSH1 0x40 MSTORE DUP1 PUSH1 0x27 DUP2 MSTORE PUSH1 0x20 ADD PUSH2 0x16FA PUSH1 0x27 SWAP2 CODECOPY DUP3 PUSH2 0x312 JUMP JUMPDEST POP PUSH2 0x5DA PUSH1 0x40 MLOAD DUP1 PUSH1 0x60 ADD PUSH1 0x40 MSTORE DUP1 PUSH1 0x26 DUP2 MSTORE PUSH1 0x20 ADD PUSH2 0x18FD PUSH1 0x26 SWAP2 CODECOPY DUP3 PUSH2 0x312 JUMP JUMPDEST PUSH2 0xB10 PUSH1 0x40 MLOAD DUP1 PUSH1 0x60 ADD PUSH1 0x40 MSTORE DUP1 PUSH1 0x21 DUP2 MSTORE PUSH1 0x20 ADD PUSH2 0x19A6 PUSH1 0x21 SWAP2 CODECOPY PUSH2 0x107A JUMP JUMPDEST CALLER PUSH1 0x0 SWAP1 DUP2 MSTORE PUSH1 0x1 PUSH1 0x20 MSTORE PUSH1 0x40 SWAP1 KECCAK256 SLOAD PUSH1 0xFF AND PUSH2 0xB3F JUMPI PUSH1 0x40 MLOAD PUSH3 0x461BCD PUSH1 0xE5 SHL DUP2 MSTORE PUSH1 0x4 ADD PUSH2 0x3D5 SWAP1 PUSH2 0x149F JUMP JUMPDEST PUSH1 0x4 DUP1 SLOAD PUSH1 0x40 DUP1 MLOAD PUSH1 0xA0 DUP2 ADD DUP3 MSTORE PUSH1 0x1 PUSH1 0x1 PUSH1 0xA0 SHL SUB DUP8 DUP2 AND DUP3 MSTORE PUSH1 0x20 DUP1 DUP4 ADD DUP9 DUP2 MSTORE SWAP4 DUP4 ADD DUP8 DUP2 MSTORE PUSH1 0x0 PUSH1 0x60 DUP6 ADD DUP2 SWAP1 MSTORE PUSH1 0x80 DUP6 ADD DUP2 SWAP1 MSTORE PUSH1 0x1 DUP8 ADD DUP9 SSTORE SWAP7 SWAP1 SWAP7 MSTORE DUP3 MLOAD PUSH32 0x8A35ACFBC15FF81A39AE7D344FD709F28E8600B4AA8C65C6B64BFE7FE36BD19B PUSH1 0x5 DUP8 MUL SWAP1 DUP2 ADD DUP1 SLOAD PUSH1 0x1 PUSH1 0x1 PUSH1 0xA0 SHL SUB NOT AND SWAP3 SWAP1 SWAP5 AND SWAP2 SWAP1 SWAP2 OR DUP4 SSTORE SWAP4 MLOAD PUSH32 0x8A35ACFBC15FF81A39AE7D344FD709F28E8600B4AA8C65C6B64BFE7FE36BD19C DUP6 ADD SSTORE SWAP5 MLOAD DUP1 MLOAD SWAP5 SWAP6 SWAP3 SWAP5 SWAP2 SWAP4 PUSH2 0xC23 SWAP4 PUSH32 0x8A35ACFBC15FF81A39AE7D344FD709F28E8600B4AA8C65C6B64BFE7FE36BD19D SWAP1 SWAP2 ADD SWAP3 SWAP2 ADD SWAP1 PUSH2 0x11AB JUMP JUMPDEST POP PUSH1 0x60 DUP3 ADD MLOAD PUSH1 0x3 DUP3 ADD DUP1 SLOAD PUSH1 0xFF NOT AND SWAP2 ISZERO ISZERO SWAP2 SWAP1 SWAP2 OR SWAP1 SSTORE PUSH1 0x80 SWAP1 SWAP2 ADD MLOAD PUSH1 0x4 SWAP1 SWAP2 ADD SSTORE PUSH1 0x40 MLOAD PUSH1 0x1 PUSH1 0x1 PUSH1 0xA0 SHL SUB DUP6 AND SWAP1 DUP3 SWAP1 CALLER SWAP1 PUSH32 0xD5A05BF70715AD82A09A756320284A1B54C9FF74CD0F8CCE6219E79B563FE59D SWAP1 PUSH2 0xC89 SWAP1 DUP9 SWAP1 DUP9 SWAP1 PUSH2 0x15AF JUMP JUMPDEST PUSH1 0x40 MLOAD DUP1 SWAP2 SUB SWAP1 LOG4 PUSH2 0xCB4 PUSH1 0x40 MLOAD DUP1 PUSH1 0x60 ADD PUSH1 0x40 MSTORE DUP1 PUSH1 0x3D DUP2 MSTORE PUSH1 0x20 ADD PUSH2 0x1923 PUSH1 0x3D SWAP2 CODECOPY DUP3 DUP4 PUSH2 0x1121 JUMP JUMPDEST POP PUSH2 0xCD6 PUSH1 0x40 MLOAD DUP1 PUSH1 0x60 ADD PUSH1 0x40 MSTORE DUP1 PUSH1 0x21 DUP2 MSTORE PUSH1 0x20 ADD PUSH2 0x19C7 PUSH1 0x21 SWAP2 CODECOPY PUSH2 0x107A JUMP JUMPDEST POP POP POP JUMP JUMPDEST PUSH2 0xCFC PUSH1 0x40 MLOAD DUP1 PUSH1 0x60 ADD PUSH1 0x40 MSTORE DUP1 PUSH1 0x21 DUP2 MSTORE PUSH1 0x20 ADD PUSH2 0x19A6 PUSH1 0x21 SWAP2 CODECOPY PUSH2 0x107A JUMP JUMPDEST CALLER PUSH1 0x0 SWAP1 DUP2 MSTORE PUSH1 0x1 PUSH1 0x20 MSTORE PUSH1 0x40 SWAP1 KECCAK256 SLOAD PUSH1 0xFF AND PUSH2 0xD2B JUMPI PUSH1 0x40 MLOAD PUSH3 0x461BCD PUSH1 0xE5 SHL DUP2 MSTORE PUSH1 0x4 ADD PUSH2 0x3D5 SWAP1 PUSH2 0x149F JUMP JUMPDEST DUP1 PUSH2 0xD4E PUSH1 0x40 MLOAD DUP1 PUSH1 0x60 ADD PUSH1 0x40 MSTORE DUP1 PUSH1 0x23 DUP2 MSTORE PUSH1 0x20 ADD PUSH2 0x16D7 PUSH1 0x23 SWAP2 CODECOPY DUP3 PUSH2 0x312 JUMP JUMPDEST PUSH1 0x4 SLOAD DUP2 LT PUSH2 0xD6F JUMPI PUSH1 0x40 MLOAD PUSH3 0x461BCD PUSH1 0xE5 SHL DUP2 MSTORE PUSH1 0x4 ADD PUSH2 0x3D5 SWAP1 PUSH2 0x14C2 JUMP JUMPDEST DUP2 PUSH2 0xD92 PUSH1 0x40 MLOAD DUP1 PUSH1 0x60 ADD PUSH1 0x40 MSTORE DUP1 PUSH1 0x26 DUP2 MSTORE PUSH1 0x20 ADD PUSH2 0x1A15 PUSH1 0x26 SWAP2 CODECOPY DUP3 PUSH2 0x312 JUMP JUMPDEST PUSH1 0x4 DUP2 DUP2 SLOAD DUP2 LT PUSH2 0xDA5 JUMPI PUSH2 0xDA5 PUSH2 0x14ED JUMP JUMPDEST PUSH1 0x0 SWAP2 DUP3 MSTORE PUSH1 0x20 SWAP1 SWAP2 KECCAK256 PUSH1 0x3 PUSH1 0x5 SWAP1 SWAP3 MUL ADD ADD SLOAD PUSH1 0xFF AND ISZERO PUSH2 0xDD9 JUMPI PUSH1 0x40 MLOAD PUSH3 0x461BCD PUSH1 0xE5 SHL DUP2 MSTORE PUSH1 0x4 ADD PUSH2 0x3D5 SWAP1 PUSH2 0x1503 JUMP JUMPDEST PUSH2 0xDFB PUSH1 0x40 MLOAD DUP1 PUSH1 0x60 ADD PUSH1 0x40 MSTORE DUP1 PUSH1 0x2D DUP2 MSTORE PUSH1 0x20 ADD PUSH2 0x186D PUSH1 0x2D SWAP2 CODECOPY DUP5 PUSH2 0x312 JUMP JUMPDEST PUSH1 0x0 PUSH1 0x4 DUP5 DUP2 SLOAD DUP2 LT PUSH2 0xE10 JUMPI PUSH2 0xE10 PUSH2 0x14ED JUMP JUMPDEST SWAP1 PUSH1 0x0 MSTORE PUSH1 0x20 PUSH1 0x0 KECCAK256 SWAP1 PUSH1 0x5 MUL ADD SWAP1 POP PUSH1 0x2 SLOAD DUP2 PUSH1 0x4 ADD SLOAD LT ISZERO PUSH2 0xE6A JUMPI PUSH1 0x40 MLOAD PUSH3 0x461BCD PUSH1 0xE5 SHL DUP2 MSTORE PUSH1 0x20 PUSH1 0x4 DUP3 ADD MSTORE PUSH1 0x11 PUSH1 0x24 DUP3 ADD MSTORE PUSH17 0xC6C2DCDCDEE840CAF0CAC6EAE8CA40E8F PUSH1 0x7B SHL PUSH1 0x44 DUP3 ADD MSTORE PUSH1 0x64 ADD PUSH2 0x3D5 JUMP JUMPDEST PUSH1 0x3 DUP2 ADD DUP1 SLOAD PUSH1 0xFF NOT AND PUSH1 0x1 OR SWAP1 SSTORE PUSH1 0x40 DUP1 MLOAD PUSH1 0x60 DUP2 ADD SWAP1 SWAP2 MSTORE PUSH1 0x3D DUP1 DUP3 MSTORE PUSH2 0xE9D SWAP2 SWAP1 PUSH2 0x1830 PUSH1 0x20 DUP4 ADD CODECOPY DUP6 SELFBALANCE PUSH2 0x1121 JUMP JUMPDEST PUSH2 0xEC4 PUSH1 0x40 MLOAD DUP1 PUSH1 0x80 ADD PUSH1 0x40 MSTORE DUP1 PUSH1 0x46 DUP2 MSTORE PUSH1 0x20 ADD PUSH2 0x1960 PUSH1 0x46 SWAP2 CODECOPY DUP6 DUP4 PUSH1 0x1 ADD SLOAD PUSH2 0x1121 JUMP JUMPDEST PUSH2 0xF59 DUP2 PUSH1 0x2 ADD DUP1 SLOAD PUSH2 0xED6 SWAP1 PUSH2 0x155D JUMP JUMPDEST DUP1 PUSH1 0x1F ADD PUSH1 0x20 DUP1 SWAP2 DIV MUL PUSH1 0x20 ADD PUSH1 0x40 MLOAD SWAP1 DUP2 ADD PUSH1 0x40 MSTORE DUP1 SWAP3 SWAP2 SWAP1 DUP2 DUP2 MSTORE PUSH1 0x20 ADD DUP3 DUP1 SLOAD PUSH2 0xF02 SWAP1 PUSH2 0x155D JUMP JUMPDEST DUP1 ISZERO PUSH2 0xF4F JUMPI DUP1 PUSH1 0x1F LT PUSH2 0xF24 JUMPI PUSH2 0x100 DUP1 DUP4 SLOAD DIV MUL DUP4 MSTORE SWAP2 PUSH1 0x20 ADD SWAP2 PUSH2 0xF4F JUMP JUMPDEST DUP3 ADD SWAP2 SWAP1 PUSH1 0x0 MSTORE PUSH1 0x20 PUSH1 0x0 KECCAK256 SWAP1 JUMPDEST DUP2 SLOAD DUP2 MSTORE SWAP1 PUSH1 0x1 ADD SWAP1 PUSH1 0x20 ADD DUP1 DUP4 GT PUSH2 0xF32 JUMPI DUP3 SWAP1 SUB PUSH1 0x1F AND DUP3 ADD SWAP2 JUMPDEST POP POP POP POP POP PUSH2 0x1168 JUMP JUMPDEST DUP1 SLOAD PUSH1 0x40 MLOAD PUSH1 0x0 SWAP2 DUP3 SWAP2 PUSH1 0x1 PUSH1 0x1 PUSH1 0xA0 SHL SUB SWAP1 SWAP2 AND SWAP1 PUSH2 0xF7D SWAP1 PUSH1 0x2 DUP7 ADD SWAP1 PUSH2 0x15D0 JUMP JUMPDEST PUSH1 0x0 PUSH1 0x40 MLOAD DUP1 DUP4 SUB DUP2 PUSH1 0x0 DUP7 GAS CALL SWAP2 POP POP RETURNDATASIZE DUP1 PUSH1 0x0 DUP2 EQ PUSH2 0xFBA JUMPI PUSH1 0x40 MLOAD SWAP2 POP PUSH1 0x1F NOT PUSH1 0x3F RETURNDATASIZE ADD AND DUP3 ADD PUSH1 0x40 MSTORE RETURNDATASIZE DUP3 MSTORE RETURNDATASIZE PUSH1 0x0 PUSH1 0x20 DUP5 ADD RETURNDATACOPY PUSH2 0xFBF JUMP JUMPDEST PUSH1 0x60 SWAP2 POP JUMPDEST POP SWAP2 POP SWAP2 POP DUP2 PUSH2 0xFFD JUMPI PUSH1 0x40 MLOAD PUSH3 0x461BCD PUSH1 0xE5 SHL DUP2 MSTORE PUSH1 0x20 PUSH1 0x4 DUP3 ADD MSTORE PUSH1 0x9 PUSH1 0x24 DUP3 ADD MSTORE PUSH9 0x1D1E0819985A5B1959 PUSH1 0xBA SHL PUSH1 0x44 DUP3 ADD MSTORE PUSH1 0x64 ADD PUSH2 0x3D5 JUMP JUMPDEST PUSH2 0x101F PUSH1 0x40 MLOAD DUP1 PUSH1 0x80 ADD PUSH1 0x40 MSTORE DUP1 PUSH1 0x45 DUP2 MSTORE PUSH1 0x20 ADD PUSH2 0x17C1 PUSH1 0x45 SWAP2 CODECOPY DUP8 PUSH2 0x312 JUMP JUMPDEST PUSH2 0x1028 DUP2 PUSH2 0x1168 JUMP JUMPDEST PUSH1 0x40 MLOAD DUP7 SWAP1 CALLER SWAP1 PUSH32 0x5445F318F4F5FCFB66592E68E0CC5822AA15664039BD5F0FFDE24C5A8142B1AC SWAP1 PUSH1 0x0 SWAP1 LOG3 POP POP POP PUSH2 0x5DA PUSH1 0x40 MLOAD DUP1 PUSH1 0x60 ADD PUSH1 0x40 MSTORE DUP1 PUSH1 0x26 DUP2 MSTORE PUSH1 0x20 ADD PUSH2 0x18FD PUSH1 0x26 SWAP2 CODECOPY DUP3 PUSH2 0x312 JUMP JUMPDEST PUSH2 0x61F DUP2 PUSH1 0x40 MLOAD PUSH1 0x24 ADD PUSH2 0x108E SWAP2 SWAP1 PUSH2 0x166B JUMP JUMPDEST PUSH1 0x40 DUP1 MLOAD PUSH1 0x1F NOT DUP2 DUP5 SUB ADD DUP2 MSTORE SWAP2 SWAP1 MSTORE PUSH1 0x20 DUP2 ADD DUP1 MLOAD PUSH1 0x1 PUSH1 0x1 PUSH1 0xE0 SHL SUB AND PUSH4 0x104C13EB PUSH1 0xE2 SHL OR SWAP1 MSTORE JUMPDEST DUP1 MLOAD PUSH11 0x636F6E736F6C652E6C6F67 PUSH1 0x20 DUP4 ADD PUSH1 0x0 DUP1 DUP5 DUP4 DUP6 GAS STATICCALL POP POP POP POP POP JUMP JUMPDEST PUSH2 0xCD6 DUP4 DUP4 DUP4 PUSH1 0x40 MLOAD PUSH1 0x24 ADD PUSH2 0x10F2 SWAP4 SWAP3 SWAP2 SWAP1 PUSH2 0x167E JUMP JUMPDEST PUSH1 0x40 DUP1 MLOAD PUSH1 0x1F NOT DUP2 DUP5 SUB ADD DUP2 MSTORE SWAP2 SWAP1 MSTORE PUSH1 0x20 DUP2 ADD DUP1 MLOAD PUSH1 0x1 PUSH1 0x1 PUSH1 0xE0 SHL SUB AND PUSH4 0xE3849F79 PUSH1 0xE0 SHL OR SWAP1 MSTORE PUSH2 0x10B9 JUMP JUMPDEST PUSH2 0xCD6 DUP4 DUP4 DUP4 PUSH1 0x40 MLOAD PUSH1 0x24 ADD PUSH2 0x1139 SWAP4 SWAP3 SWAP2 SWAP1 PUSH2 0x16B1 JUMP JUMPDEST PUSH1 0x40 DUP1 MLOAD PUSH1 0x1F NOT DUP2 DUP5 SUB ADD DUP2 MSTORE SWAP2 SWAP1 MSTORE PUSH1 0x20 DUP2 ADD DUP1 MLOAD PUSH1 0x1 PUSH1 0x1 PUSH1 0xE0 SHL SUB AND PUSH4 0x969CDD03 PUSH1 0xE0 SHL OR SWAP1 MSTORE PUSH2 0x10B9 JUMP JUMPDEST PUSH2 0x61F DUP2 PUSH1 0x40 MLOAD PUSH1 0x24 ADD PUSH2 0x117C SWAP2 SWAP1 PUSH2 0x166B JUMP JUMPDEST PUSH1 0x40 DUP1 MLOAD PUSH1 0x1F NOT DUP2 DUP5 SUB ADD DUP2 MSTORE SWAP2 SWAP1 MSTORE PUSH1 0x20 DUP2 ADD DUP1 MLOAD PUSH1 0x1 PUSH1 0x1 PUSH1 0xE0 SHL SUB AND PUSH4 0x5F3BFAB PUSH1 0xE1 SHL OR SWAP1 MSTORE PUSH2 0x10B9 JUMP JUMPDEST DUP3 DUP1 SLOAD PUSH2 0x11B7 SWAP1 PUSH2 0x155D JUMP JUMPDEST SWAP1 PUSH1 0x0 MSTORE PUSH1 0x20 PUSH1 0x0 KECCAK256 SWAP1 PUSH1 0x1F ADD PUSH1 0x20 SWAP1 DIV DUP2 ADD SWAP3 DUP3 PUSH2 0x11D9 JUMPI PUSH1 0x0 DUP6 SSTORE PUSH2 0x121F JUMP JUMPDEST DUP3 PUSH1 0x1F LT PUSH2 0x11F2 JUMPI DUP1 MLOAD PUSH1 0xFF NOT AND DUP4 DUP1 ADD OR DUP6 SSTORE PUSH2 0x121F JUMP JUMPDEST DUP3 DUP1 ADD PUSH1 0x1 ADD DUP6 SSTORE DUP3 ISZERO PUSH2 0x121F JUMPI SWAP2 DUP3 ADD JUMPDEST DUP3 DUP2 GT ISZERO PUSH2 0x121F JUMPI DUP3 MLOAD DUP3 SSTORE SWAP2 PUSH1 0x20 ADD SWAP2 SWAP1 PUSH1 0x1 ADD SWAP1 PUSH2 0x1204 JUMP JUMPDEST POP PUSH2 0x122B SWAP3 SWAP2 POP PUSH2 0x122F JUMP JUMPDEST POP SWAP1 JUMP JUMPDEST JUMPDEST DUP1 DUP3 GT ISZERO PUSH2 0x122B JUMPI PUSH1 0x0 DUP2 SSTORE PUSH1 0x1 ADD PUSH2 0x1230 JUMP JUMPDEST PUSH1 0x0 PUSH1 0x20 DUP3 DUP5 SUB SLT ISZERO PUSH2 0x1256 JUMPI PUSH1 0x0 DUP1 REVERT JUMPDEST POP CALLDATALOAD SWAP2 SWAP1 POP JUMP JUMPDEST DUP1 CALLDATALOAD PUSH1 0x1 PUSH1 0x1 PUSH1 0xA0 SHL SUB DUP2 AND DUP2 EQ PUSH2 0x1274 JUMPI PUSH1 0x0 DUP1 REVERT JUMPDEST SWAP2 SWAP1 POP JUMP JUMPDEST PUSH1 0x0 PUSH1 0x20 DUP3 DUP5 SUB SLT ISZERO PUSH2 0x128B JUMPI PUSH1 0x0 DUP1 REVERT JUMPDEST PUSH2 0x1294 DUP3 PUSH2 0x125D JUMP JUMPDEST SWAP4 SWAP3 POP POP POP JUMP JUMPDEST PUSH1 0x0 DUP2 MLOAD DUP1 DUP5 MSTORE PUSH1 0x0 JUMPDEST DUP2 DUP2 LT ISZERO PUSH2 0x12C1 JUMPI PUSH1 0x20 DUP2 DUP6 ADD DUP2 ADD MLOAD DUP7 DUP4 ADD DUP3 ADD MSTORE ADD PUSH2 0x12A5 JUMP JUMPDEST DUP2 DUP2 GT ISZERO PUSH2 0x12D3 JUMPI PUSH1 0x0 PUSH1 0x20 DUP4 DUP8 ADD ADD MSTORE JUMPDEST POP PUSH1 0x1F ADD PUSH1 0x1F NOT AND SWAP3 SWAP1 SWAP3 ADD PUSH1 0x20 ADD SWAP3 SWAP2 POP POP JUMP JUMPDEST PUSH1 0x1 DUP1 PUSH1 0xA0 SHL SUB DUP7 AND DUP2 MSTORE DUP5 PUSH1 0x20 DUP3 ADD MSTORE PUSH1 0xA0 PUSH1 0x40 DUP3 ADD MSTORE PUSH1 0x0 PUSH2 0x130F PUSH1 0xA0 DUP4 ADD DUP7 PUSH2 0x129B JUMP JUMPDEST SWAP4 ISZERO ISZERO PUSH1 0x60 DUP4 ADD MSTORE POP PUSH1 0x80 ADD MSTORE SWAP4 SWAP3 POP POP POP JUMP JUMPDEST PUSH1 0x0 DUP1 PUSH1 0x40 DUP4 DUP6 SUB SLT ISZERO PUSH2 0x1336 JUMPI PUSH1 0x0 DUP1 REVERT JUMPDEST DUP3 CALLDATALOAD SWAP2 POP PUSH2 0x1346 PUSH1 0x20 DUP5 ADD PUSH2 0x125D JUMP JUMPDEST SWAP1 POP SWAP3 POP SWAP3 SWAP1 POP JUMP JUMPDEST PUSH1 0x20 DUP1 DUP3 MSTORE DUP3 MLOAD DUP3 DUP3 ADD DUP2 SWAP1 MSTORE PUSH1 0x0 SWAP2 SWAP1 DUP5 DUP3 ADD SWAP1 PUSH1 0x40 DUP6 ADD SWAP1 DUP5 JUMPDEST DUP2 DUP2 LT ISZERO PUSH2 0x1390 JUMPI DUP4 MLOAD PUSH1 0x1 PUSH1 0x1 PUSH1 0xA0 SHL SUB AND DUP4 MSTORE SWAP3 DUP5 ADD SWAP3 SWAP2 DUP5 ADD SWAP2 PUSH1 0x1 ADD PUSH2 0x136B JUMP JUMPDEST POP SWAP1 SWAP7 SWAP6 POP POP POP POP POP POP JUMP JUMPDEST PUSH4 0x4E487B71 PUSH1 0xE0 SHL PUSH1 0x0 MSTORE PUSH1 0x41 PUSH1 0x4 MSTORE PUSH1 0x24 PUSH1 0x0 REVERT JUMPDEST PUSH1 0x0 DUP1 PUSH1 0x0 PUSH1 0x60 DUP5 DUP7 SUB SLT ISZERO PUSH2 0x13C7 JUMPI PUSH1 0x0 DUP1 REVERT JUMPDEST PUSH2 0x13D0 DUP5 PUSH2 0x125D JUMP JUMPDEST SWAP3 POP PUSH1 0x20 DUP5 ADD CALLDATALOAD SWAP2 POP PUSH1 0x40 DUP5 ADD CALLDATALOAD PUSH8 0xFFFFFFFFFFFFFFFF DUP1 DUP3 GT ISZERO PUSH2 0x13F4 JUMPI PUSH1 0x0 DUP1 REVERT JUMPDEST DUP2 DUP7 ADD SWAP2 POP DUP7 PUSH1 0x1F DUP4 ADD SLT PUSH2 0x1408 JUMPI PUSH1 0x0 DUP1 REVERT JUMPDEST DUP2 CALLDATALOAD DUP2 DUP2 GT ISZERO PUSH2 0x141A JUMPI PUSH2 0x141A PUSH2 0x139C JUMP JUMPDEST PUSH1 0x40 MLOAD PUSH1 0x1F DUP3 ADD PUSH1 0x1F NOT SWAP1 DUP2 AND PUSH1 0x3F ADD AND DUP2 ADD SWAP1 DUP4 DUP3 GT DUP2 DUP4 LT OR ISZERO PUSH2 0x1442 JUMPI PUSH2 0x1442 PUSH2 0x139C JUMP JUMPDEST DUP2 PUSH1 0x40 MSTORE DUP3 DUP2 MSTORE DUP10 PUSH1 0x20 DUP5 DUP8 ADD ADD GT ISZERO PUSH2 0x145B JUMPI PUSH1 0x0 DUP1 REVERT JUMPDEST DUP3 PUSH1 0x20 DUP7 ADD PUSH1 0x20 DUP4 ADD CALLDATACOPY PUSH1 0x0 PUSH1 0x20 DUP5 DUP4 ADD ADD MSTORE DUP1 SWAP6 POP POP POP POP POP POP SWAP3 POP SWAP3 POP SWAP3 JUMP JUMPDEST PUSH1 0x40 DUP2 MSTORE PUSH1 0x0 PUSH2 0x1490 PUSH1 0x40 DUP4 ADD DUP6 PUSH2 0x129B JUMP JUMPDEST SWAP1 POP DUP3 PUSH1 0x20 DUP4 ADD MSTORE SWAP4 SWAP3 POP POP POP JUMP JUMPDEST PUSH1 0x20 DUP1 DUP3 MSTORE PUSH1 0x9 SWAP1 DUP3 ADD MSTORE PUSH9 0x3737BA1037BBB732B9 PUSH1 0xB9 SHL PUSH1 0x40 DUP3 ADD MSTORE PUSH1 0x60 ADD SWAP1 JUMP JUMPDEST PUSH1 0x20 DUP1 DUP3 MSTORE PUSH1 0x11 SWAP1 DUP3 ADD MSTORE PUSH17 0x1D1E08191BD95CC81B9BDD08195E1A5CDD PUSH1 0x7A SHL PUSH1 0x40 DUP3 ADD MSTORE PUSH1 0x60 ADD SWAP1 JUMP JUMPDEST PUSH4 0x4E487B71 PUSH1 0xE0 SHL PUSH1 0x0 MSTORE PUSH1 0x32 PUSH1 0x4 MSTORE PUSH1 0x24 PUSH1 0x0 REVERT JUMPDEST PUSH1 0x20 DUP1 DUP3 MSTORE PUSH1 0x13 SWAP1 DUP3 ADD MSTORE PUSH19 0x1D1E08185B1C9958591E48195E1958DD5D1959 PUSH1 0x6A SHL PUSH1 0x40 DUP3 ADD MSTORE PUSH1 0x60 ADD SWAP1 JUMP JUMPDEST PUSH4 0x4E487B71 PUSH1 0xE0 SHL PUSH1 0x0 MSTORE PUSH1 0x11 PUSH1 0x4 MSTORE PUSH1 0x24 PUSH1 0x0 REVERT JUMPDEST PUSH1 0x0 DUP3 DUP3 LT ISZERO PUSH2 0x1558 JUMPI PUSH2 0x1558 PUSH2 0x1530 JUMP JUMPDEST POP SUB SWAP1 JUMP JUMPDEST PUSH1 0x1 DUP2 DUP2 SHR SWAP1 DUP3 AND DUP1 PUSH2 0x1571 JUMPI PUSH1 0x7F DUP3 AND SWAP2 POP JUMPDEST PUSH1 0x20 DUP3 LT DUP2 SUB PUSH2 0x1591 JUMPI PUSH4 0x4E487B71 PUSH1 0xE0 SHL PUSH1 0x0 MSTORE PUSH1 0x22 PUSH1 0x4 MSTORE PUSH1 0x24 PUSH1 0x0 REVERT JUMPDEST POP SWAP2 SWAP1 POP JUMP JUMPDEST PUSH1 0x0 DUP3 NOT DUP3 GT ISZERO PUSH2 0x15AA JUMPI PUSH2 0x15AA PUSH2 0x1530 JUMP JUMPDEST POP ADD SWAP1 JUMP JUMPDEST DUP3 DUP2 MSTORE PUSH1 0x40 PUSH1 0x20 DUP3 ADD MSTORE PUSH1 0x0 PUSH2 0x15C8 PUSH1 0x40 DUP4 ADD DUP5 PUSH2 0x129B JUMP JUMPDEST SWAP5 SWAP4 POP POP POP POP JUMP JUMPDEST PUSH1 0x0 DUP1 DUP4 SLOAD DUP2 PUSH1 0x1 DUP3 DUP2 SHR SWAP2 POP DUP1 DUP4 AND DUP1 PUSH2 0x15EC JUMPI PUSH1 0x7F DUP4 AND SWAP3 POP JUMPDEST PUSH1 0x20 DUP1 DUP5 LT DUP3 SUB PUSH2 0x160B JUMPI PUSH4 0x4E487B71 PUSH1 0xE0 SHL DUP7 MSTORE PUSH1 0x22 PUSH1 0x4 MSTORE PUSH1 0x24 DUP7 REVERT JUMPDEST DUP2 DUP1 ISZERO PUSH2 0x161F JUMPI PUSH1 0x1 DUP2 EQ PUSH2 0x1630 JUMPI PUSH2 0x165D JUMP JUMPDEST PUSH1 0xFF NOT DUP7 AND DUP10 MSTORE DUP5 DUP10 ADD SWAP7 POP PUSH2 0x165D JUMP JUMPDEST PUSH1 0x0 DUP11 DUP2 MSTORE PUSH1 0x20 SWAP1 KECCAK256 PUSH1 0x0 JUMPDEST DUP7 DUP2 LT ISZERO PUSH2 0x1655 JUMPI DUP2 SLOAD DUP12 DUP3 ADD MSTORE SWAP1 DUP6 ADD SWAP1 DUP4 ADD PUSH2 0x163C JUMP JUMPDEST POP POP DUP5 DUP10 ADD SWAP7 POP JUMPDEST POP SWAP5 SWAP9 SWAP8 POP POP POP POP POP POP POP POP JUMP JUMPDEST PUSH1 0x20 DUP2 MSTORE PUSH1 0x0 PUSH2 0x1294 PUSH1 0x20 DUP4 ADD DUP5 PUSH2 0x129B JUMP JUMPDEST PUSH1 0x60 DUP2 MSTORE PUSH1 0x0 PUSH2 0x1691 PUSH1 0x60 DUP4 ADD DUP7 PUSH2 0x129B JUMP JUMPDEST PUSH1 0x20 DUP4 ADD SWAP5 SWAP1 SWAP5 MSTORE POP PUSH1 0x1 PUSH1 0x1 PUSH1 0xA0 SHL SUB SWAP2 SWAP1 SWAP2 AND PUSH1 0x40 SWAP1 SWAP2 ADD MSTORE SWAP2 SWAP1 POP JUMP JUMPDEST PUSH1 0x60 DUP2 MSTORE PUSH1 0x0 PUSH2 0x16C4 PUSH1 0x60 DUP4 ADD DUP7 PUSH2 0x129B JUMP JUMPDEST PUSH1 0x20 DUP4 ADD SWAP5 SWAP1 SWAP5 MSTORE POP PUSH1 0x40 ADD MSTORE SWAP2 SWAP1 POP JUMP INVALID 0x4D PUSH22 0x6C746953696757616C6C65742E747845786973747328 0x23 0x25 PUSH5 0x292063616C PUSH13 0x65644D756C746953696757616C PUSH13 0x65742E6E6F74436F6E6669726D PUSH6 0x642823256429 KECCAK256 PUSH17 0x61737365644D756C746953696757616C6C PUSH6 0x742E6E6F7443 PUSH16 0x6E6669726D656428232564292063616C PUSH13 0x65644D756C746953696757616C PUSH13 0x65742E74784578697374732823 0x25 PUSH5 0x2920706173 PUSH20 0x65644D756C746953696757616C6C65742E636F6E PUSH7 0x69726D5472616E PUSH20 0x616374696F6E28232564292063616C6C65644D75 PUSH13 0x746953696757616C6C65742E72 PUSH6 0x636569766528 0x29 0x2C KECCAK256 PUSH14 0x73672E76616C7565206973202564 0x4D PUSH22 0x6C746953696757616C6C65742E657865637574655472 PUSH2 0x6E73 PUSH2 0x6374 PUSH10 0x6F6E2823256429206166 PUSH21 0x6572206C6F772D6C6576656C2063616C6C2C207265 PUSH21 0x646174613D4D756C746953696757616C6C65742E66 PUSH2 0x6C6C PUSH3 0x61636B 0x28 0x29 0x2C KECCAK256 PUSH14 0x73672E76616C7565206973202564 0x4D PUSH22 0x6C746953696757616C6C65742E657865637574655472 PUSH2 0x6E73 PUSH2 0x6374 PUSH10 0x6F6E282325642920636F PUSH15 0x74726163742062616C616E63652069 PUSH20 0x2025644D756C746953696757616C6C65742E6578 PUSH6 0x637574655472 PUSH2 0x6E73 PUSH2 0x6374 PUSH10 0x6F6E2823256429206361 PUSH13 0x6C65644D756C74695369675761 PUSH13 0x6C65742E636F6E6669726D5472 PUSH2 0x6E73 PUSH2 0x6374 PUSH10 0x6F6E282325642920636F PUSH15 0x6669726D65642062792025734D756C PUSH21 0x6953696757616C6C65742E7265766F6B65436F6E66 PUSH10 0x726D6174696F6E282325 PUSH5 0x2920706173 PUSH20 0x65644D756C746953696757616C6C65742E6E6F74 GASLIMIT PUSH25 0x6563757465642823256429207061737365644D756C74695369 PUSH8 0x57616C6C65742E73 PUSH22 0x626D69745472616E73616374696F6E28232564292C20 PUSH21 0x72616E73616374696F6E2025642063726561746564 0x4D PUSH22 0x6C746953696757616C6C65742E657865637574655472 PUSH2 0x6E73 PUSH2 0x6374 PUSH10 0x6F6E2823256429206C6F PUSH24 0x2D6C6576656C2063616C6C2C2076616C75653D25642C2064 PUSH2 0x7461 RETURNDATASIZE 0x4D PUSH22 0x6C746953696757616C6C65742E6F6E6C794F776E6572 0x28 0x29 KECCAK256 PUSH4 0x616C6C65 PUSH5 0x4D756C7469 MSTORE8 PUSH10 0x6757616C6C65742E6F6E PUSH13 0x794F776E657228292070617373 PUSH6 0x644D756C7469 MSTORE8 PUSH10 0x6757616C6C65742E7265 PUSH23 0x6F6B65436F6E6669726D6174696F6E2823256429206361 PUSH13 0x6C65644D756C74695369675761 PUSH13 0x6C65742E6E6F74457865637574 PUSH6 0x642823256429 KECCAK256 PUSH4 0x616C6C65 PUSH5 0xA264697066 PUSH20 0x58221220E13F7BB38E614B0530D940E491383833 0xAB SWAP4 COINBASE PUSH29 0xB0F0EA77EEC6E4A7A7B5793964736F6C634300080E0033000000000000 ",
  "sha1": "30cccbd29a0a9266a3ff1fdf6e9b96df25b94f18",
  "source": "// SPDX-License-Identifier: MIT\npragma solidity 0.8.14;\n\nimport \"./console.sol\";\n\ncontract MultiSigWallet {\n    event Deposit(address indexed sender, uint256 amount, uint256 balance);\n    event SubmitTransaction(\n        address indexed owner,\n        uint256 indexed txIndex,\n        address indexed to,\n        uint256 value,\n        bytes data\n    );\n    event ConfirmTransaction(address indexed owner, uint256 indexed txIndex);\n    event RevokeConfirmation(address indexed owner, uint256 indexed txIndex);\n    event ExecuteTransaction(address indexed owner, uint256 indexed txIndex);\n\n    address[] public owners;\n\n    mapping(address => bool) public isOwner;\n\n    uint256 public numConfirmationsRequired;\n\n    struct Transaction {\n        address to;\n        uint256 value;\n        bytes data;\n        bool executed;\n        uint256 numConfirmations;\n    }\n\n    // mapping from tx index => owner => bool\n    mapping(uint256 => mapping(address => bool)) public isConfirmed;\n\n    Transaction[] public transactions;\n\n    modifier onlyOwner() {\n        console.log(\"MultiSigWallet.onlyOwner() called\");\n        require(isOwner[msg.sender], \"not owner\");\n        _;\n        console.log(\"MultiSigWallet.onlyOwner() passed\");\n    }\n\n    modifier txExists(uint256 _txIndex) {\n        console.log(\"MultiSigWallet.txExists(#%d) called\", _txIndex);\n        require(_txIndex < transactions.length, \"tx does not exist\");\n        _;\n        console.log(\"MultiSigWallet.txExists(#%d) passed\", _txIndex);\n    }\n\n    modifier notExecuted(uint256 _txIndex) {\n        console.log(\"MultiSigWallet.notExecuted(#%d) called\", _txIndex);\n        require(!transactions[_txIndex].executed, \"tx already executed\");\n        _;\n        console.log(\"MultiSigWallet.notExecuted(#%d) passed\", _txIndex);\n    }\n\n    modifier notConfirmed(uint256 _txIndex) {\n        console.log(\"MultiSigWallet.notConfirmed(#%d) called\", _txIndex);\n        require(!isConfirmed[_txIndex][msg.sender], \"tx already confirmed\");\n        _;\n        console.log(\"MultiSigWallet.notConfirmed(#%d) passed\", _txIndex);\n    }\n\n    constructor(address[] memory _owners, uint256 _numConfirmationsRequired) {\n        console.log(\"MultiSigWallet.constructor() called\");\n        require(_owners.length > 0, \"owners required\");\n        require(\n            _numConfirmationsRequired > 0 &&\n                _numConfirmationsRequired <= _owners.length,\n            \"invalid number of required confirmations\"\n        );\n\n        for (uint256 i = 0; i < _owners.length; i++) {\n            address owner = _owners[i];\n\n            require(owner != address(0), \"invalid owner\");\n            require(!isOwner[owner], \"owner not unique\");\n\n            isOwner[owner] = true;\n            owners.push(owner);\n        }\n\n        numConfirmationsRequired = _numConfirmationsRequired;\n        console.log(\"MultiSigWallet.constructor() passed\");\n    }\n\n    receive() external payable {\n        console.log(\"MultiSigWallet.receive(), msg.value is %d\", msg.value);\n        emit Deposit(msg.sender, msg.value, address(this).balance);\n    }\n\n    fallback() external payable {\n        console.log(\"MultiSigWallet.fallback(), msg.value is %d\", msg.value);\n        emit Deposit(msg.sender, msg.value, address(this).balance);\n    }\n\n    function submitTransaction(\n        address _to,\n        uint256 _value,\n        bytes memory _data\n    ) public onlyOwner {\n        uint256 txIndex = transactions.length;\n\n        transactions.push(\n            Transaction({\n                to: _to,\n                value: _value,\n                data: _data,\n                executed: false,\n                numConfirmations: 0\n            })\n        );\n\n        emit SubmitTransaction(msg.sender, txIndex, _to, _value, _data);\n        console.log(\n            \"MultiSigWallet.submitTransaction(#%d), transaction %d created\",\n            txIndex,\n            txIndex\n        );\n    }\n\n    function confirmTransaction(uint256 _txIndex)\n        public\n        onlyOwner\n        txExists(_txIndex)\n        notExecuted(_txIndex)\n        notConfirmed(_txIndex)\n    {\n        console.log(\"MultiSigWallet.confirmTransaction(#%d) called\", _txIndex);\n        Transaction storage transaction = transactions[_txIndex];\n        transaction.numConfirmations += 1;\n        isConfirmed[_txIndex][msg.sender] = true;\n\n        emit ConfirmTransaction(msg.sender, _txIndex);\n        console.log(\n            \"MultiSigWallet.confirmTransaction(#%d) confirmed by %s\",\n            _txIndex,\n            msg.sender\n        );\n    }\n\n    function executeTransaction(uint256 _txIndex)\n        public\n        onlyOwner\n        txExists(_txIndex)\n        notExecuted(_txIndex)\n    {\n        console.log(\"MultiSigWallet.executeTransaction(#%d) called\", _txIndex);\n        Transaction storage transaction = transactions[_txIndex];\n\n        require(\n            transaction.numConfirmations >= numConfirmationsRequired,\n            \"cannot execute tx\"\n        );\n\n        transaction.executed = true;\n        console.log(\n            \"MultiSigWallet.executeTransaction(#%d) contract balance is %d\",\n            _txIndex,\n            address(this).balance\n        );\n        console.log(\n            \"MultiSigWallet.executeTransaction(#%d) low-level call, value=%d, data=\",\n            _txIndex,\n            transaction.value\n        );\n        console.logBytes(transaction.data);\n        (bool success, bytes memory retdata) = transaction.to.call(\n            transaction.data\n        );\n\n        require(success, \"tx failed\");\n        console.log(\n            \"MultiSigWallet.executeTransaction(#%d) after low-level call, retdata=\",\n            _txIndex\n        );\n        console.logBytes(retdata);\n        emit ExecuteTransaction(msg.sender, _txIndex);\n    }\n\n    function revokeConfirmation(uint256 _txIndex)\n        public\n        onlyOwner\n        txExists(_txIndex)\n        notExecuted(_txIndex)\n    {\n        console.log(\"MultiSigWallet.revokeConfirmation(#%d) called\", _txIndex);\n\n        Transaction storage transaction = transactions[_txIndex];\n\n        require(isConfirmed[_txIndex][msg.sender], \"tx not confirmed\");\n\n        transaction.numConfirmations -= 1;\n        isConfirmed[_txIndex][msg.sender] = false;\n        console.log(\"MultiSigWallet.revokeConfirmation(#%d) passed\", _txIndex);\n        emit RevokeConfirmation(msg.sender, _txIndex);\n    }\n\n    function getOwners() public view returns (address[] memory) {\n        return owners;\n    }\n\n    function getTransactionCount() public view returns (uint256) {\n        return transactions.length;\n    }\n\n    function getTransaction(uint256 _txIndex)\n        public\n        view\n        returns (\n            address to,\n            uint256 value,\n            bytes memory data,\n            bool executed,\n            uint256 numConfirmations\n        )\n    {\n        Transaction storage transaction = transactions[_txIndex];\n\n        return (\n            transaction.to,\n            transaction.value,\n            transaction.data,\n            transaction.executed,\n            transaction.numConfirmations\n        );\n    }\n}\n\ncontract TestContract {\n    uint256 public i;\n\n    fallback() external payable {\n        console.log(\"TestContract.fallback()\");\n    }\n\n    function callMe(uint256 j) public payable {\n        console.log(\"TestContract.callMe(%d) called\", j);\n        i += j;\n    }\n\n    function getData(uint256 j) public pure returns (bytes memory) {\n        return abi.encodeWithSignature(\"callMe(uint256)\", j);\n    }\n}\n",
  "sourcePath": "contracts/Multisig_wallet.sol",
  "type": "contract"
}