{
  "abi": [
    {
      "inputs": [],
      "stateMutability": "payable",
      "type": "constructor"
    },
    {
      "inputs": [
        {
          "internalType": "uint256",
          "name": "amount",
          "type": "uint256"
        },
        {
          "internalType": "uint256",
          "name": "nonce",
          "type": "uint256"
        },
        {
          "internalType": "bytes",
          "name": "signature",
          "type": "bytes"
        }
      ],
      "name": "claimPayment",
      "outputs": [],
      "stateMutability": "nonpayable",
      "type": "function"
    },
    {
      "inputs": [],
      "name": "shutdown",
      "outputs": [],
      "stateMutability": "nonpayable",
      "type": "function"
    }
  ],
  "bytecode": "6080604052600080546001600160a01b03191633179055610354806100256000396000f3fe608060405234801561001057600080fd5b50600436106100365760003560e01c8063a90ae8871461003b578063fc0e74d114610050575b600080fd5b61004e61004936600461025a565b610058565b005b61004e61017c565b60008281526001602052604090205460ff161561007457600080fd5b6000828152600160208181526040808420805460ff191690931790925581516bffffffffffffffffffffffff1933606090811b821683850152603483018990526054830188905230901b166074820152825180820360680181526088820184528051908301207f19457468657265756d205369676e6564204d6573736167653a0a33320000000060a883015260c4808301919091528351808303909101815260e4909101909252815191012090546001600160a01b03166101358284610196565b6001600160a01b03161461014857600080fd5b604051339085156108fc029086906000818181858888f19350505050158015610175573d6000803e3d6000fd5b5050505050565b6000546001600160a01b0316331461019357600080fd5b33ff5b6000806000806101a585610215565b6040805160008152602081018083528b905260ff8516918101919091526060810183905260808101829052929550909350915060019060a0016020604051602081039080840390855afa158015610200573d6000803e3d6000fd5b5050604051601f190151979650505050505050565b6000806000835160411461022857600080fd5b5050506020810151604082015160609092015160001a92909190565b634e487b7160e01b600052604160045260246000fd5b60008060006060848603121561026f57600080fd5b8335925060208401359150604084013567ffffffffffffffff8082111561029557600080fd5b818601915086601f8301126102a957600080fd5b8135818111156102bb576102bb610244565b604051601f8201601f19908116603f011681019083821181831017156102e3576102e3610244565b816040528281528960208487010111156102fc57600080fd5b826020860160208301376000602084830101528095505050505050925092509256fea2646970667358221220f4eb70afad042608ccce4ddf65cb74261930bb2d45a5ceee9319783dd1d6e55364736f6c634300080e0033",
  "bytecodeSha1": "b65d7a407bc0de2d0ab0a5225e8fb5d53eaa8442",
  "compiler": {
    "evm_version": "istanbul",
    "optimizer": {
      "enabled": true,
      "runs": 200
    },
    "version": "0.8.14+commit.80d49f37"
  },
  "contractName": "ReceiverPays",
  "language": "Solidity",
  "natspec": {
    "kind": "dev",
    "methods": {
      "shutdown()": {
        "notice": "destroy the contract and reclaim the leftover funds."
      }
    },
    "version": 1
  },
  "opcodes": "PUSH1 0x80 PUSH1 0x40 MSTORE CALLVALUE DUP1 ISZERO PUSH2 0x10 JUMPI PUSH1 0x0 DUP1 REVERT JUMPDEST POP PUSH1 0x4 CALLDATASIZE LT PUSH2 0x36 JUMPI PUSH1 0x0 CALLDATALOAD PUSH1 0xE0 SHR DUP1 PUSH4 0xA90AE887 EQ PUSH2 0x3B JUMPI DUP1 PUSH4 0xFC0E74D1 EQ PUSH2 0x50 JUMPI JUMPDEST PUSH1 0x0 DUP1 REVERT JUMPDEST PUSH2 0x4E PUSH2 0x49 CALLDATASIZE PUSH1 0x4 PUSH2 0x25A JUMP JUMPDEST PUSH2 0x58 JUMP JUMPDEST STOP JUMPDEST PUSH2 0x4E PUSH2 0x17C JUMP JUMPDEST PUSH1 0x0 DUP3 DUP2 MSTORE PUSH1 0x1 PUSH1 0x20 MSTORE PUSH1 0x40 SWAP1 KECCAK256 SLOAD PUSH1 0xFF AND ISZERO PUSH2 0x74 JUMPI PUSH1 0x0 DUP1 REVERT JUMPDEST PUSH1 0x0 DUP3 DUP2 MSTORE PUSH1 0x1 PUSH1 0x20 DUP2 DUP2 MSTORE PUSH1 0x40 DUP1 DUP5 KECCAK256 DUP1 SLOAD PUSH1 0xFF NOT AND SWAP1 SWAP4 OR SWAP1 SWAP3 SSTORE DUP2 MLOAD PUSH12 0xFFFFFFFFFFFFFFFFFFFFFFFF NOT CALLER PUSH1 0x60 SWAP1 DUP2 SHL DUP3 AND DUP4 DUP6 ADD MSTORE PUSH1 0x34 DUP4 ADD DUP10 SWAP1 MSTORE PUSH1 0x54 DUP4 ADD DUP9 SWAP1 MSTORE ADDRESS SWAP1 SHL AND PUSH1 0x74 DUP3 ADD MSTORE DUP3 MLOAD DUP1 DUP3 SUB PUSH1 0x68 ADD DUP2 MSTORE PUSH1 0x88 DUP3 ADD DUP5 MSTORE DUP1 MLOAD SWAP1 DUP4 ADD KECCAK256 PUSH32 0x19457468657265756D205369676E6564204D6573736167653A0A333200000000 PUSH1 0xA8 DUP4 ADD MSTORE PUSH1 0xC4 DUP1 DUP4 ADD SWAP2 SWAP1 SWAP2 MSTORE DUP4 MLOAD DUP1 DUP4 SUB SWAP1 SWAP2 ADD DUP2 MSTORE PUSH1 0xE4 SWAP1 SWAP2 ADD SWAP1 SWAP3 MSTORE DUP2 MLOAD SWAP2 ADD KECCAK256 SWAP1 SLOAD PUSH1 0x1 PUSH1 0x1 PUSH1 0xA0 SHL SUB AND PUSH2 0x135 DUP3 DUP5 PUSH2 0x196 JUMP JUMPDEST PUSH1 0x1 PUSH1 0x1 PUSH1 0xA0 SHL SUB AND EQ PUSH2 0x148 JUMPI PUSH1 0x0 DUP1 REVERT JUMPDEST PUSH1 0x40 MLOAD CALLER SWAP1 DUP6 ISZERO PUSH2 0x8FC MUL SWAP1 DUP7 SWAP1 PUSH1 0x0 DUP2 DUP2 DUP2 DUP6 DUP9 DUP9 CALL SWAP4 POP POP POP POP ISZERO DUP1 ISZERO PUSH2 0x175 JUMPI RETURNDATASIZE PUSH1 0x0 DUP1 RETURNDATACOPY RETURNDATASIZE PUSH1 0x0 REVERT JUMPDEST POP POP POP POP POP JUMP JUMPDEST PUSH1 0x0 SLOAD PUSH1 0x1 PUSH1 0x1 PUSH1 0xA0 SHL SUB AND CALLER EQ PUSH2 0x193 JUMPI PUSH1 0x0 DUP1 REVERT JUMPDEST CALLER SELFDESTRUCT JUMPDEST PUSH1 0x0 DUP1 PUSH1 0x0 DUP1 PUSH2 0x1A5 DUP6 PUSH2 0x215 JUMP JUMPDEST PUSH1 0x40 DUP1 MLOAD PUSH1 0x0 DUP2 MSTORE PUSH1 0x20 DUP2 ADD DUP1 DUP4 MSTORE DUP12 SWAP1 MSTORE PUSH1 0xFF DUP6 AND SWAP2 DUP2 ADD SWAP2 SWAP1 SWAP2 MSTORE PUSH1 0x60 DUP2 ADD DUP4 SWAP1 MSTORE PUSH1 0x80 DUP2 ADD DUP3 SWAP1 MSTORE SWAP3 SWAP6 POP SWAP1 SWAP4 POP SWAP2 POP PUSH1 0x1 SWAP1 PUSH1 0xA0 ADD PUSH1 0x20 PUSH1 0x40 MLOAD PUSH1 0x20 DUP2 SUB SWAP1 DUP1 DUP5 SUB SWAP1 DUP6 GAS STATICCALL ISZERO DUP1 ISZERO PUSH2 0x200 JUMPI RETURNDATASIZE PUSH1 0x0 DUP1 RETURNDATACOPY RETURNDATASIZE PUSH1 0x0 REVERT JUMPDEST POP POP PUSH1 0x40 MLOAD PUSH1 0x1F NOT ADD MLOAD SWAP8 SWAP7 POP POP POP POP POP POP POP JUMP JUMPDEST PUSH1 0x0 DUP1 PUSH1 0x0 DUP4 MLOAD PUSH1 0x41 EQ PUSH2 0x228 JUMPI PUSH1 0x0 DUP1 REVERT JUMPDEST POP POP POP PUSH1 0x20 DUP2 ADD MLOAD PUSH1 0x40 DUP3 ADD MLOAD PUSH1 0x60 SWAP1 SWAP3 ADD MLOAD PUSH1 0x0 BYTE SWAP3 SWAP1 SWAP2 SWAP1 JUMP JUMPDEST PUSH4 0x4E487B71 PUSH1 0xE0 SHL PUSH1 0x0 MSTORE PUSH1 0x41 PUSH1 0x4 MSTORE PUSH1 0x24 PUSH1 0x0 REVERT JUMPDEST PUSH1 0x0 DUP1 PUSH1 0x0 PUSH1 0x60 DUP5 DUP7 SUB SLT ISZERO PUSH2 0x26F JUMPI PUSH1 0x0 DUP1 REVERT JUMPDEST DUP4 CALLDATALOAD SWAP3 POP PUSH1 0x20 DUP5 ADD CALLDATALOAD SWAP2 POP PUSH1 0x40 DUP5 ADD CALLDATALOAD PUSH8 0xFFFFFFFFFFFFFFFF DUP1 DUP3 GT ISZERO PUSH2 0x295 JUMPI PUSH1 0x0 DUP1 REVERT JUMPDEST DUP2 DUP7 ADD SWAP2 POP DUP7 PUSH1 0x1F DUP4 ADD SLT PUSH2 0x2A9 JUMPI PUSH1 0x0 DUP1 REVERT JUMPDEST DUP2 CALLDATALOAD DUP2 DUP2 GT ISZERO PUSH2 0x2BB JUMPI PUSH2 0x2BB PUSH2 0x244 JUMP JUMPDEST PUSH1 0x40 MLOAD PUSH1 0x1F DUP3 ADD PUSH1 0x1F NOT SWAP1 DUP2 AND PUSH1 0x3F ADD AND DUP2 ADD SWAP1 DUP4 DUP3 GT DUP2 DUP4 LT OR ISZERO PUSH2 0x2E3 JUMPI PUSH2 0x2E3 PUSH2 0x244 JUMP JUMPDEST DUP2 PUSH1 0x40 MSTORE DUP3 DUP2 MSTORE DUP10 PUSH1 0x20 DUP5 DUP8 ADD ADD GT ISZERO PUSH2 0x2FC JUMPI PUSH1 0x0 DUP1 REVERT JUMPDEST DUP3 PUSH1 0x20 DUP7 ADD PUSH1 0x20 DUP4 ADD CALLDATACOPY PUSH1 0x0 PUSH1 0x20 DUP5 DUP4 ADD ADD MSTORE DUP1 SWAP6 POP POP POP POP POP POP SWAP3 POP SWAP3 POP SWAP3 JUMP INVALID LOG2 PUSH5 0x6970667358 0x22 SLT KECCAK256 DELEGATECALL 0xEB PUSH17 0xAFAD042608CCCE4DDF65CB74261930BB2D GASLIMIT 0xA5 0xCE 0xEE SWAP4 NOT PUSH25 0x3DD1D6E55364736F6C634300080E0033000000000000000000 ",
  "sha1": "d4902f97ecd06eff50fc585906823293feef1f52",
  "source": "// SPDX-License-Identifier: GPL-3.0\npragma solidity 0.8.14;\nimport \"./console.sol\";\n\ncontract ReceiverPays {\n    address owner = msg.sender;\n    mapping(uint256 => bool) usedNonces;\n\n    constructor() payable {}\n\n    function claimPayment(\n        uint256 amount,\n        uint256 nonce,\n        bytes memory signature\n    ) external {\n        require(!usedNonces[nonce]);\n        usedNonces[nonce] = true;\n        // this recreates the message that was signed on the client\n        bytes32 message = prefixed(\n            keccak256(abi.encodePacked(msg.sender, amount, nonce, this))\n        );\n        require(recoverSigner(message, signature) == owner);\n        payable(msg.sender).transfer(amount);\n    }\n\n    /// destroy the contract and reclaim the leftover funds.\n    function shutdown() external {\n        require(msg.sender == owner);\n        selfdestruct(payable(msg.sender));\n    }\n\n    /// signature methods.\n    function splitSignature(bytes memory sig)\n        internal\n        pure\n        returns (\n            uint8 v,\n            bytes32 r,\n            bytes32 s\n        )\n    {\n        require(sig.length == 65);\n        assembly {\n            // first 32 bytes, after the length prefix.\n            r := mload(add(sig, 32))\n            // second 32 bytes.\n            s := mload(add(sig, 64))\n            // final byte (first byte of the next 32 bytes).\n            v := byte(0, mload(add(sig, 96)))\n        }\n        return (v, r, s);\n    }\n\n    function recoverSigner(bytes32 message, bytes memory sig)\n        internal\n        pure\n        returns (address)\n    {\n        (uint8 v, bytes32 r, bytes32 s) = splitSignature(sig);\n        return ecrecover(message, v, r, s);\n    }\n\n    /// builds a prefixed hash to mimic the behavior of eth_sign.\n    function prefixed(bytes32 hash) internal pure returns (bytes32) {\n        return\n            keccak256(\n                abi.encodePacked(\"\\x19Ethereum Signed Message:\\n32\", hash)\n            );\n    }\n}\n",
  "sourcePath": "contracts/ReceiverPays.sol",
  "type": "contract"
}