{
  "abi": [
    {
      "inputs": [
        {
          "internalType": "address payable",
          "name": "recipientAddress",
          "type": "address"
        },
        {
          "internalType": "uint256",
          "name": "duration",
          "type": "uint256"
        }
      ],
      "stateMutability": "payable",
      "type": "constructor"
    },
    {
      "inputs": [],
      "name": "claimTimeout",
      "outputs": [],
      "stateMutability": "nonpayable",
      "type": "function"
    },
    {
      "inputs": [
        {
          "internalType": "uint256",
          "name": "amount",
          "type": "uint256"
        },
        {
          "internalType": "bytes",
          "name": "signature",
          "type": "bytes"
        }
      ],
      "name": "close",
      "outputs": [],
      "stateMutability": "nonpayable",
      "type": "function"
    },
    {
      "inputs": [],
      "name": "expiration",
      "outputs": [
        {
          "internalType": "uint256",
          "name": "",
          "type": "uint256"
        }
      ],
      "stateMutability": "view",
      "type": "function"
    },
    {
      "inputs": [
        {
          "internalType": "uint256",
          "name": "newExpiration",
          "type": "uint256"
        }
      ],
      "name": "extend",
      "outputs": [],
      "stateMutability": "nonpayable",
      "type": "function"
    },
    {
      "inputs": [
        {
          "internalType": "address payable",
          "name": "_recipientAddress",
          "type": "address"
        },
        {
          "internalType": "uint256",
          "name": "_expiration",
          "type": "uint256"
        }
      ],
      "name": "newChannel",
      "outputs": [],
      "stateMutability": "payable",
      "type": "function"
    },
    {
      "inputs": [],
      "name": "recipient",
      "outputs": [
        {
          "internalType": "address payable",
          "name": "",
          "type": "address"
        }
      ],
      "stateMutability": "view",
      "type": "function"
    },
    {
      "inputs": [],
      "name": "sender",
      "outputs": [
        {
          "internalType": "address payable",
          "name": "",
          "type": "address"
        }
      ],
      "stateMutability": "view",
      "type": "function"
    }
  ],
  "bytecode": "608060405260405161091a38038061091a83398101604081905261002291610060565b60008054336001600160a01b031991821617909155600180549091166001600160a01b038416179055610055814261009a565b600255506100c09050565b6000806040838503121561007357600080fd5b82516001600160a01b038116811461008a57600080fd5b6020939093015192949293505050565b600082198211156100bb57634e487b7160e01b600052601160045260246000fd5b500190565b61084b806100cf6000396000f3fe6080604052600436106100705760003560e01c806366d003ac1161004e57806366d003ac146100d557806367e404ce1461010d5780639714378c1461012d578063f26c6aed1461014d57600080fd5b80630e1da6c314610075578063415ffba71461008c5780634665096d146100ac575b600080fd5b34801561008157600080fd5b5061008a61018f565b005b34801561009857600080fd5b5061008a6100a7366004610657565b61019d565b3480156100b857600080fd5b506100c260025481565b6040519081526020015b60405180910390f35b3480156100e157600080fd5b506001546100f5906001600160a01b031681565b6040516001600160a01b0390911681526020016100cc565b34801561011957600080fd5b506000546100f5906001600160a01b031681565b34801561013957600080fd5b5061008a610148366004610712565b6102a9565b61008a61015b36600461072b565b60008054336001600160a01b031991821617909155600180549091166001600160a01b039390931692909217909155600255565b6000546001600160a01b0316ff5b6101be6040518060600160405280602181526020016107f5602191396102d3565b6101c781610319565b6001546001600160a01b031633146102165760405162461bcd60e51b815260206004820152600d60248201526c1b9bdd081c9958da5c1a595b9d609a1b60448201526064015b60405180910390fd5b610220828261035c565b6102605760405162461bcd60e51b8152602060048201526011602482015270696e76616c6964207369676e617475726560781b604482015260640161020d565b6001546040516001600160a01b039091169083156108fc029084906000818181858888f1935050505015801561029a573d6000803e3d6000fd5b506000546001600160a01b0316ff5b6000546001600160a01b031633146102c057600080fd5b60025481116102ce57600080fd5b600255565b610316816040516024016102e791906107b0565b60408051601f198184030181529190526020810180516001600160e01b031663104c13eb60e21b179052610450565b50565b6103168160405160240161032d91906107b0565b60408051601f198184030181529190526020810180516001600160e01b03166305f3bfab60e11b179052610450565b6040516bffffffffffffffffffffffff193060601b1660208201526034810183905260009081906103f390605401604051602081830303815290604052805190602001206040517f19457468657265756d205369676e6564204d6573736167653a0a3332000000006020820152603c8101829052600090605c01604051602081830303815290604052805190602001209050919050565b905061041f604051806040016040528060098152602001686d657373616765203d60b81b8152506102d3565b61042881610471565b6000546001600160a01b031661043e82856104b6565b6001600160a01b031614949350505050565b80516a636f6e736f6c652e6c6f67602083016000808483855afa5050505050565b6103168160405160240161048791815260200190565b60408051601f198184030181529190526020810180516001600160e01b03166327b7cf8560e01b179052610450565b6000806000806104c5856105c9565b9250925092506105616040518060400160405280600d81526020016c4164647265737320697320257360981b81525060018886868660405160008152602001604052604051610530949392919093845260ff9290921660208401526040830152606082015260800190565b6020604051602081039080840390855afa158015610552573d6000803e3d6000fd5b505050602060405103516105f8565b60408051600081526020810180835288905260ff851691810191909152606081018390526080810182905260019060a0016020604051602081039080840390855afa1580156105b4573d6000803e3d6000fd5b5050604051601f190151979650505050505050565b600080600083516041146105dc57600080fd5b5050506020810151604082015160609092015160001a92909190565b61063d828260405160240161060e9291906107ca565b60408051601f198184030181529190526020810180516001600160e01b031663319af33360e01b179052610450565b5050565b634e487b7160e01b600052604160045260246000fd5b6000806040838503121561066a57600080fd5b82359150602083013567ffffffffffffffff8082111561068957600080fd5b818501915085601f83011261069d57600080fd5b8135818111156106af576106af610641565b604051601f8201601f19908116603f011681019083821181831017156106d7576106d7610641565b816040528281528860208487010111156106f057600080fd5b8260208601602083013760006020848301015280955050505050509250929050565b60006020828403121561072457600080fd5b5035919050565b6000806040838503121561073e57600080fd5b82356001600160a01b038116811461075557600080fd5b946020939093013593505050565b6000815180845260005b818110156107895760208185018101518683018201520161076d565b8181111561079b576000602083870101525b50601f01601f19169290920160200192915050565b6020815260006107c36020830184610763565b9392505050565b6040815260006107dd6040830185610763565b905060018060a01b0383166020830152939250505056fe7369676e61747572652072656365697665642066726f6d2066726f6e74656e643da264697066735822122092660c78578d1780b407862fd3d37f6683b86601a33f0cb1f29cacfe6db8c7a864736f6c634300080e0033",
  "bytecodeSha1": "7543f9576a829389650a19bedc52a85762262a89",
  "compiler": {
    "evm_version": "istanbul",
    "optimizer": {
      "enabled": true,
      "runs": 200
    },
    "version": "0.8.14+commit.80d49f37"
  },
  "contractName": "SimplePaymentChannel",
  "language": "Solidity",
  "natspec": {
    "kind": "dev",
    "methods": {
      "claimTimeout()": {
        "notice": "if the timeout is reached without the recipient closing the channel, then the Ether is released back to the sender."
      },
      "close(uint256,bytes)": {
        "notice": "the recipient can close the channel at any time by presenting a signed amount from the sender. the recipient will be sent that amount, and the remainder will go back to the sender"
      },
      "extend(uint256)": {
        "notice": "the sender can extend the expiration at any time"
      }
    },
    "version": 1
  },
  "opcodes": "PUSH1 0x80 PUSH1 0x40 MSTORE PUSH1 0x4 CALLDATASIZE LT PUSH2 0x70 JUMPI PUSH1 0x0 CALLDATALOAD PUSH1 0xE0 SHR DUP1 PUSH4 0x66D003AC GT PUSH2 0x4E JUMPI DUP1 PUSH4 0x66D003AC EQ PUSH2 0xD5 JUMPI DUP1 PUSH4 0x67E404CE EQ PUSH2 0x10D JUMPI DUP1 PUSH4 0x9714378C EQ PUSH2 0x12D JUMPI DUP1 PUSH4 0xF26C6AED EQ PUSH2 0x14D JUMPI PUSH1 0x0 DUP1 REVERT JUMPDEST DUP1 PUSH4 0xE1DA6C3 EQ PUSH2 0x75 JUMPI DUP1 PUSH4 0x415FFBA7 EQ PUSH2 0x8C JUMPI DUP1 PUSH4 0x4665096D EQ PUSH2 0xAC JUMPI JUMPDEST PUSH1 0x0 DUP1 REVERT JUMPDEST CALLVALUE DUP1 ISZERO PUSH2 0x81 JUMPI PUSH1 0x0 DUP1 REVERT JUMPDEST POP PUSH2 0x8A PUSH2 0x18F JUMP JUMPDEST STOP JUMPDEST CALLVALUE DUP1 ISZERO PUSH2 0x98 JUMPI PUSH1 0x0 DUP1 REVERT JUMPDEST POP PUSH2 0x8A PUSH2 0xA7 CALLDATASIZE PUSH1 0x4 PUSH2 0x657 JUMP JUMPDEST PUSH2 0x19D JUMP JUMPDEST CALLVALUE DUP1 ISZERO PUSH2 0xB8 JUMPI PUSH1 0x0 DUP1 REVERT JUMPDEST POP PUSH2 0xC2 PUSH1 0x2 SLOAD DUP2 JUMP JUMPDEST PUSH1 0x40 MLOAD SWAP1 DUP2 MSTORE PUSH1 0x20 ADD JUMPDEST PUSH1 0x40 MLOAD DUP1 SWAP2 SUB SWAP1 RETURN JUMPDEST CALLVALUE DUP1 ISZERO PUSH2 0xE1 JUMPI PUSH1 0x0 DUP1 REVERT JUMPDEST POP PUSH1 0x1 SLOAD PUSH2 0xF5 SWAP1 PUSH1 0x1 PUSH1 0x1 PUSH1 0xA0 SHL SUB AND DUP2 JUMP JUMPDEST PUSH1 0x40 MLOAD PUSH1 0x1 PUSH1 0x1 PUSH1 0xA0 SHL SUB SWAP1 SWAP2 AND DUP2 MSTORE PUSH1 0x20 ADD PUSH2 0xCC JUMP JUMPDEST CALLVALUE DUP1 ISZERO PUSH2 0x119 JUMPI PUSH1 0x0 DUP1 REVERT JUMPDEST POP PUSH1 0x0 SLOAD PUSH2 0xF5 SWAP1 PUSH1 0x1 PUSH1 0x1 PUSH1 0xA0 SHL SUB AND DUP2 JUMP JUMPDEST CALLVALUE DUP1 ISZERO PUSH2 0x139 JUMPI PUSH1 0x0 DUP1 REVERT JUMPDEST POP PUSH2 0x8A PUSH2 0x148 CALLDATASIZE PUSH1 0x4 PUSH2 0x712 JUMP JUMPDEST PUSH2 0x2A9 JUMP JUMPDEST PUSH2 0x8A PUSH2 0x15B CALLDATASIZE PUSH1 0x4 PUSH2 0x72B JUMP JUMPDEST PUSH1 0x0 DUP1 SLOAD CALLER PUSH1 0x1 PUSH1 0x1 PUSH1 0xA0 SHL SUB NOT SWAP2 DUP3 AND OR SWAP1 SWAP2 SSTORE PUSH1 0x1 DUP1 SLOAD SWAP1 SWAP2 AND PUSH1 0x1 PUSH1 0x1 PUSH1 0xA0 SHL SUB SWAP4 SWAP1 SWAP4 AND SWAP3 SWAP1 SWAP3 OR SWAP1 SWAP2 SSTORE PUSH1 0x2 SSTORE JUMP JUMPDEST PUSH1 0x0 SLOAD PUSH1 0x1 PUSH1 0x1 PUSH1 0xA0 SHL SUB AND SELFDESTRUCT JUMPDEST PUSH2 0x1BE PUSH1 0x40 MLOAD DUP1 PUSH1 0x60 ADD PUSH1 0x40 MSTORE DUP1 PUSH1 0x21 DUP2 MSTORE PUSH1 0x20 ADD PUSH2 0x7F5 PUSH1 0x21 SWAP2 CODECOPY PUSH2 0x2D3 JUMP JUMPDEST PUSH2 0x1C7 DUP2 PUSH2 0x319 JUMP JUMPDEST PUSH1 0x1 SLOAD PUSH1 0x1 PUSH1 0x1 PUSH1 0xA0 SHL SUB AND CALLER EQ PUSH2 0x216 JUMPI PUSH1 0x40 MLOAD PUSH3 0x461BCD PUSH1 0xE5 SHL DUP2 MSTORE PUSH1 0x20 PUSH1 0x4 DUP3 ADD MSTORE PUSH1 0xD PUSH1 0x24 DUP3 ADD MSTORE PUSH13 0x1B9BDD081C9958DA5C1A595B9D PUSH1 0x9A SHL PUSH1 0x44 DUP3 ADD MSTORE PUSH1 0x64 ADD JUMPDEST PUSH1 0x40 MLOAD DUP1 SWAP2 SUB SWAP1 REVERT JUMPDEST PUSH2 0x220 DUP3 DUP3 PUSH2 0x35C JUMP JUMPDEST PUSH2 0x260 JUMPI PUSH1 0x40 MLOAD PUSH3 0x461BCD PUSH1 0xE5 SHL DUP2 MSTORE PUSH1 0x20 PUSH1 0x4 DUP3 ADD MSTORE PUSH1 0x11 PUSH1 0x24 DUP3 ADD MSTORE PUSH17 0x696E76616C6964207369676E6174757265 PUSH1 0x78 SHL PUSH1 0x44 DUP3 ADD MSTORE PUSH1 0x64 ADD PUSH2 0x20D JUMP JUMPDEST PUSH1 0x1 SLOAD PUSH1 0x40 MLOAD PUSH1 0x1 PUSH1 0x1 PUSH1 0xA0 SHL SUB SWAP1 SWAP2 AND SWAP1 DUP4 ISZERO PUSH2 0x8FC MUL SWAP1 DUP5 SWAP1 PUSH1 0x0 DUP2 DUP2 DUP2 DUP6 DUP9 DUP9 CALL SWAP4 POP POP POP POP ISZERO DUP1 ISZERO PUSH2 0x29A JUMPI RETURNDATASIZE PUSH1 0x0 DUP1 RETURNDATACOPY RETURNDATASIZE PUSH1 0x0 REVERT JUMPDEST POP PUSH1 0x0 SLOAD PUSH1 0x1 PUSH1 0x1 PUSH1 0xA0 SHL SUB AND SELFDESTRUCT JUMPDEST PUSH1 0x0 SLOAD PUSH1 0x1 PUSH1 0x1 PUSH1 0xA0 SHL SUB AND CALLER EQ PUSH2 0x2C0 JUMPI PUSH1 0x0 DUP1 REVERT JUMPDEST PUSH1 0x2 SLOAD DUP2 GT PUSH2 0x2CE JUMPI PUSH1 0x0 DUP1 REVERT JUMPDEST PUSH1 0x2 SSTORE JUMP JUMPDEST PUSH2 0x316 DUP2 PUSH1 0x40 MLOAD PUSH1 0x24 ADD PUSH2 0x2E7 SWAP2 SWAP1 PUSH2 0x7B0 JUMP JUMPDEST PUSH1 0x40 DUP1 MLOAD PUSH1 0x1F NOT DUP2 DUP5 SUB ADD DUP2 MSTORE SWAP2 SWAP1 MSTORE PUSH1 0x20 DUP2 ADD DUP1 MLOAD PUSH1 0x1 PUSH1 0x1 PUSH1 0xE0 SHL SUB AND PUSH4 0x104C13EB PUSH1 0xE2 SHL OR SWAP1 MSTORE PUSH2 0x450 JUMP JUMPDEST POP JUMP JUMPDEST PUSH2 0x316 DUP2 PUSH1 0x40 MLOAD PUSH1 0x24 ADD PUSH2 0x32D SWAP2 SWAP1 PUSH2 0x7B0 JUMP JUMPDEST PUSH1 0x40 DUP1 MLOAD PUSH1 0x1F NOT DUP2 DUP5 SUB ADD DUP2 MSTORE SWAP2 SWAP1 MSTORE PUSH1 0x20 DUP2 ADD DUP1 MLOAD PUSH1 0x1 PUSH1 0x1 PUSH1 0xE0 SHL SUB AND PUSH4 0x5F3BFAB PUSH1 0xE1 SHL OR SWAP1 MSTORE PUSH2 0x450 JUMP JUMPDEST PUSH1 0x40 MLOAD PUSH12 0xFFFFFFFFFFFFFFFFFFFFFFFF NOT ADDRESS PUSH1 0x60 SHL AND PUSH1 0x20 DUP3 ADD MSTORE PUSH1 0x34 DUP2 ADD DUP4 SWAP1 MSTORE PUSH1 0x0 SWAP1 DUP2 SWAP1 PUSH2 0x3F3 SWAP1 PUSH1 0x54 ADD PUSH1 0x40 MLOAD PUSH1 0x20 DUP2 DUP4 SUB SUB DUP2 MSTORE SWAP1 PUSH1 0x40 MSTORE DUP1 MLOAD SWAP1 PUSH1 0x20 ADD KECCAK256 PUSH1 0x40 MLOAD PUSH32 0x19457468657265756D205369676E6564204D6573736167653A0A333200000000 PUSH1 0x20 DUP3 ADD MSTORE PUSH1 0x3C DUP2 ADD DUP3 SWAP1 MSTORE PUSH1 0x0 SWAP1 PUSH1 0x5C ADD PUSH1 0x40 MLOAD PUSH1 0x20 DUP2 DUP4 SUB SUB DUP2 MSTORE SWAP1 PUSH1 0x40 MSTORE DUP1 MLOAD SWAP1 PUSH1 0x20 ADD KECCAK256 SWAP1 POP SWAP2 SWAP1 POP JUMP JUMPDEST SWAP1 POP PUSH2 0x41F PUSH1 0x40 MLOAD DUP1 PUSH1 0x40 ADD PUSH1 0x40 MSTORE DUP1 PUSH1 0x9 DUP2 MSTORE PUSH1 0x20 ADD PUSH9 0x6D657373616765203D PUSH1 0xB8 SHL DUP2 MSTORE POP PUSH2 0x2D3 JUMP JUMPDEST PUSH2 0x428 DUP2 PUSH2 0x471 JUMP JUMPDEST PUSH1 0x0 SLOAD PUSH1 0x1 PUSH1 0x1 PUSH1 0xA0 SHL SUB AND PUSH2 0x43E DUP3 DUP6 PUSH2 0x4B6 JUMP JUMPDEST PUSH1 0x1 PUSH1 0x1 PUSH1 0xA0 SHL SUB AND EQ SWAP5 SWAP4 POP POP POP POP JUMP JUMPDEST DUP1 MLOAD PUSH11 0x636F6E736F6C652E6C6F67 PUSH1 0x20 DUP4 ADD PUSH1 0x0 DUP1 DUP5 DUP4 DUP6 GAS STATICCALL POP POP POP POP POP JUMP JUMPDEST PUSH2 0x316 DUP2 PUSH1 0x40 MLOAD PUSH1 0x24 ADD PUSH2 0x487 SWAP2 DUP2 MSTORE PUSH1 0x20 ADD SWAP1 JUMP JUMPDEST PUSH1 0x40 DUP1 MLOAD PUSH1 0x1F NOT DUP2 DUP5 SUB ADD DUP2 MSTORE SWAP2 SWAP1 MSTORE PUSH1 0x20 DUP2 ADD DUP1 MLOAD PUSH1 0x1 PUSH1 0x1 PUSH1 0xE0 SHL SUB AND PUSH4 0x27B7CF85 PUSH1 0xE0 SHL OR SWAP1 MSTORE PUSH2 0x450 JUMP JUMPDEST PUSH1 0x0 DUP1 PUSH1 0x0 DUP1 PUSH2 0x4C5 DUP6 PUSH2 0x5C9 JUMP JUMPDEST SWAP3 POP SWAP3 POP SWAP3 POP PUSH2 0x561 PUSH1 0x40 MLOAD DUP1 PUSH1 0x40 ADD PUSH1 0x40 MSTORE DUP1 PUSH1 0xD DUP2 MSTORE PUSH1 0x20 ADD PUSH13 0x41646472657373206973202573 PUSH1 0x98 SHL DUP2 MSTORE POP PUSH1 0x1 DUP9 DUP7 DUP7 DUP7 PUSH1 0x40 MLOAD PUSH1 0x0 DUP2 MSTORE PUSH1 0x20 ADD PUSH1 0x40 MSTORE PUSH1 0x40 MLOAD PUSH2 0x530 SWAP5 SWAP4 SWAP3 SWAP2 SWAP1 SWAP4 DUP5 MSTORE PUSH1 0xFF SWAP3 SWAP1 SWAP3 AND PUSH1 0x20 DUP5 ADD MSTORE PUSH1 0x40 DUP4 ADD MSTORE PUSH1 0x60 DUP3 ADD MSTORE PUSH1 0x80 ADD SWAP1 JUMP JUMPDEST PUSH1 0x20 PUSH1 0x40 MLOAD PUSH1 0x20 DUP2 SUB SWAP1 DUP1 DUP5 SUB SWAP1 DUP6 GAS STATICCALL ISZERO DUP1 ISZERO PUSH2 0x552 JUMPI RETURNDATASIZE PUSH1 0x0 DUP1 RETURNDATACOPY RETURNDATASIZE PUSH1 0x0 REVERT JUMPDEST POP POP POP PUSH1 0x20 PUSH1 0x40 MLOAD SUB MLOAD PUSH2 0x5F8 JUMP JUMPDEST PUSH1 0x40 DUP1 MLOAD PUSH1 0x0 DUP2 MSTORE PUSH1 0x20 DUP2 ADD DUP1 DUP4 MSTORE DUP9 SWAP1 MSTORE PUSH1 0xFF DUP6 AND SWAP2 DUP2 ADD SWAP2 SWAP1 SWAP2 MSTORE PUSH1 0x60 DUP2 ADD DUP4 SWAP1 MSTORE PUSH1 0x80 DUP2 ADD DUP3 SWAP1 MSTORE PUSH1 0x1 SWAP1 PUSH1 0xA0 ADD PUSH1 0x20 PUSH1 0x40 MLOAD PUSH1 0x20 DUP2 SUB SWAP1 DUP1 DUP5 SUB SWAP1 DUP6 GAS STATICCALL ISZERO DUP1 ISZERO PUSH2 0x5B4 JUMPI RETURNDATASIZE PUSH1 0x0 DUP1 RETURNDATACOPY RETURNDATASIZE PUSH1 0x0 REVERT JUMPDEST POP POP PUSH1 0x40 MLOAD PUSH1 0x1F NOT ADD MLOAD SWAP8 SWAP7 POP POP POP POP POP POP POP JUMP JUMPDEST PUSH1 0x0 DUP1 PUSH1 0x0 DUP4 MLOAD PUSH1 0x41 EQ PUSH2 0x5DC JUMPI PUSH1 0x0 DUP1 REVERT JUMPDEST POP POP POP PUSH1 0x20 DUP2 ADD MLOAD PUSH1 0x40 DUP3 ADD MLOAD PUSH1 0x60 SWAP1 SWAP3 ADD MLOAD PUSH1 0x0 BYTE SWAP3 SWAP1 SWAP2 SWAP1 JUMP JUMPDEST PUSH2 0x63D DUP3 DUP3 PUSH1 0x40 MLOAD PUSH1 0x24 ADD PUSH2 0x60E SWAP3 SWAP2 SWAP1 PUSH2 0x7CA JUMP JUMPDEST PUSH1 0x40 DUP1 MLOAD PUSH1 0x1F NOT DUP2 DUP5 SUB ADD DUP2 MSTORE SWAP2 SWAP1 MSTORE PUSH1 0x20 DUP2 ADD DUP1 MLOAD PUSH1 0x1 PUSH1 0x1 PUSH1 0xE0 SHL SUB AND PUSH4 0x319AF333 PUSH1 0xE0 SHL OR SWAP1 MSTORE PUSH2 0x450 JUMP JUMPDEST POP POP JUMP JUMPDEST PUSH4 0x4E487B71 PUSH1 0xE0 SHL PUSH1 0x0 MSTORE PUSH1 0x41 PUSH1 0x4 MSTORE PUSH1 0x24 PUSH1 0x0 REVERT JUMPDEST PUSH1 0x0 DUP1 PUSH1 0x40 DUP4 DUP6 SUB SLT ISZERO PUSH2 0x66A JUMPI PUSH1 0x0 DUP1 REVERT JUMPDEST DUP3 CALLDATALOAD SWAP2 POP PUSH1 0x20 DUP4 ADD CALLDATALOAD PUSH8 0xFFFFFFFFFFFFFFFF DUP1 DUP3 GT ISZERO PUSH2 0x689 JUMPI PUSH1 0x0 DUP1 REVERT JUMPDEST DUP2 DUP6 ADD SWAP2 POP DUP6 PUSH1 0x1F DUP4 ADD SLT PUSH2 0x69D JUMPI PUSH1 0x0 DUP1 REVERT JUMPDEST DUP2 CALLDATALOAD DUP2 DUP2 GT ISZERO PUSH2 0x6AF JUMPI PUSH2 0x6AF PUSH2 0x641 JUMP JUMPDEST PUSH1 0x40 MLOAD PUSH1 0x1F DUP3 ADD PUSH1 0x1F NOT SWAP1 DUP2 AND PUSH1 0x3F ADD AND DUP2 ADD SWAP1 DUP4 DUP3 GT DUP2 DUP4 LT OR ISZERO PUSH2 0x6D7 JUMPI PUSH2 0x6D7 PUSH2 0x641 JUMP JUMPDEST DUP2 PUSH1 0x40 MSTORE DUP3 DUP2 MSTORE DUP9 PUSH1 0x20 DUP5 DUP8 ADD ADD GT ISZERO PUSH2 0x6F0 JUMPI PUSH1 0x0 DUP1 REVERT JUMPDEST DUP3 PUSH1 0x20 DUP7 ADD PUSH1 0x20 DUP4 ADD CALLDATACOPY PUSH1 0x0 PUSH1 0x20 DUP5 DUP4 ADD ADD MSTORE DUP1 SWAP6 POP POP POP POP POP POP SWAP3 POP SWAP3 SWAP1 POP JUMP JUMPDEST PUSH1 0x0 PUSH1 0x20 DUP3 DUP5 SUB SLT ISZERO PUSH2 0x724 JUMPI PUSH1 0x0 DUP1 REVERT JUMPDEST POP CALLDATALOAD SWAP2 SWAP1 POP JUMP JUMPDEST PUSH1 0x0 DUP1 PUSH1 0x40 DUP4 DUP6 SUB SLT ISZERO PUSH2 0x73E JUMPI PUSH1 0x0 DUP1 REVERT JUMPDEST DUP3 CALLDATALOAD PUSH1 0x1 PUSH1 0x1 PUSH1 0xA0 SHL SUB DUP2 AND DUP2 EQ PUSH2 0x755 JUMPI PUSH1 0x0 DUP1 REVERT JUMPDEST SWAP5 PUSH1 0x20 SWAP4 SWAP1 SWAP4 ADD CALLDATALOAD SWAP4 POP POP POP JUMP JUMPDEST PUSH1 0x0 DUP2 MLOAD DUP1 DUP5 MSTORE PUSH1 0x0 JUMPDEST DUP2 DUP2 LT ISZERO PUSH2 0x789 JUMPI PUSH1 0x20 DUP2 DUP6 ADD DUP2 ADD MLOAD DUP7 DUP4 ADD DUP3 ADD MSTORE ADD PUSH2 0x76D JUMP JUMPDEST DUP2 DUP2 GT ISZERO PUSH2 0x79B JUMPI PUSH1 0x0 PUSH1 0x20 DUP4 DUP8 ADD ADD MSTORE JUMPDEST POP PUSH1 0x1F ADD PUSH1 0x1F NOT AND SWAP3 SWAP1 SWAP3 ADD PUSH1 0x20 ADD SWAP3 SWAP2 POP POP JUMP JUMPDEST PUSH1 0x20 DUP2 MSTORE PUSH1 0x0 PUSH2 0x7C3 PUSH1 0x20 DUP4 ADD DUP5 PUSH2 0x763 JUMP JUMPDEST SWAP4 SWAP3 POP POP POP JUMP JUMPDEST PUSH1 0x40 DUP2 MSTORE PUSH1 0x0 PUSH2 0x7DD PUSH1 0x40 DUP4 ADD DUP6 PUSH2 0x763 JUMP JUMPDEST SWAP1 POP PUSH1 0x1 DUP1 PUSH1 0xA0 SHL SUB DUP4 AND PUSH1 0x20 DUP4 ADD MSTORE SWAP4 SWAP3 POP POP POP JUMP INVALID PUSH20 0x69676E6174757265207265636569766564206672 PUSH16 0x6D2066726F6E74656E643DA264697066 PUSH20 0x5822122092660C78578D1780B407862FD3D37F66 DUP4 0xB8 PUSH7 0x1A33F0CB1F29C 0xAC INVALID PUSH14 0xB8C7A864736F6C634300080E0033 ",
  "sha1": "b727bf81ef2dce63bb79922f1498b1e18f70d403",
  "source": "// SPDX-License-Identifier: GPL-3.0\npragma solidity 0.8.14;\nimport \"./console.sol\";\n\ncontract SimplePaymentChannel {\n    address payable public sender; // The account sending payments.\n    address payable public recipient; // The account receiving the payments.\n    uint256 public expiration; // Timeout in case the recipient never closes.\n\n    constructor(address payable recipientAddress, uint256 duration) payable {\n        sender = payable(msg.sender);\n        recipient = recipientAddress;\n        expiration = block.timestamp + duration;\n    }\n\n    /// the sender can extend the expiration at any time\n    function extend(uint256 newExpiration) external {\n        require(msg.sender == sender);\n        require(newExpiration > expiration);\n        expiration = newExpiration;\n    }\n\n    /// if the timeout is reached without the recipient closing the channel,\n    /// then the Ether is released back to the sender.\n    function claimTimeout() external {\n        // commented the require in order to be able to call the function\n        //require(block.timestamp >= expiration);\n        selfdestruct(sender);\n    }\n\n    function newChannel(address payable _recipientAddress, uint256 _expiration) external payable {\n        sender = payable(msg.sender);\n        recipient = _recipientAddress;\n        expiration = _expiration;\n    }\n\n    /// the recipient can close the channel at any time by presenting a\n    /// signed amount from the sender. the recipient will be sent that amount,\n    /// and the remainder will go back to the sender\n    function close(uint256 amount, bytes memory signature) external {\n        console.log(\"signature received from frontend=\");\n        console.logBytes(signature);\n        require(msg.sender == recipient,\"not recipient\");\n        require(isValidSignature(amount, signature),\"invalid signature\");\n        recipient.transfer(amount);\n        selfdestruct(sender);\n    }\n\n    function isValidSignature(uint256 amount, bytes memory signature)\n        internal\n        view\n        returns (bool)\n    {\n\n        bytes32 message = prefixed(keccak256(abi.encodePacked(address(this), amount)));\n        console.log(\"message =\");\n        console.logBytes32(message);\n        // check that the signature is from the payment sender\n        return recoverSigner(message, signature) == sender;\n    }\n\n    function recoverSigner(bytes32 message, bytes memory sig)\n        internal\n        view\n        returns (address)\n    {\n        (uint8 v, bytes32 r, bytes32 s) = splitSignature(sig);\n        console.log(\"Address is %s\", ecrecover(message, v, r, s));\n        return ecrecover(message, v, r, s);\n    }\n\n    /// All functions below this are just taken from the chapter\n    /// 'creating and verifying signatures' chapter.\n\n    function splitSignature(bytes memory sig)\n        internal\n        pure\n        returns (\n            uint8 v,\n            bytes32 r,\n            bytes32 s\n        )\n    {\n        require(sig.length == 65);\n        assembly {\n            // first 32 bytes, after the length prefix\n            r := mload(add(sig, 32))\n            // second 32 bytes\n            s := mload(add(sig, 64))\n            // final byte (first byte of the next 32 bytes)\n            v := byte(0, mload(add(sig, 96)))\n        }\n        return (v, r, s);\n    }\n\n\n    /// builds a prefixed hash to mimic the behavior of eth_sign.\n    function prefixed(bytes32 hash) internal view returns (bytes32) {\n        return\n            keccak256(\n                abi.encodePacked(\"\\x19Ethereum Signed Message:\\n32\", hash)\n            );\n    }\n}\n",
  "sourcePath": "contracts/SimplePaymentChannel.sol",
  "type": "contract"
}