{
  "abi": [
    {
      "stateMutability": "payable",
      "type": "fallback"
    },
    {
      "inputs": [
        {
          "internalType": "uint256",
          "name": "j",
          "type": "uint256"
        }
      ],
      "name": "callMe",
      "outputs": [],
      "stateMutability": "payable",
      "type": "function"
    },
    {
      "inputs": [
        {
          "internalType": "uint256",
          "name": "j",
          "type": "uint256"
        }
      ],
      "name": "getData",
      "outputs": [
        {
          "internalType": "bytes",
          "name": "",
          "type": "bytes"
        }
      ],
      "stateMutability": "pure",
      "type": "function"
    },
    {
      "inputs": [],
      "name": "i",
      "outputs": [
        {
          "internalType": "uint256",
          "name": "",
          "type": "uint256"
        }
      ],
      "stateMutability": "view",
      "type": "function"
    }
  ],
  "bytecode": "608060405234801561001057600080fd5b5061032c806100206000396000f3fe6080604052600436106100345760003560e01c80630178fe3f14610074578063e5aa3d58146100aa578063e73620c3146100ce575b6100726040518060400160405280601781526020017f54657374436f6e74726163742e66616c6c6261636b28290000000000000000008152506100e1565b005b34801561008057600080fd5b5061009461008f36600461022e565b610127565b6040516100a19190610294565b60405180910390f35b3480156100b657600080fd5b506100c060005481565b6040519081526020016100a1565b6100726100dc36600461022e565b61016c565b610124816040516024016100f59190610294565b60408051601f198184030181529190526020810180516001600160e01b031663104c13eb60e21b1790526101c4565b50565b60608160405160240161013c91815260200190565b60408051601f198184030181529190526020810180516001600160e01b031663e73620c360e01b17905292915050565b6101ab6040518060400160405280601e81526020017f54657374436f6e74726163742e63616c6c4d65282564292063616c6c65640000815250826101e5565b806000808282546101bc91906102ae565b909155505050565b80516a636f6e736f6c652e6c6f67602083016000808483855afa5050505050565b61022a82826040516024016101fb9291906102d4565b60408051601f198184030181529190526020810180516001600160e01b03166309710a9d60e41b1790526101c4565b5050565b60006020828403121561024057600080fd5b5035919050565b6000815180845260005b8181101561026d57602081850181015186830182015201610251565b8181111561027f576000602083870101525b50601f01601f19169290920160200192915050565b6020815260006102a76020830184610247565b9392505050565b600082198211156102cf57634e487b7160e01b600052601160045260246000fd5b500190565b6040815260006102e76040830185610247565b9050826020830152939250505056fea264697066735822122054a5f85361807c05b52b8ee5e1590d33e0deff0d4fde7a47a2b4ff29e1fd4b8464736f6c634300080e0033",
  "bytecodeSha1": "8f6ea4778ed3ec9bb3be09a3a69c8e6668305573",
  "compiler": {
    "evm_version": "istanbul",
    "optimizer": {
      "enabled": true,
      "runs": 200
    },
    "version": "0.8.14+commit.80d49f37"
  },
  "contractName": "TestContract",
  "language": "Solidity",
  "natspec": {
    "kind": "dev",
    "methods": {},
    "version": 1
  },
  "opcodes": "PUSH1 0x80 PUSH1 0x40 MSTORE PUSH1 0x4 CALLDATASIZE LT PUSH2 0x34 JUMPI PUSH1 0x0 CALLDATALOAD PUSH1 0xE0 SHR DUP1 PUSH4 0x178FE3F EQ PUSH2 0x74 JUMPI DUP1 PUSH4 0xE5AA3D58 EQ PUSH2 0xAA JUMPI DUP1 PUSH4 0xE73620C3 EQ PUSH2 0xCE JUMPI JUMPDEST PUSH2 0x72 PUSH1 0x40 MLOAD DUP1 PUSH1 0x40 ADD PUSH1 0x40 MSTORE DUP1 PUSH1 0x17 DUP2 MSTORE PUSH1 0x20 ADD PUSH32 0x54657374436F6E74726163742E66616C6C6261636B2829000000000000000000 DUP2 MSTORE POP PUSH2 0xE1 JUMP JUMPDEST STOP JUMPDEST CALLVALUE DUP1 ISZERO PUSH2 0x80 JUMPI PUSH1 0x0 DUP1 REVERT JUMPDEST POP PUSH2 0x94 PUSH2 0x8F CALLDATASIZE PUSH1 0x4 PUSH2 0x22E JUMP JUMPDEST PUSH2 0x127 JUMP JUMPDEST PUSH1 0x40 MLOAD PUSH2 0xA1 SWAP2 SWAP1 PUSH2 0x294 JUMP JUMPDEST PUSH1 0x40 MLOAD DUP1 SWAP2 SUB SWAP1 RETURN JUMPDEST CALLVALUE DUP1 ISZERO PUSH2 0xB6 JUMPI PUSH1 0x0 DUP1 REVERT JUMPDEST POP PUSH2 0xC0 PUSH1 0x0 SLOAD DUP2 JUMP JUMPDEST PUSH1 0x40 MLOAD SWAP1 DUP2 MSTORE PUSH1 0x20 ADD PUSH2 0xA1 JUMP JUMPDEST PUSH2 0x72 PUSH2 0xDC CALLDATASIZE PUSH1 0x4 PUSH2 0x22E JUMP JUMPDEST PUSH2 0x16C JUMP JUMPDEST PUSH2 0x124 DUP2 PUSH1 0x40 MLOAD PUSH1 0x24 ADD PUSH2 0xF5 SWAP2 SWAP1 PUSH2 0x294 JUMP JUMPDEST PUSH1 0x40 DUP1 MLOAD PUSH1 0x1F NOT DUP2 DUP5 SUB ADD DUP2 MSTORE SWAP2 SWAP1 MSTORE PUSH1 0x20 DUP2 ADD DUP1 MLOAD PUSH1 0x1 PUSH1 0x1 PUSH1 0xE0 SHL SUB AND PUSH4 0x104C13EB PUSH1 0xE2 SHL OR SWAP1 MSTORE PUSH2 0x1C4 JUMP JUMPDEST POP JUMP JUMPDEST PUSH1 0x60 DUP2 PUSH1 0x40 MLOAD PUSH1 0x24 ADD PUSH2 0x13C SWAP2 DUP2 MSTORE PUSH1 0x20 ADD SWAP1 JUMP JUMPDEST PUSH1 0x40 DUP1 MLOAD PUSH1 0x1F NOT DUP2 DUP5 SUB ADD DUP2 MSTORE SWAP2 SWAP1 MSTORE PUSH1 0x20 DUP2 ADD DUP1 MLOAD PUSH1 0x1 PUSH1 0x1 PUSH1 0xE0 SHL SUB AND PUSH4 0xE73620C3 PUSH1 0xE0 SHL OR SWAP1 MSTORE SWAP3 SWAP2 POP POP JUMP JUMPDEST PUSH2 0x1AB PUSH1 0x40 MLOAD DUP1 PUSH1 0x40 ADD PUSH1 0x40 MSTORE DUP1 PUSH1 0x1E DUP2 MSTORE PUSH1 0x20 ADD PUSH32 0x54657374436F6E74726163742E63616C6C4D65282564292063616C6C65640000 DUP2 MSTORE POP DUP3 PUSH2 0x1E5 JUMP JUMPDEST DUP1 PUSH1 0x0 DUP1 DUP3 DUP3 SLOAD PUSH2 0x1BC SWAP2 SWAP1 PUSH2 0x2AE JUMP JUMPDEST SWAP1 SWAP2 SSTORE POP POP POP JUMP JUMPDEST DUP1 MLOAD PUSH11 0x636F6E736F6C652E6C6F67 PUSH1 0x20 DUP4 ADD PUSH1 0x0 DUP1 DUP5 DUP4 DUP6 GAS STATICCALL POP POP POP POP POP JUMP JUMPDEST PUSH2 0x22A DUP3 DUP3 PUSH1 0x40 MLOAD PUSH1 0x24 ADD PUSH2 0x1FB SWAP3 SWAP2 SWAP1 PUSH2 0x2D4 JUMP JUMPDEST PUSH1 0x40 DUP1 MLOAD PUSH1 0x1F NOT DUP2 DUP5 SUB ADD DUP2 MSTORE SWAP2 SWAP1 MSTORE PUSH1 0x20 DUP2 ADD DUP1 MLOAD PUSH1 0x1 PUSH1 0x1 PUSH1 0xE0 SHL SUB AND PUSH4 0x9710A9D PUSH1 0xE4 SHL OR SWAP1 MSTORE PUSH2 0x1C4 JUMP JUMPDEST POP POP JUMP JUMPDEST PUSH1 0x0 PUSH1 0x20 DUP3 DUP5 SUB SLT ISZERO PUSH2 0x240 JUMPI PUSH1 0x0 DUP1 REVERT JUMPDEST POP CALLDATALOAD SWAP2 SWAP1 POP JUMP JUMPDEST PUSH1 0x0 DUP2 MLOAD DUP1 DUP5 MSTORE PUSH1 0x0 JUMPDEST DUP2 DUP2 LT ISZERO PUSH2 0x26D JUMPI PUSH1 0x20 DUP2 DUP6 ADD DUP2 ADD MLOAD DUP7 DUP4 ADD DUP3 ADD MSTORE ADD PUSH2 0x251 JUMP JUMPDEST DUP2 DUP2 GT ISZERO PUSH2 0x27F JUMPI PUSH1 0x0 PUSH1 0x20 DUP4 DUP8 ADD ADD MSTORE JUMPDEST POP PUSH1 0x1F ADD PUSH1 0x1F NOT AND SWAP3 SWAP1 SWAP3 ADD PUSH1 0x20 ADD SWAP3 SWAP2 POP POP JUMP JUMPDEST PUSH1 0x20 DUP2 MSTORE PUSH1 0x0 PUSH2 0x2A7 PUSH1 0x20 DUP4 ADD DUP5 PUSH2 0x247 JUMP JUMPDEST SWAP4 SWAP3 POP POP POP JUMP JUMPDEST PUSH1 0x0 DUP3 NOT DUP3 GT ISZERO PUSH2 0x2CF JUMPI PUSH4 0x4E487B71 PUSH1 0xE0 SHL PUSH1 0x0 MSTORE PUSH1 0x11 PUSH1 0x4 MSTORE PUSH1 0x24 PUSH1 0x0 REVERT JUMPDEST POP ADD SWAP1 JUMP JUMPDEST PUSH1 0x40 DUP2 MSTORE PUSH1 0x0 PUSH2 0x2E7 PUSH1 0x40 DUP4 ADD DUP6 PUSH2 0x247 JUMP JUMPDEST SWAP1 POP DUP3 PUSH1 0x20 DUP4 ADD MSTORE SWAP4 SWAP3 POP POP POP JUMP INVALID LOG2 PUSH5 0x6970667358 0x22 SLT KECCAK256 SLOAD 0xA5 0xF8 MSTORE8 PUSH2 0x807C SDIV 0xB5 0x2B DUP15 0xE5 0xE1 MSIZE 0xD CALLER 0xE0 0xDE SELFDESTRUCT 0xD 0x4F 0xDE PUSH27 0x47A2B4FF29E1FD4B8464736F6C634300080E003300000000000000 ",
  "sha1": "30cccbd29a0a9266a3ff1fdf6e9b96df25b94f18",
  "source": "// SPDX-License-Identifier: MIT\npragma solidity 0.8.14;\n\nimport \"./console.sol\";\n\ncontract MultiSigWallet {\n    event Deposit(address indexed sender, uint256 amount, uint256 balance);\n    event SubmitTransaction(\n        address indexed owner,\n        uint256 indexed txIndex,\n        address indexed to,\n        uint256 value,\n        bytes data\n    );\n    event ConfirmTransaction(address indexed owner, uint256 indexed txIndex);\n    event RevokeConfirmation(address indexed owner, uint256 indexed txIndex);\n    event ExecuteTransaction(address indexed owner, uint256 indexed txIndex);\n\n    address[] public owners;\n\n    mapping(address => bool) public isOwner;\n\n    uint256 public numConfirmationsRequired;\n\n    struct Transaction {\n        address to;\n        uint256 value;\n        bytes data;\n        bool executed;\n        uint256 numConfirmations;\n    }\n\n    // mapping from tx index => owner => bool\n    mapping(uint256 => mapping(address => bool)) public isConfirmed;\n\n    Transaction[] public transactions;\n\n    modifier onlyOwner() {\n        console.log(\"MultiSigWallet.onlyOwner() called\");\n        require(isOwner[msg.sender], \"not owner\");\n        _;\n        console.log(\"MultiSigWallet.onlyOwner() passed\");\n    }\n\n    modifier txExists(uint256 _txIndex) {\n        console.log(\"MultiSigWallet.txExists(#%d) called\", _txIndex);\n        require(_txIndex < transactions.length, \"tx does not exist\");\n        _;\n        console.log(\"MultiSigWallet.txExists(#%d) passed\", _txIndex);\n    }\n\n    modifier notExecuted(uint256 _txIndex) {\n        console.log(\"MultiSigWallet.notExecuted(#%d) called\", _txIndex);\n        require(!transactions[_txIndex].executed, \"tx already executed\");\n        _;\n        console.log(\"MultiSigWallet.notExecuted(#%d) passed\", _txIndex);\n    }\n\n    modifier notConfirmed(uint256 _txIndex) {\n        console.log(\"MultiSigWallet.notConfirmed(#%d) called\", _txIndex);\n        require(!isConfirmed[_txIndex][msg.sender], \"tx already confirmed\");\n        _;\n        console.log(\"MultiSigWallet.notConfirmed(#%d) passed\", _txIndex);\n    }\n\n    constructor(address[] memory _owners, uint256 _numConfirmationsRequired) {\n        console.log(\"MultiSigWallet.constructor() called\");\n        require(_owners.length > 0, \"owners required\");\n        require(\n            _numConfirmationsRequired > 0 &&\n                _numConfirmationsRequired <= _owners.length,\n            \"invalid number of required confirmations\"\n        );\n\n        for (uint256 i = 0; i < _owners.length; i++) {\n            address owner = _owners[i];\n\n            require(owner != address(0), \"invalid owner\");\n            require(!isOwner[owner], \"owner not unique\");\n\n            isOwner[owner] = true;\n            owners.push(owner);\n        }\n\n        numConfirmationsRequired = _numConfirmationsRequired;\n        console.log(\"MultiSigWallet.constructor() passed\");\n    }\n\n    receive() external payable {\n        console.log(\"MultiSigWallet.receive(), msg.value is %d\", msg.value);\n        emit Deposit(msg.sender, msg.value, address(this).balance);\n    }\n\n    fallback() external payable {\n        console.log(\"MultiSigWallet.fallback(), msg.value is %d\", msg.value);\n        emit Deposit(msg.sender, msg.value, address(this).balance);\n    }\n\n    function submitTransaction(\n        address _to,\n        uint256 _value,\n        bytes memory _data\n    ) public onlyOwner {\n        uint256 txIndex = transactions.length;\n\n        transactions.push(\n            Transaction({\n                to: _to,\n                value: _value,\n                data: _data,\n                executed: false,\n                numConfirmations: 0\n            })\n        );\n\n        emit SubmitTransaction(msg.sender, txIndex, _to, _value, _data);\n        console.log(\n            \"MultiSigWallet.submitTransaction(#%d), transaction %d created\",\n            txIndex,\n            txIndex\n        );\n    }\n\n    function confirmTransaction(uint256 _txIndex)\n        public\n        onlyOwner\n        txExists(_txIndex)\n        notExecuted(_txIndex)\n        notConfirmed(_txIndex)\n    {\n        console.log(\"MultiSigWallet.confirmTransaction(#%d) called\", _txIndex);\n        Transaction storage transaction = transactions[_txIndex];\n        transaction.numConfirmations += 1;\n        isConfirmed[_txIndex][msg.sender] = true;\n\n        emit ConfirmTransaction(msg.sender, _txIndex);\n        console.log(\n            \"MultiSigWallet.confirmTransaction(#%d) confirmed by %s\",\n            _txIndex,\n            msg.sender\n        );\n    }\n\n    function executeTransaction(uint256 _txIndex)\n        public\n        onlyOwner\n        txExists(_txIndex)\n        notExecuted(_txIndex)\n    {\n        console.log(\"MultiSigWallet.executeTransaction(#%d) called\", _txIndex);\n        Transaction storage transaction = transactions[_txIndex];\n\n        require(\n            transaction.numConfirmations >= numConfirmationsRequired,\n            \"cannot execute tx\"\n        );\n\n        transaction.executed = true;\n        console.log(\n            \"MultiSigWallet.executeTransaction(#%d) contract balance is %d\",\n            _txIndex,\n            address(this).balance\n        );\n        console.log(\n            \"MultiSigWallet.executeTransaction(#%d) low-level call, value=%d, data=\",\n            _txIndex,\n            transaction.value\n        );\n        console.logBytes(transaction.data);\n        (bool success, bytes memory retdata) = transaction.to.call(\n            transaction.data\n        );\n\n        require(success, \"tx failed\");\n        console.log(\n            \"MultiSigWallet.executeTransaction(#%d) after low-level call, retdata=\",\n            _txIndex\n        );\n        console.logBytes(retdata);\n        emit ExecuteTransaction(msg.sender, _txIndex);\n    }\n\n    function revokeConfirmation(uint256 _txIndex)\n        public\n        onlyOwner\n        txExists(_txIndex)\n        notExecuted(_txIndex)\n    {\n        console.log(\"MultiSigWallet.revokeConfirmation(#%d) called\", _txIndex);\n\n        Transaction storage transaction = transactions[_txIndex];\n\n        require(isConfirmed[_txIndex][msg.sender], \"tx not confirmed\");\n\n        transaction.numConfirmations -= 1;\n        isConfirmed[_txIndex][msg.sender] = false;\n        console.log(\"MultiSigWallet.revokeConfirmation(#%d) passed\", _txIndex);\n        emit RevokeConfirmation(msg.sender, _txIndex);\n    }\n\n    function getOwners() public view returns (address[] memory) {\n        return owners;\n    }\n\n    function getTransactionCount() public view returns (uint256) {\n        return transactions.length;\n    }\n\n    function getTransaction(uint256 _txIndex)\n        public\n        view\n        returns (\n            address to,\n            uint256 value,\n            bytes memory data,\n            bool executed,\n            uint256 numConfirmations\n        )\n    {\n        Transaction storage transaction = transactions[_txIndex];\n\n        return (\n            transaction.to,\n            transaction.value,\n            transaction.data,\n            transaction.executed,\n            transaction.numConfirmations\n        );\n    }\n}\n\ncontract TestContract {\n    uint256 public i;\n\n    fallback() external payable {\n        console.log(\"TestContract.fallback()\");\n    }\n\n    function callMe(uint256 j) public payable {\n        console.log(\"TestContract.callMe(%d) called\", j);\n        i += j;\n    }\n\n    function getData(uint256 j) public pure returns (bytes memory) {\n        return abi.encodeWithSignature(\"callMe(uint256)\", j);\n    }\n}\n",
  "sourcePath": "contracts/Multisig_wallet.sol",
  "type": "contract"
}